:020000040000FA
:10000000F9EF1DF0C96E12004EEF17F0CBEC13F0B4
:10001000DCEC12F0FDD7120037EF1CF0D9CFE5FF72
:10002000E1CFD9FF00C0E5FF01C0E5FF02C0E5FF59
:1000300003C0E5FF04C0E5FF05C0E5FF06C0E5FF1E
:1000400007C0E5FF08C0E5FF09C0E5FF0AC0E5FFFE
:100050000BC0E5FF0CC0E5FF0DC0E5FF0EC0E5FFDE
:100060000FC0E5FF10C0E5FF11C0E5FF12C0E5FFBE
:1000700013C0E5FF14C0E5FF15C0E5FF16C0E5FF9E
:1000800017C0E5FF18C0E5FF19C0E5FF1AC0E5FF7E
:100090001BC0E5FF1CC0E5FF1DC0E5FF1EC0E5FF5E
:1000A000020EDBCF00F0030EDBCF01F0040EDBCF3E
:1000B00002F0050EDBCF03F0060EDBCF04F0070ED7
:1000C000DBCF05F0080EDBCF06F0090EDBCF07F023
:1000D0000A0EDBCF08F0096A0A6A02C00DF00D5063
:1000E000800A0DE102500301546F0150536F00501C
:1000F000526F030E016E520E006E800E026E03C030
:10010000E9FF04C0F3FF055043EC1EF00B6E0B50EB
:10011000D8B4C4EF03F00B50250A02E0ABEF03F0B4
:100120000C6A0D6A0E6A0F6A106A0A0E116E126A64
:10013000136A146A200E156E1668176A2B0E186E55
:10014000032A02E3044A052A03C0E9FF04C0F3FFBF
:10015000055043EC1EF0196E250A13E11950E56EA7
:100160000250E56E0150E56E0050E56EB7EC0FF001
:10017000040EE126094A0A2A032A02E3044A052A50
:10018000BED71950300A06E1300E156E032A02E37D
:10019000044A052A03C0E9FF04C0F3FF055043ECFD
:1001A0001EF02D0A06E1010E146E032A02E3044A32
:1001B000052A03C0E9FF04C0F3FF055043EC1EF01D
:1001C000200A08E1010E176E200E186E032A02E3C2
:1001D000044A052A03C0E9FF04C0F3FF055043ECBD
:1001E0001EF02B0A06E1010E176E032A02E3044AF1
:1001F000052A03C0E9FF04C0F3FF055043EC1EF0DD
:10020000196E310E195C2BE33A0E195C28E203C01B
:1002100019F004C01AF005C01BF019C0E9FF1AC09C
:10022000F3FF1B5043EC1EF01C6E300E1C5C11E300
:100230003A0E1C5C0EE213500A0DF3CF1DF01C5059
:100240001D26D00E1D24136E192A02E31A4A1B2AFA
:10025000E4D719C003F01AC004F01BC005F003C0B6
:10026000E9FF04C0F3FF055043EC1EF02E0A2DE118
:10027000032A02E3044A052A166A03C019F004C0DF
:100280001AF005C01BF019C0E9FF1AC0F3FF1B509C
:1002900043EC1EF01C6E300E1C5C11E33A0E1C5C2D
:1002A0000EE216500A0DF3CF1DF01C501D26D00E85
:1002B0001D24166E192A02E31A4A1B2AE4D719C014
:1002C00003F01AC004F01BC005F003C0E9FF04C02E
:1002D000F3FF055043EC1EF0196E6C0A07E1010EA6
:1002E0000C6E032A02E3044A052A09D01950680A51
:1002F00006E1010E0E6E032A02E3044A052A03C03A
:10030000E9FF04C0F3FF055043EC1EF0750A06E157
:10031000010E106E032A02E3044A052A03C0E9FF16
:1003200004C0F3FF055043EC1EF0196E730A05E19B
:10033000010E0D6E200E156E3FD01950780A03E1A4
:10034000100E116E39D01950580A05E1100E116EB9
:10035000010E126E31D01950630A02E1116A2CD0DD
:1003600019506F0A03E1080E116E26D01950660A63
:1003700003E1010E0F6E20D01950640A1DE01950E0
:10038000690A1AE0105005E0FF0E03260422052238
:1003900013D01950E56E0250E56E0150E56E005025
:1003A000E56EB7EC0FF0040EE126094A0A2A032A8B
:1003B00002E3044A052AA3D60D5021E00650030F9C
:1003C0000D6E000E0720196E000E08201A6E0DC06B
:1003D00006F019C007F01AC008F0FD0E0D26FF0E3A
:1003E00019221A220DC0E9FF19C0F3FF1A50FAECC6
:1003F0001CF00D6EF3CF19F0F4CF1AF0FDD00F50B2
:100400000DE0000E1A6E080E196E100E0D6E040E21
:100410000626000E072208221668EED016680C5039
:1004200023E00650040F0C6E000E07200F6E000E26
:1004300008201B6E0CC006F00FC007F01BC008F0B0
:10044000FC0E0C26FF0E0F221B220CC0E9FF0FC072
:10045000F3FF1B5080EC1CF00C6EF3CF0FF0F4CFC9
:100460001BF0E9CF1CF067D00E502FE00650020FB2
:100470000E6E000E07201D6E000E08201E6E0EC0B0
:1004800006F01DC007F01EC008F0FE0E0E26FF0E7F
:100490001D221E220EC0E9FF1DC0F3FF1E50B9EC45
:1004A0001DF00E6E0EC00CF00F6A1B6A1C6A115014
:1004B0000A0A03E11050D8B43ED00C500E6E0EC0A4
:1004C0000CF00F6A1B6A1C6A36D00650020F0E6EC3
:1004D000000E07201D6E000E08201E6E0EC006F0D6
:1004E0001DC007F01EC008F0FE0E0E26FF0E1D22D6
:1004F0001E220EC0E9FF1DC0F3FF1E50B9EC1DF017
:100500000E6EF3CF1DF00EC00CF01DC00FF0E86AA8
:100510001DBEFF0E1B6E1C6E11500A0A02E1105028
:100520000AE00C500E6E0F501D6E0EC00CF01DC078
:100530000FF01B6A1C6A040E196EF40E0D6E800E0D
:100540001A6E1150D8B440D0105013E01150E56E1F
:10055000040EE56EF40EE56E1C50E56E1B50E56E64
:100560000F50E56E0C50E56EFEEC0BF0070EE12629
:1005700012D01150E56E040EE56EF40EE56E1C50BF
:10058000E56E1B50E56E0F50E56E0C50E56EE5EC28
:1005900015F0070EE12617502FE00DC0E9FF19C036
:1005A000F3FF1A5043EC1EF02D0A26E0FF0E0D2635
:1005B00019221A2218C0E5FF0DC0E9FF19C0F3FF88
:1005C0001A50BBEC1EF018D00CC0E5FF0DC0E9FFBF
:1005D00019C0F3FF1A50BBEC1EF00D50010F0C6E4A
:1005E000000E19200E6E000E1A20E56A0CC0E9FFFD
:1005F0000EC0F3FFBBEC1EF00DC00CF019C00EF0E6
:100600001AC00FF013C010F0105010E00CC0E9FF3A
:100610000EC0F3FF0F5043EC1EF0176E175006E0AC
:100620000C2A02E30E4A0F2A1006EED710C013F070
:1006300014501EE109C00CF00AC00EF010C00FF0FB
:100640000F5010E01550E56E0250E56E0150E56E5A
:100650000050E56EB7EC0FF0040EE1260C4A0E2AAE
:100660000F06EED70CC009F00EC00AF00FC013F051
:1006700016C00CF00DC00DF019C00EF01AC00FF02E
:1006800009C010F00AC015F00DC0E9FF0EC0F3FF5D
:100690000F5043EC1EF0166E1650D8B43ED00CC06E
:1006A00016F0176A161E171E1650171005E00CC01C
:1006B00016F00C06165031E00DC0E9FF0EC0F3FF36
:1006C0000F5043EC1EF0116E125010E01150E56E09
:1006D00076EC1DF0166EE652165004E0DF0E111493
:1006E000166E02D011C016F016C011F01150E56E52
:1006F0000250E56E0150E56E0050E56EB7EC0FF06C
:10070000040EE1260D2A02E30E4A0F2A104A152A8A
:100710001350D8B4B9D71306B7D710C009F015C015
:100720000AF014502BE010C00CF015C00DF013C0EF
:100730000EF00E501FE0200EE56E0250E56E0150E7
:10074000E56E0050E56EB7EC0FF0040EE1260C4AA2
:100750000D2A0E06EED70B50E56E0250E56E0150E5
:10076000E56E0050E56EB7EC0FF0040EE126094A85
:100770000A2A04D00CC009F00DC00AF0032A02E3D3
:10078000044A052A7FEF00F00AC0F3FF0950E4CFC6
:100790001EF0E4CF1DF0E4CF1CF0E4CF1BF0E4CF5B
:1007A0001AF0E4CF19F0E4CF18F0E4CF17F0E4CF5B
:1007B00016F0E4CF15F0E4CF14F0E4CF13F0E4CF5B
:1007C00012F0E4CF11F0E4CF10F0E4CF0FF0E4CF5B
:1007D0000EF0E4CF0DF0E4CF0CF0E4CF0BF0E4CF5B
:1007E0000AF0E4CF09F0E4CF08F0E4CF07F0E4CF5B
:1007F00006F0E4CF05F0E4CF04F0E4CF03F0E4CF5B
:1008000002F0E4CF01F0E4CF00F0E4CFD9FF120012
:100810003C4E4F20464C4F41543E000000C0E5FF87
:1008200001C0E5FF02C0E5FF03C0E5FF04C0E5FF2E
:1008300005C0E5FF06C0E5FF07C0E5FF08C0E5FF0E
:1008400009C0E5FF0AC0E5FF0BC0E5FF0CC0E5FFEE
:10085000006A016A026A040E025CD8B0EBD1100E85
:10086000015CD8B0E7D1012A0401182B100E185DE5
:10087000D8B0186B1839E8441F0B036E046A5B0E7E
:100880000326030E042203C0E9FF04C0EAFFEFCFF2
:1008900003F018C404F0070E0416010E056E000ED6
:1008A000066E045006E0E86CD89005360636010F57
:1008B000FCE3076A0350051607500616055006109C
:1008C000D880E866D890056A05360550D8A4C3D705
:1008D00004011851020DF450046EF3CF03F0E00E42
:1008E0000324056E000E0420066E05C0E9FF06C055
:1008F000EAFFEECF05F0EFCF06F015C407F007A032
:100900009DD0B30E0324076E040E0420086E07C0AA
:10091000E9FF08C0EAFFEECF07F0EFCF08F006507E
:10092000800FF36E0850800FF35C02E10750055C06
:1009300003E2056A066A60D0D30E0326040E042281
:1009400003C0E9FF04C0EAFFEECF03F0EFCF04F0ED
:100950000450800FF36E0650800FF35C02E10550E7
:10096000035C04E205683F0E066E46D00750055C46
:10097000096E085006580A6EE86A0ABEFF0E0B6E32
:10098000E56E0B50E56E0A50E56E0950E56EE56ABE
:10099000E56A400EE56E000EE56AF4EC0AF0096EB9
:1009A000F3CF0AF0F4CF0BF0E9CF0CF0080EE126FC
:1009B0000750035C076E08500458086EE86A08BECA
:1009C000FF0E036EE56E0350E56E0850E56E0750AE
:1009D000E56E0C50E56E0B50E56E0A50E56E095061
:1009E000E56E9AEC0EF0036EF3CF04F0080EE126EC
:1009F0000350056E0450066E04011451800FF36E0F
:100A00000650800FF35C02E10550135D03E3056AB5
:100A1000066A14D004011351FF08036E3F0E1455EB
:100A2000046E0650800FF36E0450800FF35C02E1F9
:100A30000350055C03E305683F0E066E0401185180
:100A4000020DF450046EF3CF03F0930E0326040E50
:100A5000042203C0E9FF04C0EAFFEECF03F0EFCFAA
:100A600004F00350055C036E04500658046ED880F1
:100A700004AED89004E3041E036CD8B4042A022AFE
:100A800004011451800FF36E0450800FF35C02E1F7
:100A90000350135DD8B0DFD604011851020DF45095
:100AA000046EF3CF03F0930E0326040E042203C05A
:100AB000E9FF04C0EAFF05C0EEFF06C0EFFF15C462
:100AC00003F003A459D01851020DF450046EF3CF73
:100AD00003F0000E0324076E030E0420086E07C007
:100AE000E9FF08C0EAFFEECF09F0EFCF0AF00950A6
:100AF0000A10D8B441D05C0E0326040E042203C0B1
:100B0000E9FF04C0EAFFEECF03F0EFCF04F003509B
:100B1000055C036E04500658046E03101CE004507C
:100B2000800F800F02E1010E035C0B6A0B360A5046
:100B3000800F800F02E1010E095C096A09360B5033
:100B4000091809E107C0E9FF08C0EAFF03C0EEFF8A
:100B500004C0EFFF80D604011851020DF450046E5A
:100B6000F3CF03F0000E0326030E042203C0E9FFB7
:100B700004C0EAFFEE6AEF6A15C403F003A246D090
:100B800000500EE100C003F0002A046A190E03268B
:100B9000040E042203C0E9FF04C0EAFF420EEF6E18
:100BA00000C003F00028046E076A190E0326040E25
:100BB000072204011851086E640E082603C0E9FFDD
:100BC00007C0EAFF08C0EFFF04C003F0042A076A69
:100BD000190E0326040E07220650086E03C0E9FF13
:100BE00007C0EAFF08C0EFFF04C003F00428006E4E
:100BF000046A190E0326040E04220550076E03C072
:100C0000E9FF04C0EAFF07C0EFFF25D618C403F0D0
:100C10000650E56E0550E56EE56A0350E56E000E80
:100C2000E56E240EE56EAA0EE56ECDEC18F0070E0B
:100C3000E12611D602C001F000501EE015C402F0FA
:100C400002A21AD000C002F0002A036A190E02267E
:100C5000040E032202C0E9FF03C0EAFF0A0EEF6E92
:100C60000050E56E800EE56E040EE56E190EE56E21
:100C70005BEC12F0040EE1260150E4CF0CF0E4CF5F
:100C80000BF0E4CF0AF0E4CF09F0E4CF08F0E4CFB2
:100C900007F0E4CF06F0E4CF05F0E4CF04F0E4CFB2
:100CA00003F0E4CF02F0E4CF01F0E4CF00F0120053
:100CB00000C0E5FF01C0E5FF02C0E5FF03C0E5FF9E
:100CC00004C0E5FF05C0E5FF06C0E5FF07C0E5FF7E
:100CD000C2A204D00401165181EF08F0040117519B
:100CE000D8B426D104011651020DF450016EF3CF91
:100CF00000F0E00E0026000E012200C0E9FF01C056
:100D0000EAFFEECF00F0EFCF01F0270E1625026EBE
:100D1000036A040E032202C0E9FF03C0EAFFEFCF1B
:100D200002F00250FF0A01E164D002380F0B036E9B
:100D3000920E0324046E056A0F0E0522066A920EB7
:100D400003260F0E062203C0E9FF06C0EAFFEFCF1D
:100D500003F00250066E070E0616010E076E0650CF
:100D60000DE006E6E86CD8900736010FFDE306D0EB
:100D7000D89007BED8800732010FFBE3071C066E30
:100D80000350061604C0E9FF05C0EAFF06C0EFFFE6
:100D900002380F0B036E890E0324046E056A0F0ED2
:100DA0000522066A890E03260F0E062203C0E9FFFC
:100DB00006C0EAFFEFCF03F0070E0216010E066E23
:100DC00002500DE006E6E86CD8900636010FFDE310
:100DD00006D0D89006BED8800632010FFBE3061C71
:100DE000026E0350021604C0E9FF05C0EAFF02C00C
:100DF000EFFF04011651020DF450036EF3CF02F021
:100E0000E00E0226000E032201340130056E003090
:100E1000046E005C046E05500158056EC3CF00F0EF
:100E2000016A0050042601500522C4CF00F0016A77
:100E30000050076E066A065004260750052202C0BD
:100E4000E9FF03C0EAFF04C0EEFF05C0EFFF0401A5
:100E50001251010A01E06AD004011651020DF4504A
:100E6000016EF3CF00F0E00E0024026E000E0120B0
:100E7000036E02C0E9FF03C0EAFFEECF02F0EFCF3E
:100E800003F0B30E0026040E012200C0E9FF01C0EA
:100E9000EAFFEECF04F0EFCF05F09C0E0426D8A0B9
:100EA00005060350800FF36E0550800FF35C02E1DE
:100EB0000450025C0EE20250640F046E000E032028
:100EC000056E00C0E9FF01C0EAFF04C0EEFF05C0E7
:100ED000EFFF04011651020DF450016EF3CF00F044
:100EE000D30E0026040E012200C0E9FF01C0EAFF74
:100EF000EECF04F0EFCF05F0640E0426D8B0052A3B
:100F00000550800FF36E0350800FF35C02E1025036
:100F1000045C0CE29C0E0226D8A0030600C0E9FF88
:100F200001C0EAFF02C0EEFF03C0EFFF0401176B30
:100F30000401162B100E165DD8B0166B1639E84456
:100F40001F0B006E016A5B0E0026030E012200C01B
:100F5000E9FF01C0EAFFEFCF00F016C401F0070E71
:100F60000116010E026E000E036E015006E0E86CE1
:100F7000D89002360336010FFCE3046A00500216D3
:100F80000450031602500310D880E866D890026A15
:100F900002360250D8A4B3D0230E04011625006EE9
:100FA000016A0F0E012200C0E9FF01C0EAFFEFCF86
:100FB00000F00044E844FC0B016E0128C26E270ECD
:100FC0001625006E016A040E012200C0E9FF01C06F
:100FD000EAFFEFCF00F00050FF0A01E18CD00038AB
:100FE0000F0B016E920E0124026E036A0F0E032294
:100FF000046A920E01260F0E042201C0E9FF04C00C
:10100000EAFFEFCF01F00050046E070E0416010E48
:10101000056E04500DE006E6E86CD8900536010F29
:10102000FDE306D0D89005BED8800532010FFBE362
:101030000150051202C0E9FF03C0EAFF05C0EFFF3F
:10104000380E016E0F0E026E00380F0B036E046A2D
:101050000350012604500222380E056E0F0E066E54
:10106000055003260650042203C0E9FF04C0EAFF2E
:10107000EFCF03F0070E0016010E046E00500DE0D6
:1010800006E6E86CD8900436010FFDE306D0D89050
:1010900004BED8800432010FFBE30350041201C0E8
:1010A000E9FF02C0EAFF04C0EFFF0F014583000023
:1010B000000045930F01449308C0E5FFF2CF08F00C
:1010C000F29E4481000000000000000000000000CB
:1010D0000000000000000000000000000000000010
:1010E000000000000000000000000000449108BE65
:1010F000F28EE4CF08F0C282010E0401176F0401E2
:101100001651E4CF07F0E4CF06F0E4CF05F0E4CFCA
:1011100004F0E4CF03F0E4CF02F0E4CF01F0E4CF39
:1011200000F01200800EE56E040EE56ED30EE56E43
:101130009EEC17F0030EE126800EE56E040EE56EC0
:10114000B30EE56E9EEC17F0030EE126800EE56E01
:10115000040EE56ED50EE56E9EEC17F0030EE1264B
:10116000800EE56E040EE56EB50EE56E9EEC17F092
:10117000030EE126800EE56E040EE56ED70EE56ED9
:101180009EEC17F0030EE126800EE56E040EE56E70
:10119000B70EE56E9EEC17F0030EE126800EE56EAD
:1011A000040EE56ED90EE56E9EEC17F0030EE126F7
:1011B000800EE56E040EE56EB90EE56E9EEC17F03E
:1011C000030EE126800EE56E040EE56EDB0EE56E85
:1011D0009EEC17F0030EE126800EE56E040EE56E20
:1011E000BB0EE56E9EEC17F0030EE126800EE56E59
:1011F000040EE56EDD0EE56E9EEC17F0030EE126A3
:10120000800EE56E040EE56EBD0EE56E9EEC17F0E9
:10121000030EE126800EE56E040EE56EDF0EE56E30
:101220009EEC17F0030EE126800EE56E040EE56ECF
:10123000BF0EE56E9EEC17F0030EE126800EE56E04
:10124000040EE56EE10EE56E9EEC17F0030EE1264E
:10125000800EE56E040EE56EC10EE56E9EEC17F095
:10126000030EE126800EE56E040EE56EE30EE56EDC
:101270009EEC17F0030EE126800EE56E040EE56E7F
:10128000C30EE56E9EEC17F0030EE126800EE56EB0
:10129000040EE56EE50EE56E9EEC17F0030EE126FA
:1012A000800EE56E040EE56EC50EE56E9EEC17F041
:1012B000030EE126800EE56E040EE56EE70EE56E88
:1012C0009EEC17F0030EE126800EE56E040EE56E2F
:1012D000C70EE56E9EEC17F0030EE126800EE56E5C
:1012E000040EE56EE90EE56E9EEC17F0030EE126A6
:1012F000800EE56E040EE56EC90EE56E9EEC17F0ED
:10130000030EE126800EE56E040EE56EEB0EE56E33
:101310009EEC17F0030EE126800EE56E040EE56EDE
:10132000CB0EE56E9EEC17F0030EE126800EE56E07
:10133000040EE56EED0EE56E9EEC17F0030EE12651
:10134000800EE56E040EE56ECD0EE56E9EEC17F098
:10135000030EE126800EE56E040EE56EEF0EE56EDF
:101360009EEC17F0030EE126800EE56E040EE56E8E
:10137000CF0EE56E9EEC17F0030EE126800EE56EB3
:10138000040EE56EF10EE56E9EEC17F0030EE126FD
:10139000800EE56E040EE56ED10EE56E9EEC17F044
:1013A000030EE126120000C0E5FF01C0E5FF02C008
:1013B000E5FF03C0E5FF04010F51D8B40CD19DA88F
:1013C0001DD09EA81BD0030166510301641905E1DD
:1013D00071EC1EF00301646BFED0000E0301662564
:1013E000006E016A0F0E012200C0E9FF01C0EAFF92
:1013F000EFCF60F3662B60C3ADFFEDD09DAAEBD0BD
:101400009EAAE9D0ABA205D00301658171EC1EF064
:10141000E2D0ABA405D00301658371EC1EF0DBD0F4
:10142000ABA048D0AECF60F310C400F0016A008ECC
:1014300060C302F0036A0250001803E10350011870
:1014400001E004D003016589AB96C5D0030160516A
:1014500004E060510401101929E103016599AB967C
:101460000301605103E00301659702D00301658722
:1014700060C369F362C36AF303016251006E000442
:1014800003016B6F600E03016A25006E016A000E96
:10149000012200C0E9FF01C0EAFF60C3EFFF6A2B31
:1014A0006A51800A02E103016A6B95D003016599D4
:1014B000AB8691D0AECF60F3030165A921D010C4F3
:1014C00000F0016A008E60C302F0036A0250001847
:1014D00003E10350011801E011D09D9AAB9894905C
:1014E0000301645104E1AD6A71EC1EF007D000CF36
:1014F000ADFF010E0301666F9D886DD0AB866BD08A
:10150000030160510301692703016A5103016B194B
:101510001BE1030169510CE16AC362F3030165B782
:1015200012D09D9AAB989490AD6A71EC1EF00BD0DE
:101530000301658565B707D09D9AAB989490010E1D
:10154000AD6E71EC1EF047D003016A5103016319BF
:1015500008E1030163510301621903E071EC1EF01D
:101560003AD062C300F0016A004A012AE56A800E9F
:10157000E56E0150E56E0050E56E39EC14F0006E3A
:10158000040EE12600500301616F03016A190FE1A7
:1015900060C300F01F0E001403016B6F006E020E9B
:1015A00000246B6F0301625103016B276B9F6AC3B9
:1015B00000F003016A2B016A600E0026000E012272
:1015C00000C0E9FF01C0EAFF60C3EFFF6A51800A73
:1015D00002E103016A6BE4CF03F0E4CF02F0E4CF51
:1015E00001F0E4CF00F01200D9CFE5FFE1CFD9FF41
:1015F00000C0E5FF01C0E5FF02C0E5FF03C0E5FF55
:1016000004C0E5FF05C0E5FF06C0E5FF07C0E5FF34
:10161000020EDBCF00F0030EDBCF01F0040EDBCFB8
:1016200002F0050EDBCF03F0060EDBCF04F0070E51
:10163000DBCF05F0080EDBCF06F0090EDBCF07F09D
:10164000005004018A6F01508B6F02508C6F035061
:101650008D6F045004018E6F05508F6F0650906F90
:101660000750916F04018A5104019003F4CF01F0F7
:10167000F3CF00F000500301426F0150436F0401AB
:101680008A5104018E03F4CF01F0F3CF00F0005033
:101690000301406F0150416F04018D5104018E031D
:1016A000F3CF00F00301435100260050436F0401C3
:1016B0008C5104018F03F3CF01F00150002600503C
:1016C0000301436F04018C5104018E03F4CF01F038
:1016D000F3CF00F003014251002643510122005094
:1016E000426F0150436F04018B5104018F03F4CF0B
:1016F00003F0F3CF02F00250002603500122005005
:101700000301426F0150436F04018B5104019003A8
:10171000F3CF00F000500301476F04018B51040127
:101720008E03F4CF01F0F3CF00F000500301456FBA
:101730000150466F04018A5104019103F3CF00F078
:10174000005003014B6F04018A5104018F03F4CF51
:1017500001F0F3CF00F000500301496F01504A6FD0
:101760000301446B0301486B03014451030140250D
:10177000006E0301455103014121016E03014651F1
:1017800003014221026E0301475103014321036E0D
:101790000050406F0150416F0250426F0350436F41
:1017A0000301485103014025006E03014951030123
:1017B0004121016E03014A5103014221026E0301DE
:1017C0004B5103014321036E03C0E9FF02C0F4FF44
:1017D00001C0F3FF0050E4CF07F0E4CF06F0E4CF00
:1017E00005F0E4CF04F0E4CF03F0E4CF02F0E4CF5F
:1017F00001F0E4CF00F0E4CFD9FF1200D9CFE5FF2C
:10180000E1CFD9FF00C0E5FF01C0E5FF02C0E5FF61
:1018100003C0E5FF04C0E5FF05C0E5FF06C0E5FF26
:1018200007C0E5FF08C0E5FF09C0E5FF0AC0E5FF06
:101830000BC0E5FF0CC0E5FF0DC0E5FF0EC0E5FFE6
:101840000FC0E5FF020EDBCF00F0030EDBCF01F08F
:10185000040EDBCF02F0050EDBCF03F0060EDBCF6C
:1018600004F0070EDBCF05F0080EDBCF06F0200EEC
:10187000076E086A06C009F00A6A0B6A0C6AE56A14
:10188000E56AE56A0950E56E0350E56E0250E56EC3
:101890000150E56E0050E56EDAEC0CF00D6E080EAE
:1018A000E126300E0D263A0E0D5C05E30D500E6E4E
:1018B000270E0E240D6EFF0E07260822200E072489
:1018C0000E6E030E08200F6E0EC0E9FF0FC0EAFF78
:1018D0000DC0EFFF0C50E56E0B50E56E0A50E56E43
:1018E0000950E56E0350E56E0250E56E0150E56E5D
:1018F0000050E56E9AEC0EF0006EF3CF01F0F4CFDD
:1019000002F0E9CF03F0080EE126005001100210AA
:101910000310D8A4AFD707C000F008C001F004C07E
:1019200002F005C003F000C004F001C005F0004A59
:10193000012A200E0426030E052204C0E9FF05C07B
:10194000EAFFEFCF04F002C0E9FF03C0EAFF04C0E2
:10195000EFFF024A032A000E015C02E1200E005C48
:10196000E2E302C0E9FF03C0EAFF000EEF6AE4CF42
:101970000FF0E4CF0EF0E4CF0DF0E4CF0CF0E4CFA5
:101980000BF0E4CF0AF0E4CF09F0E4CF08F0E4CFA5
:1019900007F0E4CF06F0E4CF05F0E4CF04F0E4CFA5
:1019A00003F0E4CF02F0E4CF01F0E4CF00F0E4CFA5
:1019B000D9FF1200D9CFE5FFE1CFD9FF00C0E5FF85
:1019C00001C0E5FF02C0E5FF03C0E5FF04C0E5FF7D
:1019D00005C0E5FF06C0E5FF07C0E5FF08C0E5FF5D
:1019E00009C0E5FF0AC0E5FF020EDBCF00F0030EE1
:1019F000DBCF01F0040EDBCF02F0050EDBCF03F0EE
:101A0000060EDBCF04F0070EDBCF05F0080EDBCFB0
:101A100006F0090EDBCF07F0086A04500510061027
:101A2000071005E1E968F468F368E86847D0096AD7
:101A30000750800BE8440A6E0A501BE1045004264C
:101A40000536063607360750035C08E10650025C8F
:101A500005E10550015C02E10450005C06E2D8900B
:101A6000073206320532043204D0092A09C008F0D0
:101A7000DFD70750035C08E10650025C05E1055022
:101A8000015C02E10450005C08E30450005E055074
:101A9000015A0650025A0750035AD89007320632AC
:101AA0000532043208C009F008060950E2E103C01B
:101AB000E9FF02C0F4FF01C0F3FF0050E4CF0AF0D9
:101AC000E4CF09F0E4CF08F0E4CF07F0E4CF06F06C
:101AD000E4CF05F0E4CF04F0E4CF03F0E4CF02F06C
:101AE000E4CF01F0E4CF00F0E4CFD9FF1200D9CF6A
:101AF000E5FFE1CFD9FF00C0E5FF01C0E5FF02C06F
:101B0000E5FF03C0E5FF04C0E5FF05C0E5FF06C033
:101B1000E5FF07C0E5FF08C0E5FF09C0E5FF0AC013
:101B2000E5FF020EDBCF00F0030EDBCF01F0040E69
:101B3000DBCF02F0050EDBCF03F0060EDBCF04F0A7
:101B4000070EDBCF05F00038E8441F0B066E076A6E
:101B50005B0E0626030E072206C0E9FF07C0EAFF58
:101B6000EFCF08F00050096E070E0916010E0A6E3D
:101B700009500DE006E6E86CD8900A36010FFDE347
:101B800006D0D8900ABED8800A32010FFBE3085075
:101B90000A1206C0E9FF07C0EAFF0AC0EFFF230EE2
:101BA0000024066E076A0F0E072206C0E9FF07C071
:101BB000EAFF01C0EFFF016A270E0026040E012292
:101BC000800E025E070E02160238F00B036E070E3F
:101BD00005160550032600C0E9FF01C0EAFF03C057
:101BE000EFFFE4CF0AF0E4CF09F0E4CF08F0E4CF50
:101BF00007F0E4CF06F0E4CF05F0E4CF04F0E4CF43
:101C000003F0E4CF02F0E4CF01F0E4CF00F0E4CF42
:101C1000D9FF120000C0E5FF01C0E5FF02C0E5FFEB
:101C200003C0E5FF030163510301621901E166D0BE
:101C300063C300F0002A009E016A600E0026000EB9
:101C4000012200C0E9FF01C0EAFFEFCF6DF31F0ED4
:101C500003016D1763C36CF36D5103016C276C5165
:101C6000006E020E00246C6F6C9F72EC1BF0006E15
:101C7000005003E1006A002A01D0006A72EC1BF0F8
:101C800003016D6F6DC301F0800E01166DC302F08C
:101C90001F0E021602C003F002C06DF3035003E1F1
:101CA00062C363F33ED000501EE0015025E072ECA9
:101CB0001BF0006E03016D51026E02046D6F005047
:101CC000420A1AE000504E0A03E1C6EC19F014D0A3
:101CD0000050460A03E1A5EC1EF00ED00050490A60
:101CE0000BE1FF0009D063C36EF3015003E04CEC3D
:101CF00019F002D0A5EC16F06CC363F304010C518B
:101D000004010D1906E00301645103E143EC10F0F6
:101D100008D094B006D00301645103E1ACB271EC79
:101D20001EF0E4CF03F0E4CF02F0E4CF01F0E4CF03
:101D300000F01200D9CFE5FFE1CFD9FF00C0E5FFE9
:101D400001C0E5FF02C0E5FF03C0E5FF04C0E5FFF9
:101D500005C0E5FF06C0E5FF07C0E5FF08C0E5FFD9
:101D600009C0E5FF0AC0E5FF0BC0E5FF0CC0E5FFB9
:101D70000DC0E5FF020EDBCF00F0030EDBCF01F05C
:101D8000040EDBCF02F0050EDBCF03F0060EDBCF37
:101D900004F0070EDBCF05F0080EDBCF06F0090ECE
:101DA000DBCF07F0086A096A0A6A0B6A200E0C6E1C
:101DB0000350800BE8440D6E0050002601360236B9
:101DC00003360850082609360A360B360D50D8A4BB
:101DD000088007500B5C08E106500A5C05E10550DD
:101DE000095C02E10450085C09E30450085E0550F8
:101DF000095A06500A5A07500B5A00800C040D6EFF
:101E00000DC00CF00D50D4E103C0E9FF02C0F4FF97
:101E100001C0F3FF0050E4CF0DF0E4CF0CF0E4CFAD
:101E20000BF0E4CF0AF0E4CF09F0E4CF08F0E4CF00
:101E300007F0E4CF06F0E4CF05F0E4CF04F0E4CF00
:101E400003F0E4CF02F0E4CF01F0E4CF00F0E4CF00
:101E5000D9FF120000C0E5FF01C0E5FF03C0E5FFA8
:101E600004C0E5FF05C0E5FF06C0E5FF07C0E5FFCC
:101E700008C0E5FF09C0E5FF0AC0E5FF0BC0E5FFAC
:101E800059C300F05AC301F00301593F01D05A2B46
:101E90000050E56E63EC1EF0E652076E046A056AB8
:101EA000066A59C300F05AC301F00301593F01D03B
:101EB0005A2B0050E56E63EC1EF0E6520B6A0A6E78
:101EC000086A0850041205120A5006120B50071235
:101ED00059C300F05AC301F00301593F01D05A2BF6
:101EE0000050E56E63EC1EF0E652036E006A03C01C
:101EF00001F0E86A03BEFF0E086E096E005004127E
:101F000001500512085006120950071259C300F07B
:101F10005AC301F00301593F01D05A2B0050E56E1E
:101F200063EC1EF0E652016A04120150051206121B
:101F3000071207C0E9FF06C0F4FF05C0F3FF045015
:101F4000E4CF0BF0E4CF0AF0E4CF09F0E4CF08F0DF
:101F5000E4CF07F0E4CF06F0E4CF05F0E4CF04F0DF
:101F6000E4CF03F0E4CF01F0E4CF00F01200D9CFCA
:101F7000E5FFE1CFD9FF00C0E5FF01C0E5FF02C0EA
:101F8000E5FF03C0E5FF04C0E5FF05C0E5FF06C0AF
:101F9000E5FF07C0E5FF020EDBCF00F0030EDBCF4D
:101FA00001F0040EDBCF02F0050EDBCF03F002C020
:101FB00006F00650046E800A33E100C0E9FF01C05C
:101FC000F3FF0250FAEC1CF0056EF3CF06F0F4CFED
:101FD00007F003C0E5FF05C0E9FF06C0F3FF0750A7
:101FE000BBEC1EF000C0E9FF01C0F3FF0250FAECA9
:101FF0001CF0056EF3CF06F0F4CF07F0052A02E3DC
:10200000064A072A05C0E5FF06C0F4FF07C0F6FF31
:1020100000C0E9FF01C0F3FF025054EC1EF020D0D5
:1020200004C000F000AA1CD0007A0050046E04E145
:102030000350F4EC1EF014D00450010A04E10350E4
:1020400002EC00F00DD004500F0A04E1035018EC2C
:102050001BF006D004500E0A03E1035004EC1FF0FD
:10206000E4CF07F0E4CF06F0E4CF05F0E4CF04F0CE
:10207000E4CF03F0E4CF02F0E4CF01F0E4CF00F0CE
:10208000E4CFD9FF120000C0E5FF01C0E5FF02C0A8
:10209000E5FF03C0E5FFACA277D0A0EC1CF0006E1A
:1020A000005005E104010D6B04010C6B6DD00DC4F3
:1020B00001F000500126A0EC1CF0026E0006025058
:1020C000230A1FE1010E005CD8A05CD0A0EC1CF03C
:1020D000036E690A03E1E7EC1AF054D00350720A68
:1020E00003E171EC1EF04ED00350730A01E04AD0B8
:1020F0009480AB869D8A9D98AE50AE50AB98AB88CD
:1021000041D00250430A05E00250420A01E03AD0B1
:1021100001D0008E0301666B00C067F300500F0111
:10212000006F0301662B04010D51011814E0A0ECAF
:102130001CF0006E03016727000E03016625026E86
:10214000036A0F0E032202C0E9FF03C0EAFF00C0CA
:10215000EFFF662BE8D7000E03016625006E026ACA
:102160000F0E02220301671D036E032A00C0E9FF60
:1021700002C0EAFF03C0EFFF0301662B66C364F3EE
:1021800003015E6B01C00DF4E4CF03F0E4CF02F075
:10219000E4CF01F0E4CF00F01200D9CFE5FFE1CFAA
:1021A000D9FF00C0E5FF01C0E5FF02C0E5FF03C0A5
:1021B000E5FF04C0E5FF05C0E5FF06C0E5FF020E30
:1021C000DBCF00F0030EDBCF01F0040EDBCF02F01B
:1021D000050EDBCF03F003C004F0056A0350D8B44A
:1021E00053D000C0E9FF01C0F3FF025043EC1EF0E2
:1021F000066E430A03E1010E056E038E0406002AF3
:1022000002E3014A022A9D9AAB9894909D989EA859
:10221000FED7AC80AD6A00009EA8FED7AC9003C08C
:10222000ADFF00009EA8FED7055005E0420EAD6E42
:102230000324056E05D0620EAD6E620E0324056E9A
:1022400004C003F0035015E000009EA8FED700C0B4
:10225000E9FF01C0F3FF025043EC1EF0046E04C01E
:10226000ADFF045005260306002A02E3014A022AB4
:10227000E9D700009EA8FED7051CAD6EAD2A000070
:102280009EA8FED771EC1EF0E4CF06F0E4CF05F077
:10229000E4CF04F0E4CF03F0E4CF02F0E4CF01F0A8
:1022A000E4CF00F0E4CFD9FF120000C0E5FF01C089
:1022B000E5FF02C0E5FF03C0E5FF000EE56AEAECBA
:1022C0001BF0006EF3CF01F0E652000EE56AEAEC77
:1022D0001BF0026EF3CF03F0E65203500401015DE0
:1022E00002E10250005DD870026A0236015003011B
:1022F000565D02E10050555D04E200C055F301C097
:1023000056F3040102510FE10250D8B448D000C086
:1023100057F301C058F3010E026F0401036F04016B
:10232000046B056B3CD00401035127E0015003010D
:10233000585D02E10050575D04E200C057F301C050
:1023400058F3040105510401075D04E1040104513F
:102350000401065D24E203015851E56E5751E56E14
:10236000000EE56E280EE56E5A0EE56ECDEC18F007
:10237000050EE1260401036B12D0025004E00401B3
:10238000046B056B0CD0040105510401095D04E1E7
:10239000040104510401085D02E20401026BE4CF70
:1023A00003F0E4CF02F0E4CF01F0E4CF00F012003C
:1023B00000C0E5FF01C0E5FF02C0E5FF03C0E5FF87
:1023C00004C0E5FF006A5B0E0024016E026A030E82
:1023D000022201C0E9FF02C0EAFFEF6A002A020EF2
:1023E000005CF1E3006A0050020DF450026EF3CF7E
:1023F00001F0E00E0124036E000E0220046E03C003
:10240000E9FF04C0EAFFEE6AEF6A5C0E0124036E86
:10241000040E0220046E03C0E9FF04C0EAFFEE6A66
:10242000EF6A930E0124036E040E0220046E03C0B3
:10243000E9FF04C0EAFFEE6AEF6AB30E0124036EFF
:10244000040E0220046E03C0E9FF04C0EAFFEE6A36
:10245000EF6AD30E0126040E022201C0E9FF02C07A
:10246000EAFFEE687F0EEF6E270E0024016E026A0F
:10247000040E022201C0E9FF02C0EAFFEF68002A51
:10248000100E005CD8A0AFD7AF0EC06EC16A010EAF
:10249000C26EC282E4CF04F0E4CF03F0E4CF02F0D6
:1024A000E4CF01F0E4CF00F0120043204120256486
:1024B0002025640A0000D9CFE5FFE1CFD9FF00C095
:1024C000E5FF01C0E5FF02C0E5FF03C0E5FF04C072
:1024D000E5FF05C0E5FF06C0E5FF07C0E5FF020E0A
:1024E000DBCF00F0030EDBCF01F0040EDBCF02F0F8
:1024F000050EDBCF03F00DC40EF404010C510401F2
:102500000E5F0E51046E04040E6F03C004F0056AE2
:10251000030E0426D8B0052A0EC406F0076A075039
:10252000800FF36E0550800FF35C02E10450065CEF
:1025300002E2E8682ED0020E035C02E2E86A29D0CB
:1025400003060350E56E02EC1AF0E652046A0350EB
:10255000045C14E204500024056EE86A0120066E53
:10256000E86A022005C0E9FF06C0F3FF43EC1EF055
:10257000042AE56E02EC1AF0E652E9D70DC40EF417
:1025800004010C5104010E5F0E51006E00040E6F29
:10259000E86AE4CF07F0E4CF06F0E4CF05F0E4CF3B
:1025A00004F0E4CF03F0E4CF02F0E4CF01F0E4CF95
:1025B00000F0E4CFD9FF120000C0E5FF01C0E5FF45
:1025C00002C0E5FF03C0E5FF0AEC0EF058EC06F090
:1025D00055EC11F048EC1BF0006EF3CF01F0F4CF96
:1025E00002F0E9CF03F00F013351005E3451015A7C
:1025F0003551025A3651035A039E3F0E035C08E1DF
:10260000FF0E025C05E1FF0E015C02E1FF0E005CC3
:10261000D8B041D048EC1BF0F3CF01F0F4CF02F07A
:10262000E9CF03F0880F0F01336F130E0120346FD1
:10263000000E0220356F000E0320366F37C400F005
:102640000401372B150E005C21E3000EE56AEAEC6D
:102650001BF0006EF3CF01F0E65203015651E56E18
:102660005551E56E0150E56E0050E56E000EE56EC9
:10267000280EE56E620EE56ECDEC18F0070EE12631
:1026800000C055F301C056F30401376B050E040179
:10269000042701E3052BE4CF03F0E4CF02F0E4CFFD
:1026A00001F0E4CF00F01200D9CFE5FFE1CFD9FF70
:1026B00000C0E5FF01C0E5FF02C0E5FF03C0E5FF84
:1026C00004C0E5FF05C0E5FF020EDBCF00F0030EFE
:1026D000DBCF01F0040EDBCF02F00050020DF4500E
:1026E000036EF3CF00F05C0E0024046E040E032092
:1026F000056E04C0E9FF05C0EAFF01C0EEFF02C09D
:10270000EFFF930E0024046E040E0320056E04C038
:10271000E9FF05C0EAFFEECF04F0EFCF05F001506E
:10272000045C016E02500558026E000E0026030E76
:10273000032200C0E9FF03C0EAFF01C0EEFF02C0B0
:10274000EFFFD88002AED89004E3021E016CD8B42B
:10275000022A0250800F800F02E1030E015C02E2A8
:10276000016A026A0150021007E100C0E9FF03C0DC
:10277000EAFF000EEE6AEF6AE4CF05F0E4CF04F062
:10278000E4CF03F0E4CF02F0E4CF01F0E4CF00F0B7
:10279000E4CFD9FF120000C0E5FF01C0E5FF02C091
:1027A000E5FF03C0E5FF04C0E5FFEFEC1EF09492E7
:1027B0008B9248EC1BF0F3CF01F0F4CF02F0E9CF9D
:1027C00003F0880F0F01336F130E0120346F000EDA
:1027D0000220356F000E0320366FD8EC11F0928086
:1027E000800E006E0F0E016E0F0E036E380E002667
:1027F00003500122800E026E0F0E036E800E005EEB
:102800000350015A0F0E046E380E022604500322A4
:102810000F0E046E800E025E0450035A02C0E9FFE0
:1028200003C0EAFFEFCF02F0028000C0E9FF01C061
:10283000EAFF02C0EFFF000EE56AE56A13EC15F04F
:10284000E652E652E4CF04F0E4CF03F0E4CF02F026
:10285000E4CF01F0E4CF00F0120043542025640AD5
:10286000000043492025642025640A0043002563B5
:102870000000D9CFE5FFE1CFD9FF00C0E5FF01C0DF
:10288000E5FF02C0E5FF03C0E5FF04C0E5FF05C0AA
:10289000E5FF06C0E5FF020EDBCF00F0030EDBCF45
:1028A00001F0040EDBCF02F0050EDBCF03F0D88081
:1028B00001AED890046A0436045007E0011C066E8D
:1028C000001C056E054A062A04D000C005F001C0B0
:1028D00006F0D88003AED89007E3031C016E021CFB
:1028E000006E004A012A04D002C000F003C001F0CB
:1028F0000150E56E0050E56E0650E56E0550E56E40
:1029000048EC16F0006EF3CF01F0040EE1260450FF
:102910000AE0011C036E001C026E024A032A03C077
:10292000F3FF025003D001C0F3FF0050E4CF06F0E4
:10293000E4CF05F0E4CF04F0E4CF03F0E4CF02F0FD
:10294000E4CF01F0E4CF00F0E4CFD9FF1200D9CFFB
:10295000E5FFE1CFD9FF00C0E5FF01C0E5FF02C000
:10296000E5FF03C0E5FF04C0E5FF05C0E5FF020E7B
:10297000DBCF00F0030EDBCF01F0040EDBCF02F063
:10298000050EDBCF03F059C304F05AC305F0030171
:10299000593F01D05A2B0350E56E0450E56E5CECB4
:1029A0001CF0E652E65259C304F05AC305F0030185
:1029B000593F01D05A2B0250056EE56E0450E56E6A
:1029C0005CEC1CF0E652E65259C304F05AC305F021
:1029D0000301593F01D05A2B0150E56E0450E56EBA
:1029E0005CEC1CF0E652E65259C304F05AC305F001
:1029F0000301593F01D05A2B0050E56E0450E56E9B
:102A00005CEC1CF0E652E652E4CF05F0E4CF04F0B3
:102A1000E4CF03F0E4CF02F0E4CF01F0E4CF00F024
:102A2000E4CFD9FF1200D9CFE5FFE1CFD9FF00C035
:102A3000E5FF01C0E5FF02C0E5FF03C0E5FF04C0FC
:102A4000E5FF05C0E5FF06C0E5FF020EDBCF00F0A5
:102A5000030EDBCF01F00038E8441F0B026E036A5F
:102A60005B0E0226030E032202C0E9FF03C0EAFF49
:102A7000EFCF04F00050056E070E0516010E066E2E
:102A800005500DE006E6E86CD8900636010FFDE330
:102A900006D0D89006BED8800632010FFBE3045062
:102AA000061202C0E9FF03C0EAFF06C0EFFF230ED3
:102AB0000024026E036A0F0E032202C0E9FF03C066
:102AC000EAFF01C0EFFF016A270E0026040E012273
:102AD00000C0E9FF01C0EAFFFF0EEF68E4CF06F097
:102AE000E4CF05F0E4CF04F0E4CF03F0E4CF02F04C
:102AF000E4CF01F0E4CF00F0E4CFD9FF1200D9CF4A
:102B0000E5FFE1CFD9FF00C0E5FF01C0E5FF02C04E
:102B1000E5FF03C0E5FF04C0E5FF05C0E5FF06C013
:102B2000E5FF020EDBCF00F0030EDBCF01F0040E59
:102B3000DBCF02F003015D5119E12AEC0FF0036EC7
:102B4000F3CF04F0F4CF05F0E9CF06F003C0E5FFC2
:102B500004C0F4FF05C0F6FF06C0F7FF00C0E9FFA0
:102B600001C0F3FF025032EC1EF01ED003015D5194
:102B7000010A1AE100C0E9FF01C0F3FF025080EC36
:102B80001CF0006EF3CF01F0F4CF02F0E9CF03F0B8
:102B90000350E56E0250E56E0150E56E0050E56EA3
:102BA000A7EC14F0040EE126E4CF06F0E4CF05F024
:102BB000E4CF04F0E4CF03F0E4CF02F0E4CF01F07F
:102BC000E4CF00F0E4CFD9FF1200D9CFE5FFE1CF89
:102BD000D9FF00C0E5FF01C0E5FF02C0E5FF03C06B
:102BE000E5FF04C0E5FF05C0E5FF06C0E5FF020EF6
:102BF000DBCF00F0030EDBCF01F0040EDBCF02F0E1
:102C0000050EDBCF03F0060EDBCF04F0070EDBCFA3
:102C100005F0080EDBCF06F0D88003AED89015E3A0
:102C200006500A0A12E104C0E9FF05C0EAFF2D0EB2
:102C3000EF6E044A052A031E021E011E006C05E108
:102C4000012A03E1022AD8B4032A0650E56E055092
:102C5000E56E0450E56E0350E56E0250E56E0150DE
:102C6000E56E0050E56EFEEC0BF0070EE126E4CFBA
:102C700006F0E4CF05F0E4CF04F0E4CF03F0E4CFB6
:102C800002F0E4CF01F0E4CF00F0E4CFD9FF12006E
:102C9000D9CFE5FFE1CFD9FF00C0E5FF01C0E5FFD7
:102CA00002C0E5FF03C0E5FF04C0E5FF05C0E5FF86
:102CB00006C0E5FF020EDBCF00F0030EDBCF01F014
:102CC000040EDBCF02F0050EDBCF03F0046A056AC9
:102CD0000350800BE844066E065011E102500226B4
:102CE00003360350015C02E10250005C04E2D8901C
:102CF0000332023204D0052A05C004F0E9D703509C
:102D0000015C02E10250005C04E30250005E0350EB
:102D1000015AD8900332023204C005F0040605506F
:102D2000EEE101C0F3FF0050E4CF06F0E4CF05F080
:102D3000E4CF04F0E4CF03F0E4CF02F0E4CF01F0FD
:102D4000E4CF00F0E4CFD9FF120000C0E5FF01C0DE
:102D5000E5FF03C0E5FF72EC1BF0006E010E005CA6
:102D6000D8A043D0040E005CD8B03FD00006FA6A69
:102D7000FB6A0034FA36E834FA36FC0B8C0FE56E49
:102D80002D0EFA22000EFB22E450F96ECCEF16F065
:102D9000DAEF16F0E8EF16F072EC1BF0006A016E45
:102DA00072EC1BF0036A00240401006F0350012041
:102DB000016F1BD072EC1BF0006A016E72EC1BF00D
:102DC000036A00240401066F03500120076F0DD031
:102DD00072EC1BF0006A016E72EC1BF0036A0024B7
:102DE0000401086F03500120096FE4CF03F0E4CF22
:102DF00001F0E4CF00F0120000C0E5FF01C0E5FFE4
:102E000002C0E5FF03C0E5FF63C300F0016A6EC3C3
:102E100002F0036A0250005E0350015AE56A800E18
:102E2000E56E0150E56E0050E56E39EC14F0006E71
:102E3000040EE12600066EC301F0430E18EC1BF0F1
:102E4000200E18EC1BF0005020E0600E0124026EF2
:102E5000036A000E032202C0E9FF03C0EAFFEFCFBE
:102E600002F0E56A0250E56E000EE56E3C0EE56E7E
:102E7000FA0EE56ECDEC18F0050EE126012A0150A0
:102E8000800A01E1016A0006DED7E4CF03F0E4CF57
:102E900002F0E4CF01F0E4CF00F01200D8CFE5FF5C
:102EA000E0CFE5FFE56EF3CFE5FFF4CFE5FFE9CF37
:102EB000E5FFEACFE5FFFACFE5FFFBCFE5FF00C076
:102EC000E5FF01C0E5FF04010A510401836F04011D
:102ED0000B510401846FD650816FD750826FF2A4DA
:102EE00017D00AC400F00BC401F00050010F040118
:102EF0000A6F000E01200B6FF2940A510401836FD8
:102F000004010B510401846FD650816FD750826F3A
:102F1000E4CF01F0E4CF00F0E4CFFBFFE4CFFAFF11
:102F2000E4CFEAFFE4CFE9FFE4CFF4FFE4CFF3FF1F
:102F3000E450E4CFE0FFE4CFD8FF1000D9CFE5FFA5
:102F4000E1CFD9FF00C0E5FF01C0E5FF02C0E5FF0A
:102F500003C0E5FF04C0E5FF020EDBCF00F0030E67
:102F6000DBCF01F0040EDBCF02F003015D5111E174
:102F7000B3EC1AF0036EF3CF04F003C0E5FF04C016
:102F8000F4FF00C0E9FF01C0F3FF02508DEC1EF01A
:102F900016D003015D51010A12E100C0E9FF01C032
:102FA000F3FF0250B9EC1DF0006EF3CF01F00150B9
:102FB000E56E0050E56E89EC19F0E652E652E4CF7A
:102FC00004F0E4CF03F0E4CF02F0E4CF01F0E4CF6B
:102FD00000F0E4CFD9FF1200D00EF66E3D0EF76E72
:102FE000000EF86E0900F550056E0900F550066EEA
:102FF00004E1056702D039EF18F00900F550006EC2
:103000000900F550016E0900F550026E0900090033
:10301000F550E96E0900F550EA6E09000900090053
:10302000F550036E0900F550046E09000900F6CF53
:1030300007F0F7CF08F0F8CF09F000C0F6FF01C0A5
:10304000F7FF02C0F8FF035002E1045007E0090057
:10305000F550EE6E0306F8E20406F9D707C0F6FF56
:1030600008C0F7FF09C0F8FF050601E20606F8EF01
:1030700017F01200D9CFE5FFE1CFD9FF00C0E5FF7F
:1030800001C0E5FF02C0E5FF03C0E5FF04C0E5FFA6
:10309000020EDBCF00F00038E8441F0B016E026A1D
:1030A0005B0E0126030E022201C0E9FF02C0EAFF07
:1030B000EFCF03F0070E0016010E046E00500DE076
:1030C00006E6E86CD8900436010FFDE306D0D890F0
:1030D00004BED8800432010FFBE3041C006E0350D1
:1030E000001601C0E9FF02C0EAFF00C0EFFFE4CF15
:1030F00004F0E4CF03F0E4CF02F0E4CF01F0E4CF3A
:1031000000F0E4CFD9FF1200D9CFE5FFE1CFD9FF1E
:1031100000C0E5FF01C0E5FF02C0E5FF03C0E5FF19
:1031200004C0E5FF05C0E5FF020EDBCF00F0005054
:10313000010A22E1016A0150020DF450036EF3CF3F
:1031400002F0B30E0224046E040E0320056E04C0C8
:10315000E9FF05C0EAFFEE687F0EEF6ED30E022690
:10316000040E032202C0E9FF03C0EAFFEE6AEF6A21
:10317000012A100E015CDFE300C012F4E4CF05F079
:10318000E4CF04F0E4CF03F0E4CF02F0E4CF01F0A9
:10319000E4CF00F0E4CFD9FF1200D9CFE5FFE1CFB3
:1031A000D9FF00C0E5FF01C0E5FF02C0E5FF020E48
:1031B000D924006E000EDA20016E800E026E030E1E
:1031C0000026000E012202220250E56E0150E56E3B
:1031D0000050E56E040EDBCFE5FF030EDBCFE5FF0D
:1031E000020EDBCFE5FF03014E51E56E4D51E56E5A
:1031F0004C51E56E0EEC00F0006EF3CF01F0090EBD
:10320000E12601C0F3FF0050E4CF02F0E4CF01F06B
:10321000E4CF00F0E4CFD9FF1200D9CFE5FFE1CF32
:10322000D9FF00C0E5FF01C0E5FF02C0E5FF03C014
:10323000E5FF020EDBCF00F0030EDBCF01F0040E42
:10324000DBCF02F003015D510DE18DEC1DF0036E4B
:1032500003C0E5FF00C0E9FF01C0F3FF0250BBEC73
:103260001EF00FD003015D51010A0BE100C0E9FF20
:1032700001C0F3FF025043EC1EF0E56E11EC1CF0B0
:10328000E652E4CF03F0E4CF02F0E4CF01F0E4CF64
:1032900000F0E4CFD9FF120000C0E5FF01C0E5FF58
:1032A00072EC1BF0006E4C0A08E172EC1BF0300A65
:1032B00002E08B8229D08B9227D00050450A24E16E
:1032C000000EE56E280EE56E6C0EE56ECDEC18F086
:1032D000030EE126FEEC1EF0006E00C001F00006B9
:1032E00001500FE072EC1BF0E56AE56E000EE56E32
:1032F000280EE56E6E0EE56ECDEC18F0050EE1269B
:10330000ECD70A0E18EC1BF0E4CF01F0E4CF00F08C
:103310001200D9CFE5FFE1CFD9FF00C0E5FF01C022
:10332000E5FF02C0E5FF03C0E5FF020EDBCF00F0C2
:10333000030EDBCF01F059C302F05AC303F00301BF
:10334000593F01D05A2B0150E56E0250E56E5CECFE
:103350001CF0E652E65259C302F05AC303F00301CF
:10336000593F01D05A2B0050E56E0250E56E5CECDF
:103370001CF0E652E652E4CF03F0E4CF02F0E4CFD3
:1033800001F0E4CF00F0E4CFD9FF120000C0E5FF68
:1033900001C0E5FF02C0E5FF72EC1BF0006E72ECAD
:1033A0001BF0016ED00E00260A0E005C05E30050F3
:1033B000026EF90E0224006ED00E01260A0E015C88
:1033C00005E30150026EF90E0224016E080E005C46
:1033D00012E2100E015CD8B00ED00038F00B0124C0
:1033E000006E79EC1AF0016E015005E10050E56EB7
:1033F0002FEC1DF0E652E4CF02F0E4CF01F0E4CF71
:1034000000F01200D9CFE5FFE1CFD9FF00C0E5FF02
:1034100001C0E5FF02C0E5FF03C0E5FF04C0E5FF12
:10342000020EDBCF00F00CC401F0026A014A022A4E
:103430000DC403F0046A0150031803E1025004189C
:1034400001E001D00ED0000E04010C25016E026ACD
:10345000010E022201C0E9FF02C0EAFF00C0EFFF37
:103460000C2BE4CF04F0E4CF03F0E4CF02F0E4CF80
:1034700001F0E4CF00F0E4CFD9FF1200D9CFE5FF8F
:10348000E1CFD9FF00C0E5FF01C0E5FF02C0E5FFC5
:1034900003C0E5FF020EDBCF00F0016A6EC302F04D
:1034A000036A0250002603500122E56A800EE56E91
:1034B0000150E56E0050E56E39EC14F0006EF3CF6C
:1034C00001F0040EE126600E0026000E012200C06D
:1034D000E9FF01C0EAFFEFCF00F00050E4CF03F0B6
:1034E000E4CF02F0E4CF01F0E4CF00F0E4CFD9FF65
:1034F000120000C0E5FF01C0E5FF02C0E5FF010EBC
:10350000006E72EC1BF0016E01C002F0015023E06E
:103510000050E56E63EC1EF0016EE652015010E1C2
:103520000A0E005C0BE20A0E006EE56E63EC1EF004
:10353000016EE652015004E1E8680ED0E8680CD054
:103540000150021802E0E86807D0002A1B0E005C58
:10355000D8E3E86801D0E86AE4CF02F0E4CF01F0F4
:10356000E4CF00F0120000C0E5FF01C0E5FF02C09B
:10357000E5FF03C0E5FF59C300F05AC301F00301A2
:10358000593F01D05A2B0050E56E63EC1EF0E65215
:10359000036E026A59C300F05AC301F00301593F98
:1035A00001D05A2B0050E56E63EC1EF0E652016A22
:1035B00002120150031203C0F3FF0250E4CF03F0E4
:1035C000E4CF02F0E4CF01F0E4CF00F012000401F8
:1035D0000C6B04010D6B04010E6994808B90948038
:1035E000B06A3F0EAF6EB886AC8AAC84AC8CAC903F
:1035F000AB8CAB8E0301656B03015F6B0301626BE8
:103600000301636B0301646B000EE56A63EC1EF05B
:103610000401106FE6529F989F9A010E04010F6FEC
:1036200003014C6B4D6B2F0E4E6F71EC1EF01200B0
:1036300000C0E5FF01C0E5FF02C0E5FF006E390EE6
:1036400004011125016E026A040E022201C0E9FF85
:1036500002C0EAFF00C0EFFF220E115DD8A0112BBF
:1036600000500A0A0EE104011151E56E800EE56E6C
:10367000040EE56E390EE56E5BEC12F0040EE126E9
:10368000116BE4CF02F0E4CF01F0E4CF00F01200C0
:1036900004010A510401876F04010B510401886F72
:1036A000D650856FD750866F875104010A1905E1FE
:1036B0000401885104010B190CE004010A510401B2
:1036C000876F04010B510401886FD650856FD75066
:1036D000866F88C4E9FF87C4F4FF86C4F3FF040142
:1036E0008551120000C0E5FF01C0E5FF03016351F1
:1036F00003016C1905E0030163510301621902E142
:10370000E86A15D063C300F00301632B016A600E01
:103710000026000E012200C0E9FF01C0EAFFEFCF42
:1037200000F06351800A02E10301636B0050E4CFB3
:1037300001F0E4CF00F0120000C0E5FFF8EC1EF04D
:103740000401896B806B8983006A89B3002A005069
:10375000010BE844F46E8051FD0BF410806FD58EA0
:10376000D59CD59AD588D596D594D582D580F28A20
:10377000F184D08EF28EF28CBA80FF0EBB68BA84D0
:10378000E4CF00F01200D9CFE5FFE1CFD9FF00C0B0
:10379000E5FF01C0E5FF020EDBCF00F00050020D97
:1037A000F450016EF3CF00F0000E0026030E01224C
:1037B00000C0E9FF01C0EAFFEECF00F0EFCF01F05B
:1037C00001C0F3FF0050E4CF01F0E4CF00F0E4CFFC
:1037D000D9FF1200D9CFE5FFE1CFD9FF00C0E5FF47
:1037E00001C0E5FF020EDBCF00F00050020DF450E7
:1037F000016EF3CF00F0E00E0026000E012200C0A3
:10380000E9FF01C0EAFFEECF00F0EFCF01F001C009
:10381000F3FF0050E4CF01F0E4CF00F0E4CFD9FF94
:103820001200D9CFE5FFE1CFD9FF00C0E5FF01C00D
:10383000E5FF02C0E5FF020EDBCF00F059C301F047
:103840005AC302F00301593F01D05A2B0050E56ED4
:103850000150E56E5CEC1CF0E652E652E4CF02F05B
:10386000E4CF01F0E4CF00F0E4CFD9FF1200D8CFCD
:10387000E5FFE0CFE5FFE56EF3CFE5FFF4CFE5FF31
:10388000E9CFE5FFEACFE5FFFACFE5FFFBCFE5FFA4
:10389000D3EC09F0E4CFFBFFE4CFFAFFE4CFEAFF7B
:1038A000E4CFE9FFE4CFF4FFE4CFF3FFE450E4CF4B
:1038B000E0FFE4CFD8FF1000D9CFE5FFE1CFD9FF7B
:1038C00000C0E5FF020EDBCF00F0030EDBCFA8FF48
:1038D00000C0A9FFA69EA69CA684F29EF29C550E4F
:1038E000A76EAA0EA76EA682A6A202D00000FCD7E1
:1038F000A694F28EF28CE4CF00F0E4CFD9FF120050
:10390000E8AE0AD0F3CFEAFFEE50EECFF3FFEECFF2
:10391000F4FFEECFE9FF1200E8BC0BEF1FF0E9CF98
:10392000F6FFF3CFF7FFF86E0900F5500900F5CF69
:10393000F3FF0900F5CFF4FF0900F5CFE9FF12000E
:1039400000C0E5FF01C0E5FF04010C5104010D19A1
:1039500002E1E86A0FD0000E04010D25006E016A35
:10396000010E012200C0E9FF01C0EAFFEFCF00F025
:103970000D2B0050E4CF01F0E4CF00F01200F2CFA5
:10398000EAFFF29EA69EA69CA684E9CFA9FFF3CFEC
:10399000AAFFE4CFA8FFD0EC1EF0F4CFA8FFD0EC34
:1039A0001EF0F6CFA8FFD0EC1EF0F7CFA8FFD0ECAA
:1039B0001EF0A694EABEF28E1200F2CFF6FFF29E3F
:1039C000A69EA69CE9CFA9FFF3CFAAFFA680A85088
:1039D000A94AAA2AA680A8CFF3FFA94AAA2AA680A4
:1039E000A8CFF4FFA94AAA2AA680A8CFEAFFF6BE6C
:1039F000F28E1200E8AE08D0F3CFEAFFEE50EECF21
:103A0000F3FFEECFF4FF1200E8BC13EF1FF0E9CF95
:103A1000F6FFF3CFF7FFF86E0900F5500900F5CF78
:103A2000F3FF0900F5CFF4FF1200F2CFEAFFF29E98
:103A3000A69EA69CA684E9CFA9FFF3CFAAFFE4CF58
:103A4000A8FFD0EC1EF0F4CFA8FFD0EC1EF0F6CF0C
:103A5000A8FFD0EC1EF0A694EABEF28E1200D9CFD9
:103A6000E5FFE1CFD9FF00C0E5FF020EDBCF00F09C
:103A700000C010F40050E56E000EE56A5CEC1CF02E
:103A8000E652E652E4CF00F0E4CFD9FF1200F2CFC5
:103A9000F6FFF29EA69EA69CE9CFA9FFF3CFAAFF50
:103AA000A680A850A94AAA2AA680A8CFF3FFA94AAF
:103AB000AA2AA680A8CFF4FFF6BEF28E120000C09C
:103AC000E5FF01C0E5FF600E03016325006E016A9A
:103AD000000E012200C0E9FF01C0EAFFEFCF00F0B5
:103AE0000050E4CF01F0E4CF00F01200D9CFE5FFA1
:103AF000E1CFD9FF00C0E5FF020EDBCF00F0610E81
:103B0000005C05E37B0E005C02E2010E01D0E86A76
:103B1000E4CF00F0E4CFD9FF120000C0E5FF01C000
:103B2000E5FF59C300F05AC301F00301593F01D02A
:103B30005A2B0050E56E63EC1EF0E652E4CF01F024
:103B4000E4CF00F01200D9CFE5FFE1CFD9FF00C0EC
:103B5000E5FF020EDBCF00F000C00FF4005004E1DF
:103B600071EC1EF09D9A9D98E4CF00F0E4CFD9FF50
:103B70001200E8AE06D0F3CFEAFFEE50EECFF3FF2F
:103B80001200E8BC09EF1FF0E9CFF6FFF3CFF7FF13
:103B9000F86E0900F5500900F5CFF3FF1200F2CFDF
:103BA000EAFFF29EA69EA69CA684E9CFA9FFF3CFCA
:103BB000AAFFE4CFA8FFD0EC1EF0F4CFA8FFD0EC12
:103BC0001EF0A694EABEF28E1200780000000000FB
:103BD0006400F40100000000FF0000000002000289
:103BE0000000004200000000000000000000000093
:103BF000000012EEFFF022EEFFF0F86AA68EA69CFF
:103C0000E9680E0EEA6E0068000EED6A0050FDE1F4
:103C1000ECEC17F006EC00F0FFD7F2CFF6FFF29EC7
:103C2000A69EA69CE9CFA9FFF3CFAAFFA680A85025
:103C3000A94AAA2AA680A8CFF3FFF6BEF28E1200E8
:103C4000F2CFEAFFF29EA69EA69CA684E9CFA9FF2A
:103C5000F3CFAAFFE4CFA8FFD0EC1EF0A694EABEF3
:103C6000F28E1200E8AE0BD0F3CFEAFFE4CFEEFF06
:103C7000F4CFEEFFF6CFEEFFF7CFEEFF1200E8BC79
:103C80000DEF1FF01200E8AE04D0F3CFEAFFEE50C4
:103C90001200E8BC07EF1FF0E9CFF6FFF3CFF7FF04
:103CA000F86E0900F5501200E8AE09D0F3CFEAFF34
:103CB000E4CFEEFFF4CFEEFFF6CFEEFF1200E8BC4C
:103CC00015EF1FF01200D9CFE5FFE1CFD9FF020EAB
:103CD000DBCFA9FFA69CA69EA680A850E4CFD9FF63
:103CE0001200ACA2FED79480AE500000AE50AB984C
:103CF000AB88AB869D8A9D98120025642000F2CF88
:103D0000F6FFF29EA69EA69CE9CFA9FFF3CFAAFFDD
:103D1000A680A850F6BEF28E1200E8AE07D0F3CF10
:103D2000EAFFE4CFEEFFF4CFEEFF1200E8BC11EFA4
:103D30001FF01200700ED36E9B8CFF0E926893687A
:103D400094689668626AF19E120000C0E5FF79EC03
:103D50001AF0006E005001E1FF00E4CF00F0120005
:103D60000F01456B900E0F01446F030E0F01436F5F
:103D70000F01458F1200E8AE05D0F3CFEAFFE4CF84
:103D8000EEFF1200E8BC0FEF1FF01200D9CFE5FFE5
:103D9000E1CFD9FF020EDBCF15F4E4CFD9FF12003B
:103DA000550EA76EAA0EA76EA682A6B2FED7A94A86
:103DB000AA2A010E03015D6F1C0E0301596F5A6B95
:103DC000120003015D6B1C0E0301596F5A6B120048
:103DD0000100CA3B000000040000270000009CEC2A
:103DE0001BF0E7EC1AF01200ACA2FED7AD6E120089
:103DF0009AEC1EF0120003016351120003016D5191
:103E0000120004010F511200E8CF7FFF12007FEF74
:103E10001EF00DEF1EF0DDEF1CF0BFEF1CF020EFE9
:0E3E20001EF0CFEF1DF047EF1DF015EF1DF067
:020000040030CA
:010006008574
:00000001FF
