:020000040000FA
:10000000D2EF1DF0C96E12003BEF17F059EC12F061
:1000100090EC16F0FDD7120024EF1CF0D9CFE5FFCD
:10002000E1CFD9FF00C0E5FF01C0E5FF02C0E5FF59
:1000300003C0E5FF04C0E5FF05C0E5FF06C0E5FF1E
:1000400007C0E5FF08C0E5FF09C0E5FF0AC0E5FFFE
:100050000BC0E5FF0CC0E5FF0DC0E5FF0EC0E5FFDE
:100060000FC0E5FF10C0E5FF11C0E5FF12C0E5FFBE
:1000700013C0E5FF14C0E5FF15C0E5FF16C0E5FF9E
:1000800017C0E5FF18C0E5FF19C0E5FF1AC0E5FF7E
:100090001BC0E5FF1CC0E5FF1DC0E5FF1EC0E5FF5E
:1000A000020EDBCF00F0030EDBCF01F0040EDBCF3E
:1000B00002F0050EDBCF03F0060EDBCF04F0070ED7
:1000C000DBCF05F0080EDBCF06F0090EDBCF07F023
:1000D0000A0EDBCF08F0096A0A6A02C00DF00D5063
:1000E000800A0DE102500301506F01504F6F005024
:1000F0004E6F030E016E4E0E006E800E026E03C038
:10010000E9FF04C0F3FF05502EEC1EF00B6E0B5000
:10011000D8B4C4EF03F00B50250A02E0ABEF03F0B4
:100120000C6A0D6A0E6A0F6A106A0A0E116E126A64
:10013000136A146A200E156E1668176A2B0E186E55
:10014000032A02E3044A052A03C0E9FF04C0F3FFBF
:1001500005502EEC1EF0196E250A13E11950E56EBC
:100160000250E56E0150E56E0050E56EB7EC0FF001
:10017000040EE126094A0A2A032A02E3044A052A50
:10018000BED71950300A06E1300E156E032A02E37D
:10019000044A052A03C0E9FF04C0F3FF05502EEC12
:1001A0001EF02D0A06E1010E146E032A02E3044A32
:1001B000052A03C0E9FF04C0F3FF05502EEC1EF032
:1001C000200A08E1010E176E200E186E032A02E3C2
:1001D000044A052A03C0E9FF04C0F3FF05502EECD2
:1001E0001EF02B0A06E1010E176E032A02E3044AF1
:1001F000052A03C0E9FF04C0F3FF05502EEC1EF0F2
:10020000196E310E195C2BE33A0E195C28E203C01B
:1002100019F004C01AF005C01BF019C0E9FF1AC09C
:10022000F3FF1B502EEC1EF01C6E300E1C5C11E315
:100230003A0E1C5C0EE213500A0DF3CF1DF01C5059
:100240001D26D00E1D24136E192A02E31A4A1B2AFA
:10025000E4D719C003F01AC004F01BC005F003C0B6
:10026000E9FF04C0F3FF05502EEC1EF02E0A2DE12D
:10027000032A02E3044A052A166A03C019F004C0DF
:100280001AF005C01BF019C0E9FF1AC0F3FF1B509C
:100290002EEC1EF01C6E300E1C5C11E33A0E1C5C42
:1002A0000EE216500A0DF3CF1DF01C501D26D00E85
:1002B0001D24166E192A02E31A4A1B2AE4D719C014
:1002C00003F01AC004F01BC005F003C0E9FF04C02E
:1002D000F3FF05502EEC1EF0196E6C0A07E1010EBB
:1002E0000C6E032A02E3044A052A09D01950680A51
:1002F00006E1010E0E6E032A02E3044A052A03C03A
:10030000E9FF04C0F3FF05502EEC1EF0750A06E16C
:10031000010E106E032A02E3044A052A03C0E9FF16
:1003200004C0F3FF05502EEC1EF0196E730A05E1B0
:10033000010E0D6E200E156E3FD01950780A03E1A4
:10034000100E116E39D01950580A05E1100E116EB9
:10035000010E126E31D01950630A02E1116A2CD0DD
:1003600019506F0A03E1080E116E26D01950660A63
:1003700003E1010E0F6E20D01950640A1DE01950E0
:10038000690A1AE0105005E0FF0E03260422052238
:1003900013D01950E56E0250E56E0150E56E005025
:1003A000E56EB7EC0FF0040EE126094A0A2A032A8B
:1003B00002E3044A052AA3D60D5021E00650030F9C
:1003C0000D6E000E0720196E000E08201A6E0DC06B
:1003D00006F019C007F01AC008F0FD0E0D26FF0E3A
:1003E00019221A220DC0E9FF19C0F3FF1A50E7ECD9
:1003F0001CF00D6EF3CF19F0F4CF1AF0FDD00F50B2
:100400000DE0000E1A6E080E196E100E0D6E040E21
:100410000626000E072208221668EED016680C5039
:1004200023E00650040F0C6E000E07200F6E000E26
:1004300008201B6E0CC006F00FC007F01BC008F0B0
:10044000FC0E0C26FF0E0F221B220CC0E9FF0FC072
:10045000F3FF1B506DEC1CF00C6EF3CF0FF0F4CFDC
:100460001BF0E9CF1CF067D00E502FE00650020FB2
:100470000E6E000E07201D6E000E08201E6E0EC0B0
:1004800006F01DC007F01EC008F0FE0E0E26FF0E7F
:100490001D221E220EC0E9FF1DC0F3FF1E50A6EC58
:1004A0001DF00E6E0EC00CF00F6A1B6A1C6A115014
:1004B0000A0A03E11050D8B43ED00C500E6E0EC0A4
:1004C0000CF00F6A1B6A1C6A36D00650020F0E6EC3
:1004D000000E07201D6E000E08201E6E0EC006F0D6
:1004E0001DC007F01EC008F0FE0E0E26FF0E1D22D6
:1004F0001E220EC0E9FF1DC0F3FF1E50A6EC1DF02A
:100500000E6EF3CF1DF00EC00CF01DC00FF0E86AA8
:100510001DBEFF0E1B6E1C6E11500A0A02E1105028
:100520000AE00C500E6E0F501D6E0EC00CF01DC078
:100530000FF01B6A1C6A040E196EF40E0D6E800E0D
:100540001A6E1150D8B440D0105013E01150E56E1F
:10055000040EE56EF40EE56E1C50E56E1B50E56E64
:100560000F50E56E0C50E56EFEEC0BF0070EE12629
:1005700012D01150E56E040EE56EF40EE56E1C50BF
:10058000E56E1B50E56E0F50E56E0C50E56ED0EC3D
:1005900015F0070EE12617502FE00DC0E9FF19C036
:1005A000F3FF1A502EEC1EF02D0A26E0FF0E0D264A
:1005B00019221A2218C0E5FF0DC0E9FF19C0F3FF88
:1005C0001A50A6EC1EF018D00CC0E5FF0DC0E9FFD4
:1005D00019C0F3FF1A50A6EC1EF00D50010F0C6E5F
:1005E000000E19200E6E000E1A20E56A0CC0E9FFFD
:1005F0000EC0F3FFA6EC1EF00DC00CF019C00EF0FB
:100600001AC00FF013C010F0105010E00CC0E9FF3A
:100610000EC0F3FF0F502EEC1EF0176E175006E0C1
:100620000C2A02E30E4A0F2A1006EED710C013F070
:1006300014501EE109C00CF00AC00EF010C00FF0FB
:100640000F5010E01550E56E0250E56E0150E56E5A
:100650000050E56EB7EC0FF0040EE1260C4A0E2AAE
:100660000F06EED70CC009F00EC00AF00FC013F051
:1006700016C00CF00DC00DF019C00EF01AC00FF02E
:1006800009C010F00AC015F00DC0E9FF0EC0F3FF5D
:100690000F502EEC1EF0166E1650D8B43ED00CC083
:1006A00016F0176A161E171E1650171005E00CC01C
:1006B00016F00C06165031E00DC0E9FF0EC0F3FF36
:1006C0000F502EEC1EF0116E125010E01150E56E1E
:1006D00063EC1DF0166EE652165004E0DF0E1114A6
:1006E000166E02D011C016F016C011F01150E56E52
:1006F0000250E56E0150E56E0050E56EB7EC0FF06C
:10070000040EE1260D2A02E30E4A0F2A104A152A8A
:100710001350D8B4B9D71306B7D710C009F015C015
:100720000AF014502BE010C00CF015C00DF013C0EF
:100730000EF00E501FE0200EE56E0250E56E0150E7
:10074000E56E0050E56EB7EC0FF0040EE1260C4AA2
:100750000D2A0E06EED70B50E56E0250E56E0150E5
:10076000E56E0050E56EB7EC0FF0040EE126094A85
:100770000A2A04D00CC009F00DC00AF0032A02E3D3
:10078000044A052A7FEF00F00AC0F3FF0950E4CFC6
:100790001EF0E4CF1DF0E4CF1CF0E4CF1BF0E4CF5B
:1007A0001AF0E4CF19F0E4CF18F0E4CF17F0E4CF5B
:1007B00016F0E4CF15F0E4CF14F0E4CF13F0E4CF5B
:1007C00012F0E4CF11F0E4CF10F0E4CF0FF0E4CF5B
:1007D0000EF0E4CF0DF0E4CF0CF0E4CF0BF0E4CF5B
:1007E0000AF0E4CF09F0E4CF08F0E4CF07F0E4CF5B
:1007F00006F0E4CF05F0E4CF04F0E4CF03F0E4CF5B
:1008000002F0E4CF01F0E4CF00F0E4CFD9FF120012
:100810003C4E4F20464C4F41543E000000C0E5FF87
:1008200001C0E5FF02C0E5FF03C0E5FF04C0E5FF2E
:1008300005C0E5FF06C0E5FF07C0E5FF08C0E5FF0E
:1008400009C0E5FF0AC0E5FF0BC0E5FF0CC0E5FFEE
:10085000006A016A026A040E025CD8B0EBD1100E85
:10086000015CD8B0E7D1012A0401142B100E145DED
:10087000D8B0146B1439E8441F0B036E046A550E8C
:100880000326030E042203C0E9FF04C0EAFFEFCFF2
:1008900003F014C404F0070E0416010E056E000EDA
:1008A000066E045006E0E86CD89005360636010F57
:1008B000FCE3076A0350051607500616055006109C
:1008C000D880E866D890056A05360550D8A4C3D705
:1008D00004011451020DF450046EF3CF03F0E00E46
:1008E0000324056E000E0420066E05C0E9FF06C055
:1008F000EAFFEECF05F0EFCF06F011C407F007A036
:100900009DD0B30E0324076E040E0420086E07C0AA
:10091000E9FF08C0EAFFEECF07F0EFCF08F006507E
:10092000800FF36E0850800FF35C02E10750055C06
:1009300003E2056A066A60D0D30E0326040E042281
:1009400003C0E9FF04C0EAFFEECF03F0EFCF04F0ED
:100950000450800FF36E0650800FF35C02E10550E7
:10096000035C04E205683F0E066E46D00750055C46
:10097000096E085006580A6EE86A0ABEFF0E0B6E32
:10098000E56E0B50E56E0A50E56E0950E56EE56ABE
:10099000E56A400EE56E000EE56AF4EC0AF0096EB9
:1009A000F3CF0AF0F4CF0BF0E9CF0CF0080EE126FC
:1009B0000750035C076E08500458086EE86A08BECA
:1009C000FF0E036EE56E0350E56E0850E56E0750AE
:1009D000E56E0C50E56E0B50E56E0A50E56E095061
:1009E000E56E9AEC0EF0036EF3CF04F0080EE126EC
:1009F0000350056E0450066E04011051800FF36E13
:100A00000650800FF35C02E105500F5D03E3056AB9
:100A1000066A14D004010F51FF08036E3F0E1055F3
:100A2000046E0650800FF36E0450800FF35C02E1F9
:100A30000350055C03E305683F0E066E0401145184
:100A4000020DF450046EF3CF03F0930E0326040E50
:100A5000042203C0E9FF04C0EAFFEECF03F0EFCFAA
:100A600004F00350055C036E04500658046ED880F1
:100A700004AED89004E3041E036CD8B4042A022AFE
:100A800004011051800FF36E0450800FF35C02E1FB
:100A900003500F5DD8B0DFD604011451020DF4509D
:100AA000046EF3CF03F0930E0326040E042203C05A
:100AB000E9FF04C0EAFF05C0EEFF06C0EFFF11C466
:100AC00003F003A459D01451020DF450046EF3CF77
:100AD00003F0000E0324076E030E0420086E07C007
:100AE000E9FF08C0EAFFEECF09F0EFCF0AF00950A6
:100AF0000A10D8B441D05C0E0326040E042203C0B1
:100B0000E9FF04C0EAFFEECF03F0EFCF04F003509B
:100B1000055C036E04500658046E03101CE004507C
:100B2000800F800F02E1010E035C0B6A0B360A5046
:100B3000800F800F02E1010E095C096A09360B5033
:100B4000091809E107C0E9FF08C0EAFF03C0EEFF8A
:100B500004C0EFFF80D604011451020DF450046E5E
:100B6000F3CF03F0000E0326030E042203C0E9FFB7
:100B700004C0EAFFEE6AEF6A11C403F003A246D094
:100B800000500EE100C003F0002A046A150E03268F
:100B9000040E042203C0E9FF04C0EAFF420EEF6E18
:100BA00000C003F00028046E076A150E0326040E29
:100BB000072204011451086E640E082603C0E9FFE1
:100BC00007C0EAFF08C0EFFF04C003F0042A076A69
:100BD000150E0326040E07220650086E03C0E9FF17
:100BE00007C0EAFF08C0EFFF04C003F00428006E4E
:100BF000046A150E0326040E04220550076E03C076
:100C0000E9FF04C0EAFF07C0EFFF25D614C403F0D4
:100C10000650E56E0550E56EE56A0350E56E000E80
:100C2000E56E230EE56EA40EE56EBAEC18F0070E25
:100C3000E12611D602C001F000501EE011C402F0FE
:100C400002A21AD000C002F0002A036A150E022682
:100C5000040E032202C0E9FF03C0EAFF0A0EEF6E92
:100C60000050E56E800EE56E040EE56E150EE56E25
:100C7000D8EC11F0040EE1260150E4CF0CF0E4CFE3
:100C80000BF0E4CF0AF0E4CF09F0E4CF08F0E4CFB2
:100C900007F0E4CF06F0E4CF05F0E4CF04F0E4CFB2
:100CA00003F0E4CF02F0E4CF01F0E4CF00F0120053
:100CB00000C0E5FF01C0E5FF02C0E5FF03C0E5FF9E
:100CC00004C0E5FF05C0E5FF06C0E5FF07C0E5FF7E
:100CD000C2A204D00401125181EF08F004011351A3
:100CE000D8B426D104011251020DF450016EF3CF95
:100CF00000F0E00E0026000E012200C0E9FF01C056
:100D0000EAFFEECF00F0EFCF01F0230E1225026EC6
:100D1000036A040E032202C0E9FF03C0EAFFEFCF1B
:100D200002F00250FF0A01E164D002380F0B036E9B
:100D3000920E0324046E056A0F0E0522066A920EB7
:100D400003260F0E062203C0E9FF06C0EAFFEFCF1D
:100D500003F00250066E070E0616010E076E0650CF
:100D60000DE006E6E86CD8900736010FFDE306D0EB
:100D7000D89007BED8800732010FFBE3071C066E30
:100D80000350061604C0E9FF05C0EAFF06C0EFFFE6
:100D900002380F0B036E890E0324046E056A0F0ED2
:100DA0000522066A890E03260F0E062203C0E9FFFC
:100DB00006C0EAFFEFCF03F0070E0216010E066E23
:100DC00002500DE006E6E86CD8900636010FFDE310
:100DD00006D0D89006BED8800632010FFBE3061C71
:100DE000026E0350021604C0E9FF05C0EAFF02C00C
:100DF000EFFF04011251020DF450036EF3CF02F025
:100E0000E00E0226000E032201340130056E003090
:100E1000046E005C046E05500158056EC3CF00F0EF
:100E2000016A0050042601500522C4CF00F0016A77
:100E30000050076E066A065004260750052202C0BD
:100E4000E9FF03C0EAFF04C0EEFF05C0EFFF0401A5
:100E50000E51010A01E06AD004011251020DF45052
:100E6000016EF3CF00F0E00E0024026E000E0120B0
:100E7000036E02C0E9FF03C0EAFFEECF02F0EFCF3E
:100E800003F0B30E0026040E012200C0E9FF01C0EA
:100E9000EAFFEECF04F0EFCF05F09C0E0426D8A0B9
:100EA00005060350800FF36E0550800FF35C02E1DE
:100EB0000450025C0EE20250640F046E000E032028
:100EC000056E00C0E9FF01C0EAFF04C0EEFF05C0E7
:100ED000EFFF04011251020DF450016EF3CF00F048
:100EE000D30E0026040E012200C0E9FF01C0EAFF74
:100EF000EECF04F0EFCF05F0640E0426D8B0052A3B
:100F00000550800FF36E0350800FF35C02E1025036
:100F1000045C0CE29C0E0226D8A0030600C0E9FF88
:100F200001C0EAFF02C0EEFF03C0EFFF0401136B34
:100F30000401122B100E125DD8B0126B1239E84466
:100F40001F0B006E016A550E0026030E012200C021
:100F5000E9FF01C0EAFFEFCF00F012C401F0070E75
:100F60000116010E026E000E036E015006E0E86CE1
:100F7000D89002360336010FFCE3046A00500216D3
:100F80000450031602500310D880E866D890026A15
:100F900002360250D8A4B3D0230E04011225006EED
:100FA000016A0F0E012200C0E9FF01C0EAFFEFCF86
:100FB00000F00044E844FC0B016E0128C26E230ED1
:100FC0001225006E016A040E012200C0E9FF01C073
:100FD000EAFFEFCF00F00050FF0A01E18CD00038AB
:100FE0000F0B016E920E0124026E036A0F0E032294
:100FF000046A920E01260F0E042201C0E9FF04C00C
:10100000EAFFEFCF01F00050046E070E0416010E48
:10101000056E04500DE006E6E86CD8900536010F29
:10102000FDE306D0D89005BED8800532010FFBE362
:101030000150051202C0E9FF03C0EAFF05C0EFFF3F
:10104000380E016E0F0E026E00380F0B036E046A2D
:101050000350012604500222380E056E0F0E066E54
:10106000055003260650042203C0E9FF04C0EAFF2E
:10107000EFCF03F0070E0016010E046E00500DE0D6
:1010800006E6E86CD8900436010FFDE306D0D89050
:1010900004BED8800432010FFBE30350041201C0E8
:1010A000E9FF02C0EAFF04C0EFFF0F014583000023
:1010B000000045930F01449308C0E5FFF2CF08F00C
:1010C000F29E4481000000000000000000000000CB
:1010D0000000000000000000000000000000000010
:1010E000000000000000000000000000449108BE65
:1010F000F28EE4CF08F0C282010E0401136F0401E6
:101100001251E4CF07F0E4CF06F0E4CF05F0E4CFCE
:1011100004F0E4CF03F0E4CF02F0E4CF01F0E4CF39
:1011200000F01200800EE56E040EE56ED30EE56E43
:101130008BEC17F0030EE126800EE56E040EE56ED3
:10114000B30EE56E8BEC17F0030EE126800EE56E14
:10115000040EE56ED50EE56E8BEC17F0030EE1265E
:10116000800EE56E040EE56EB50EE56E8BEC17F0A5
:10117000030EE126800EE56E040EE56ED70EE56ED9
:101180008BEC17F0030EE126800EE56E040EE56E83
:10119000B70EE56E8BEC17F0030EE126800EE56EC0
:1011A000040EE56ED90EE56E8BEC17F0030EE1260A
:1011B000800EE56E040EE56EB90EE56E8BEC17F051
:1011C000030EE126800EE56E040EE56EDB0EE56E85
:1011D0008BEC17F0030EE126800EE56E040EE56E33
:1011E000BB0EE56E8BEC17F0030EE126800EE56E6C
:1011F000040EE56EDD0EE56E8BEC17F0030EE126B6
:10120000800EE56E040EE56EBD0EE56E8BEC17F0FC
:10121000030EE126800EE56E040EE56EDF0EE56E30
:101220008BEC17F0030EE126800EE56E040EE56EE2
:10123000BF0EE56E8BEC17F0030EE126800EE56E17
:10124000040EE56EE10EE56E8BEC17F0030EE12661
:10125000800EE56E040EE56EC10EE56E8BEC17F0A8
:10126000030EE126800EE56E040EE56EE30EE56EDC
:101270008BEC17F0030EE126800EE56E040EE56E92
:10128000C30EE56E8BEC17F0030EE126800EE56EC3
:10129000040EE56EE50EE56E8BEC17F0030EE1260D
:1012A000800EE56E040EE56EC50EE56E8BEC17F054
:1012B000030EE126800EE56E040EE56EE70EE56E88
:1012C0008BEC17F0030EE126800EE56E040EE56E42
:1012D000C70EE56E8BEC17F0030EE126800EE56E6F
:1012E000040EE56EE90EE56E8BEC17F0030EE126B9
:1012F000800EE56E040EE56EC90EE56E8BEC17F000
:10130000030EE126800EE56E040EE56EEB0EE56E33
:101310008BEC17F0030EE126800EE56E040EE56EF1
:10132000CB0EE56E8BEC17F0030EE126800EE56E1A
:10133000040EE56EED0EE56E8BEC17F0030EE12664
:10134000800EE56E040EE56ECD0EE56E8BEC17F0AB
:10135000030EE126800EE56E040EE56EEF0EE56EDF
:101360008BEC17F0030EE126800EE56E040EE56EA1
:10137000CF0EE56E8BEC17F0030EE126800EE56EC6
:10138000040EE56EF10EE56E8BEC17F0030EE12610
:10139000800EE56E040EE56ED10EE56E8BEC17F057
:1013A000030EE126120000C0E5FF01C0E5FF02C008
:1013B000E5FF03C0E5FF04010B51D8B40CD19DA893
:1013C0001DD09EA81BD00301605103015E1905E1E9
:1013D0005CEC1EF003015E6BFED0000E0301602585
:1013E000006E016A0F0E012200C0E9FF01C0EAFF92
:1013F000EFCF5AF3602B5AC3ADFFEDD09DAAEBD0CF
:101400009EAAE9D0ABA205D003015F815CEC1EF07F
:10141000E2D0ABA405D003015F835CEC1EF0DBD00F
:10142000ABA048D0AECF5AF30CC400F0016A008ED6
:101430005AC302F0036A0250001803E10350011876
:1014400001E004D003015F89AB96C5D003015A5176
:1014500004E05A5104010C1929E103015F99AB968C
:1014600003015A5103E003015F9702D003015F8734
:101470005AC363F35CC364F303015C51006E000460
:101480000301656F600E03016425006E016A000EA2
:10149000012200C0E9FF01C0EAFF5AC3EFFF642B3D
:1014A0006451800A02E10301646B95D003015F99E6
:1014B000AB8691D0AECF5AF303015FA921D00CC403
:1014C00000F0016A008E5AC302F0036A025000184D
:1014D00003E10350011801E011D09D9AAB9894905C
:1014E00003015E5104E1AD6A5CEC1EF007D000CF51
:1014F000ADFF010E0301606F9D886DD0AB866BD090
:1015000003015A5103016327030164510301651963
:101510001BE1030163510CE164C35CF303015FB79A
:1015200012D09D9AAB989490AD6A5CEC1EF00BD0F3
:1015300003015F855FB707D09D9AAB989490010E29
:10154000AD6E5CEC1EF047D00301645103015D19E0
:1015500008E103015D5103015C1903E05CEC1EF03E
:101560003AD05CC300F0016A004A012AE56A800EA5
:10157000E56E0150E56E0050E56EBDEC13F0006EB7
:10158000040EE126005003015B6F030164190FE1B3
:101590005AC300F01F0E00140301656F006E020EA7
:1015A0000024656F03015C5103016527659F64C3D7
:1015B00000F00301642B016A600E0026000E012278
:1015C00000C0E9FF01C0EAFF5AC3EFFF6451800A7F
:1015D00002E10301646BE4CF03F0E4CF02F0E4CF57
:1015E00001F0E4CF00F01200D9CFE5FFE1CFD9FF41
:1015F00000C0E5FF01C0E5FF02C0E5FF03C0E5FF55
:1016000004C0E5FF05C0E5FF06C0E5FF07C0E5FF34
:10161000020EDBCF00F0030EDBCF01F0040EDBCFB8
:1016200002F0050EDBCF03F0060EDBCF04F0070E51
:10163000DBCF05F0080EDBCF06F0090EDBCF07F09D
:1016400000500401856F0150866F0250876F035070
:10165000886F045004018A6F05508B6F06508C6FA1
:1016600007508D6F0401855104018C03F4CF01F004
:10167000F3CF00F000500401906F0150916F04010E
:10168000855104018A03F4CF01F0F3CF00F000503C
:1016900004018E6F01508F6F0401885104018A0389
:1016A000F3CF00F00401915100260050916F040126
:1016B000875104018B03F3CF01F001500026005045
:1016C0000401916F0401875104018A03F4CF01F0F2
:1016D000F3CF00F0040190510026915101220050F7
:1016E000906F0150916F0401865104018B03F4CF78
:1016F00003F0F3CF02F00250002603500122005005
:101700000401906F0150916F0401865104018C0314
:10171000F3CF00F000500301436F04018651040130
:101720008A03F4CF01F0F3CF00F000500301416FC2
:101730000150426F0401855104018D03F3CF00F085
:1017400000500301476F0401855104018B03F4CF5E
:1017500001F0F3CF00F000500301456F0150466FD8
:101760000301406B0301446B0301405104018E25CA
:10177000006E0301415104018F21016E03014251AA
:1017800004019021026E0301435104019121036E73
:1017900000508E6F01508F6F0250906F0350916F09
:1017A0000301445104018E25006E030145510401DB
:1017B0008F21016E0301465104019021026E030145
:1017C000475104019121036E03C0E9FF02C0F4FFF9
:1017D00001C0F3FF0050E4CF07F0E4CF06F0E4CF00
:1017E00005F0E4CF04F0E4CF03F0E4CF02F0E4CF5F
:1017F00001F0E4CF00F0E4CFD9FF1200D9CFE5FF2C
:10180000E1CFD9FF00C0E5FF01C0E5FF02C0E5FF61
:1018100003C0E5FF04C0E5FF05C0E5FF06C0E5FF26
:1018200007C0E5FF08C0E5FF09C0E5FF0AC0E5FF06
:101830000BC0E5FF0CC0E5FF0DC0E5FF0EC0E5FFE6
:101840000FC0E5FF020EDBCF00F0030EDBCF01F08F
:10185000040EDBCF02F0050EDBCF03F0060EDBCF6C
:1018600004F0070EDBCF05F0080EDBCF06F0200EEC
:10187000076E086A06C009F00A6A0B6A0C6AE56A14
:10188000E56AE56A0950E56E0350E56E0250E56EC3
:101890000150E56E0050E56EDAEC0CF00D6E080EAE
:1018A000E126300E0D263A0E0D5C05E30D500E6E4E
:1018B000270E0E240D6EFF0E07260822200E072489
:1018C0000E6E030E08200F6E0EC0E9FF0FC0EAFF78
:1018D0000DC0EFFF0C50E56E0B50E56E0A50E56E43
:1018E0000950E56E0350E56E0250E56E0150E56E5D
:1018F0000050E56E9AEC0EF0006EF3CF01F0F4CFDD
:1019000002F0E9CF03F0080EE126005001100210AA
:101910000310D8A4AFD707C000F008C001F004C07E
:1019200002F005C003F000C004F001C005F0004A59
:10193000012A200E0426030E052204C0E9FF05C07B
:10194000EAFFEFCF04F002C0E9FF03C0EAFF04C0E2
:10195000EFFF024A032A000E015C02E1200E005C48
:10196000E2E302C0E9FF03C0EAFF000EEF6AE4CF42
:101970000FF0E4CF0EF0E4CF0DF0E4CF0CF0E4CFA5
:101980000BF0E4CF0AF0E4CF09F0E4CF08F0E4CFA5
:1019900007F0E4CF06F0E4CF05F0E4CF04F0E4CFA5
:1019A00003F0E4CF02F0E4CF01F0E4CF00F0E4CFA5
:1019B000D9FF1200D9CFE5FFE1CFD9FF00C0E5FF85
:1019C00001C0E5FF02C0E5FF03C0E5FF04C0E5FF7D
:1019D00005C0E5FF06C0E5FF07C0E5FF08C0E5FF5D
:1019E00009C0E5FF0AC0E5FF020EDBCF00F0030EE1
:1019F000DBCF01F0040EDBCF02F0050EDBCF03F0EE
:101A0000060EDBCF04F0070EDBCF05F0080EDBCFB0
:101A100006F0090EDBCF07F0086A04500510061027
:101A2000071005E1E968F468F368E86847D0096AD7
:101A30000750800BE8440A6E0A501BE1045004264C
:101A40000536063607360750035C08E10650025C8F
:101A500005E10550015C02E10450005C06E2D8900B
:101A6000073206320532043204D0092A09C008F0D0
:101A7000DFD70750035C08E10650025C05E1055022
:101A8000015C02E10450005C08E30450005E055074
:101A9000015A0650025A0750035AD89007320632AC
:101AA0000532043208C009F008060950E2E103C01B
:101AB000E9FF02C0F4FF01C0F3FF0050E4CF0AF0D9
:101AC000E4CF09F0E4CF08F0E4CF07F0E4CF06F06C
:101AD000E4CF05F0E4CF04F0E4CF03F0E4CF02F06C
:101AE000E4CF01F0E4CF00F0E4CFD9FF1200D9CF6A
:101AF000E5FFE1CFD9FF00C0E5FF01C0E5FF02C06F
:101B0000E5FF03C0E5FF04C0E5FF05C0E5FF06C033
:101B1000E5FF07C0E5FF08C0E5FF09C0E5FF0AC013
:101B2000E5FF020EDBCF00F0030EDBCF01F0040E69
:101B3000DBCF02F0050EDBCF03F0060EDBCF04F0A7
:101B4000070EDBCF05F00038E8441F0B066E076A6E
:101B5000550E0626030E072206C0E9FF07C0EAFF5E
:101B6000EFCF08F00050096E070E0916010E0A6E3D
:101B700009500DE006E6E86CD8900A36010FFDE347
:101B800006D0D8900ABED8800A32010FFBE3085075
:101B90000A1206C0E9FF07C0EAFF0AC0EFFF230EE2
:101BA0000024066E076A0F0E072206C0E9FF07C071
:101BB000EAFF01C0EFFF016A230E0026040E012296
:101BC000800E025E070E02160238F00B036E070E3F
:101BD00005160550032600C0E9FF01C0EAFF03C057
:101BE000EFFFE4CF0AF0E4CF09F0E4CF08F0E4CF50
:101BF00007F0E4CF06F0E4CF05F0E4CF04F0E4CF43
:101C000003F0E4CF02F0E4CF01F0E4CF00F0E4CF42
:101C1000D9FF120000C0E5FF01C0E5FF02C0E5FFEB
:101C200003C0E5FF03015D5103015C1901E166D0CA
:101C30005DC300F0002A009E016A600E0026000EBF
:101C4000012200C0E9FF01C0EAFFEFCF67F31F0EDA
:101C5000030167175DC366F3675103016627665189
:101C6000006E020E0024666F669F5FEC1BF0006E34
:101C7000005003E1006A002A01D0006A5FEC1BF00B
:101C80000301676F67C301F0800E011667C302F09E
:101C90001F0E021602C003F002C067F3035003E1F7
:101CA0005CC35DF33ED000501EE0015025E05FECC8
:101CB0001BF0006E03016751026E0204676F005053
:101CC000420A1AE000504E0A03E1B3EC19F014D0B6
:101CD0000050460A03E190EC1EF00ED00050490A75
:101CE0000BE1FF0009D05DC368F3015003E039EC5C
:101CF00019F002D003EC15F066C35DF3040108513E
:101D00000401091906E003015E5103E143EC10F000
:101D100008D094B006D003015E5103E1ACB25CEC94
:101D20001EF0E4CF03F0E4CF02F0E4CF01F0E4CF03
:101D300000F01200D9CFE5FFE1CFD9FF00C0E5FFE9
:101D400001C0E5FF02C0E5FF03C0E5FF04C0E5FFF9
:101D500005C0E5FF06C0E5FF07C0E5FF08C0E5FFD9
:101D600009C0E5FF0AC0E5FF0BC0E5FF0CC0E5FFB9
:101D70000DC0E5FF020EDBCF00F0030EDBCF01F05C
:101D8000040EDBCF02F0050EDBCF03F0060EDBCF37
:101D900004F0070EDBCF05F0080EDBCF06F0090ECE
:101DA000DBCF07F0086A096A0A6A0B6A200E0C6E1C
:101DB0000350800BE8440D6E0050002601360236B9
:101DC00003360850082609360A360B360D50D8A4BB
:101DD000088007500B5C08E106500A5C05E10550DD
:101DE000095C02E10450085C09E30450085E0550F8
:101DF000095A06500A5A07500B5A00800C040D6EFF
:101E00000DC00CF00D50D4E103C0E9FF02C0F4FF97
:101E100001C0F3FF0050E4CF0DF0E4CF0CF0E4CFAD
:101E20000BF0E4CF0AF0E4CF09F0E4CF08F0E4CF00
:101E300007F0E4CF06F0E4CF05F0E4CF04F0E4CF00
:101E400003F0E4CF02F0E4CF01F0E4CF00F0E4CF00
:101E5000D9FF120000C0E5FF01C0E5FF03C0E5FFA8
:101E600004C0E5FF05C0E5FF06C0E5FF07C0E5FFCC
:101E700008C0E5FF09C0E5FF0AC0E5FF0BC0E5FFAC
:101E800053C300F054C301F00301533F01D0542B5E
:101E90000050E56E4EEC1EF0E652076E046A056ACD
:101EA000066A53C300F054C301F00301533F01D04D
:101EB000542B0050E56E4EEC1EF0E6520B6A0A6E93
:101EC000086A0850041205120A5006120B50071235
:101ED00053C300F054C301F00301533F01D0542B0E
:101EE0000050E56E4EEC1EF0E652036E006A03C031
:101EF00001F0E86A03BEFF0E086E096E005004127E
:101F000001500512085006120950071253C300F081
:101F100054C301F00301533F01D0542B0050E56E30
:101F20004EEC1EF0E652016A041201500512061230
:101F3000071207C0E9FF06C0F4FF05C0F3FF045015
:101F4000E4CF0BF0E4CF0AF0E4CF09F0E4CF08F0DF
:101F5000E4CF07F0E4CF06F0E4CF05F0E4CF04F0DF
:101F6000E4CF03F0E4CF01F0E4CF00F01200D9CFCA
:101F7000E5FFE1CFD9FF00C0E5FF01C0E5FF02C0EA
:101F8000E5FF03C0E5FF04C0E5FF05C0E5FF06C0AF
:101F9000E5FF07C0E5FF020EDBCF00F0030EDBCF4D
:101FA00001F0040EDBCF02F0050EDBCF03F002C020
:101FB00006F00650046E800A33E100C0E9FF01C05C
:101FC000F3FF0250E7EC1CF0056EF3CF06F0F4CF00
:101FD00007F003C0E5FF05C0E9FF06C0F3FF0750A7
:101FE000A6EC1EF000C0E9FF01C0F3FF0250E7ECD1
:101FF0001CF0056EF3CF06F0F4CF07F0052A02E3DC
:10200000064A072A05C0E5FF06C0F4FF07C0F6FF31
:1020100000C0E9FF01C0F3FF02503FEC1EF020D0EA
:1020200004C000F000AA1CD0007A0050046E04E145
:102030000350DFEC1EF014D00450010A04E10350F9
:1020400002EC00F00DD004500F0A04E1035005EC3F
:102050001BF006D004500E0A03E10350EFEC1EF013
:10206000E4CF07F0E4CF06F0E4CF05F0E4CF04F0CE
:10207000E4CF03F0E4CF02F0E4CF01F0E4CF00F0CE
:10208000E4CFD9FF120000C0E5FF01C0E5FF02C0A8
:10209000E5FF03C0E5FFACA277D08DEC1CF0006E2D
:1020A000005005E10401096B0401086B6DD009C4FF
:1020B00001F0005001268DEC1CF0026E000602506B
:1020C000230A1FE1010E005CD8A05CD08DEC1CF04F
:1020D000036E690A03E1D4EC1AF054D00350720A7B
:1020E00003E15CEC1EF04ED00350730A01E04AD0CD
:1020F0009480AB869D8A9D98AE50AE50AB98AB88CD
:1021000041D00250430A05E00250420A01E03AD0B1
:1021100001D0008E0301606B00C061F300500F011D
:10212000006F0301602B04010951011814E08DECCC
:102130001CF0006E03016127000E03016025026E92
:10214000036A0F0E032202C0E9FF03C0EAFF00C0CA
:10215000EFFF602BE8D7000E03016025006E026AD6
:102160000F0E02220301611D036E032A00C0E9FF66
:1021700002C0EAFF03C0EFFF0301602B60C35EF300
:102180000301586B01C009F4E4CF03F0E4CF02F07F
:10219000E4CF01F0E4CF00F01200D9CFE5FFE1CFAA
:1021A000D9FF00C0E5FF01C0E5FF02C0E5FF03C0A5
:1021B000E5FF04C0E5FF05C0E5FF06C0E5FF020E30
:1021C000DBCF00F0030EDBCF01F0040EDBCF02F01B
:1021D000050EDBCF03F003C004F0056A0350D8B44A
:1021E00053D000C0E9FF01C0F3FF02502EEC1EF0F7
:1021F000066E430A03E1010E056E038E0406002AF3
:1022000002E3014A022A9D9AAB9894909D989EA859
:10221000FED7AC80AD6A00009EA8FED7AC9003C08C
:10222000ADFF00009EA8FED7055005E0420EAD6E42
:102230000324056E05D0620EAD6E620E0324056E9A
:1022400004C003F0035015E000009EA8FED700C0B4
:10225000E9FF01C0F3FF02502EEC1EF0046E04C033
:10226000ADFF045005260306002A02E3014A022AB4
:10227000E9D700009EA8FED7051CAD6EAD2A000070
:102280009EA8FED75CEC1EF0E4CF06F0E4CF05F08C
:10229000E4CF04F0E4CF03F0E4CF02F0E4CF01F0A8
:1022A000E4CF00F0E4CFD9FF120000C0E5FF01C089
:1022B000E5FF02C0E5FF03C0E5FF04C0E5FF006ADB
:1022C000550E0024016E026A030E022201C0E9FFCE
:1022D00002C0EAFFEF6A002A020E005CF1E3006A26
:1022E0000050020DF450026EF3CF01F0E00E012415
:1022F000036E000E0220046E03C0E9FF04C0EAFF73
:10230000EE6AEF6A5C0E0124036E040E0220046E76
:1023100003C0E9FF04C0EAFFEE6AEF6A930E0124EE
:10232000036E040E0220046E03C0E9FF04C0EAFF3E
:10233000EE6AEF6AB30E0124036E040E0220046EEF
:1023400003C0E9FF04C0EAFFEE6AEF6AD30E01267C
:10235000040E022201C0E9FF02C0EAFFEE687F0E10
:10236000EF6E230E0024016E026A040E022201C0E9
:10237000E9FF02C0EAFFEF68002A100E005CD8A057
:10238000AFD7AF0EC06EC16A010EC26EC282E4CF7B
:1023900004F0E4CF03F0E4CF02F0E4CF01F0E4CFA7
:1023A00000F012004320412025642025640A00002B
:1023B000D9CFE5FFE1CFD9FF00C0E5FF01C0E5FFC0
:1023C00002C0E5FF03C0E5FF04C0E5FF05C0E5FF6F
:1023D00006C0E5FF07C0E5FF020EDBCF00F0030EED
:1023E000DBCF01F0040EDBCF02F0050EDBCF03F0F4
:1023F00009C40AF40401085104010A5F0A51046E79
:1024000004040A6F03C004F0056A030E0426D8B062
:10241000052A0AC406F0076A0750800FF36E0550BC
:10242000800FF35C02E10450065C02E2E8682ED003
:10243000020E035C02E2E86A29D003060350E56E4F
:10244000EFEC19F0E652046A0350045C14E2045005
:102450000024056EE86A0120066EE86A022005C0C5
:10246000E9FF06C0F3FF2EEC1EF0042AE56EEFEC48
:1024700019F0E652E9D709C40AF40401085104012D
:102480000A5F0A51006E00040A6FE86AE4CF07F0A1
:10249000E4CF06F0E4CF05F0E4CF04F0E4CF03F09E
:1024A000E4CF02F0E4CF01F0E4CF00F0E4CFD9FFB5
:1024B000120000C0E5FF01C0E5FF02C0E5FF03C058
:1024C000E5FF05C0E5FFDAEC1EF094928B9235EC47
:1024D0001BF0F3CF01F0F4CF02F0E9CF03F0880F47
:1024E0000401336F130E0120346F000E0220356F8C
:1024F000000E0320366F55EC11F09280800E006EB6
:102500000F0E016E0F0E036E380E002603500122CF
:10251000800E026E0F0E036E800E005E0350015A95
:102520000F0E056E380E0226055003220F0E056EA3
:10253000800E025E0550035A02C0E9FF03C0EAFFA5
:10254000EFCF02F0028000C0E9FF01C0EAFF02C045
:10255000EFFF000EE56AE56A97EC14F0E652E652EA
:10256000E4CF05F0E4CF03F0E4CF02F0E4CF01F0D4
:10257000E4CF00F0120043542025640A0000430019
:1025800025630000434327657461697420310A00A4
:10259000434C612063276573742032206176656344
:1025A0003A20256C640A0000D9CFE5FFE1CFD9FFBE
:1025B00000C0E5FF01C0E5FF02C0E5FF03C0E5FF85
:1025C00004C0E5FF05C0E5FF020EDBCF00F0030EFF
:1025D000DBCF01F0040EDBCF02F00050020DF4500F
:1025E000036EF3CF00F05C0E0024046E040E032093
:1025F000056E04C0E9FF05C0EAFF01C0EEFF02C09E
:10260000EFFF930E0024046E040E0320056E04C039
:10261000E9FF05C0EAFFEECF04F0EFCF05F001506F
:10262000045C016E02500558026E000E0026030E77
:10263000032200C0E9FF03C0EAFF01C0EEFF02C0B1
:10264000EFFFD88002AED89004E3021E016CD8B42C
:10265000022A0250800F800F02E1030E015C02E2A9
:10266000016A026A0150021007E100C0E9FF03C0DD
:10267000EAFF000EEE6AEF6AE4CF05F0E4CF04F063
:10268000E4CF03F0E4CF02F0E4CF01F0E4CF00F0B8
:10269000E4CFD9FF120000C0E5FF01C0E5FF02C092
:1026A000E5FF03C0E5FF000EE56AD7EC1BF0006E06
:1026B000F3CF01F0E652000EE56AD7EC1BF0026E94
:1026C000F3CF03F0E65203500401015D02E1025032
:1026D000005DD870026A0236040102510FE1025017
:1026E000D8B442D000C051F301C052F3010E026FC2
:1026F0000401036F0401046B056B36D00401035120
:1027000024E001500301525D02E10050515D04E2FA
:1027100000C051F301C052F3000E0401055D02E157
:10272000650E045D21E303015251E56E5151E56EE2
:10273000000EE56E250EE56E760EE56EBAEC18F02D
:10274000050EE1260401036B0FD0025004E00401E2
:10275000046B056B09D0010E0401055D02E1F50E65
:10276000045D02E30401026BE4CF03F0E4CF02F066
:10277000E4CF01F0E4CF00F01200D9CFE5FFE1CFC4
:10278000D9FF00C0E5FF01C0E5FF02C0E5FF03C0BF
:10279000E5FF04C0E5FF05C0E5FF06C0E5FF020E4A
:1027A000DBCF00F0030EDBCF01F0040EDBCF02F035
:1027B000050EDBCF03F0D88001AED890046A043652
:1027C000045007E0011C066E001C056E054A062A2F
:1027D00004D000C005F001C006F0D88003AED89048
:1027E00007E3031C016E021C006E004A012A04D09C
:1027F00002C000F003C001F00150E56E0050E56E2C
:102800000650E56E0550E56E33EC16F0006EF3CF22
:1028100001F0040EE12604500AE0011C036E001CC6
:10282000026E024A032A03C0F3FF025003D001C024
:10283000F3FF0050E4CF06F0E4CF05F0E4CF04F05E
:10284000E4CF03F0E4CF02F0E4CF01F0E4CF00F0F6
:10285000E4CFD9FF1200D9CFE5FFE1CFD9FF00C007
:10286000E5FF01C0E5FF02C0E5FF03C0E5FF04C0CE
:10287000E5FF05C0E5FF020EDBCF00F0030EDBCF66
:1028800001F0040EDBCF02F0050EDBCF03F053C3E3
:1028900004F054C305F00301533F01D0542B0350FF
:1028A000E56E0450E56E49EC1CF0E652E65253C367
:1028B00004F054C305F00301533F01D0542B0250E0
:1028C000056EE56E0450E56E49EC1CF0E652E652EA
:1028D00053C304F054C305F00301533F01D0542BFC
:1028E0000150E56E0450E56E49EC1CF0E652E652EC
:1028F00053C304F054C305F00301533F01D0542BDC
:102900000050E56E0450E56E49EC1CF0E652E652CC
:10291000E4CF05F0E4CF04F0E4CF03F0E4CF02F01D
:10292000E4CF01F0E4CF00F0E4CFD9FF1200D9CF1B
:10293000E5FFE1CFD9FF00C0E5FF01C0E5FF02C020
:10294000E5FF03C0E5FF04C0E5FF05C0E5FF06C0E5
:10295000E5FF020EDBCF00F0030EDBCF01F0003805
:10296000E8441F0B026E036A550E0226030E032273
:1029700002C0E9FF03C0EAFFEFCF04F00050056E8C
:10298000070E0516010E066E05500DE006E6E86C12
:10299000D8900636010FFDE306D0D89006BED88049
:1029A0000632010FFBE30450061202C0E9FF03C028
:1029B000EAFF06C0EFFF230E0024026E036A0F0E2B
:1029C000032202C0E9FF03C0EAFF01C0EFFF016A72
:1029D000230E0026040E012200C0E9FF01C0EAFF19
:1029E000FF0EEF68E4CF06F0E4CF05F0E4CF04F08B
:1029F000E4CF03F0E4CF02F0E4CF01F0E4CF00F045
:102A0000E4CFD9FF120000C0E5FF01C0E5FF02C01E
:102A1000E5FF03C0E5FF04C0E5FF05C0E5FF06C014
:102A2000E5FF07C0E5FF5FEC1BF0006E010A0BE15C
:102A3000000EE56E250EE56E840EE56EBAEC18F01C
:102A4000030EE12636D00050020A33E15FEC1BF0A2
:102A5000036E026A5FEC1BF0016A0226015003223A
:102A60000350076E0250066E046A056A5FEC1BF0A5
:102A7000036E016A5FEC1BF0006A0126005003221E
:102A8000015004120350051200500612071207509D
:102A9000E56E0650E56E0550E56E0450E56E000EDD
:102AA000E56E250EE56E900EE56EBAEC18F0070E99
:102AB000E126E4CF07F0E4CF06F0E4CF05F0E4CF61
:102AC00004F0E4CF03F0E4CF02F0E4CF01F0E4CF70
:102AD00000F01200D9CFE5FFE1CFD9FF00C0E5FF3C
:102AE00001C0E5FF02C0E5FF03C0E5FF04C0E5FF4C
:102AF00005C0E5FF06C0E5FF020EDBCF00F0030EC8
:102B0000DBCF01F0040EDBCF02F00301575119E1D6
:102B10002AEC0FF0036EF3CF04F0F4CF05F0E9CF09
:102B200006F003C0E5FF04C0F4FF05C0F6FF06C0D1
:102B3000F7FF00C0E9FF01C0F3FF02501DEC1EF0DB
:102B40001ED003015751010A1AE100C0E9FF01C07C
:102B5000F3FF02506DEC1CF0006EF3CF01F0F4CFE8
:102B600002F0E9CF03F00350E56E0250E56E01502C
:102B7000E56E0050E56E2BEC14F0040EE126E4CF78
:102B800006F0E4CF05F0E4CF04F0E4CF03F0E4CFA7
:102B900002F0E4CF01F0E4CF00F0E4CFD9FF12005F
:102BA000D9CFE5FFE1CFD9FF00C0E5FF01C0E5FFC8
:102BB00002C0E5FF03C0E5FF04C0E5FF05C0E5FF77
:102BC00006C0E5FF020EDBCF00F0030EDBCF01F005
:102BD000040EDBCF02F0050EDBCF03F0060EDBCFD9
:102BE00004F0070EDBCF05F0080EDBCF06F0D8802F
:102BF00003AED89015E306500A0A12E104C0E9FFBB
:102C000005C0EAFF2D0EEF6E044A052A031E021EC0
:102C1000011E006C05E1012A03E1022AD8B4032A4F
:102C20000650E56E0550E56E0450E56E0350E56E06
:102C30000250E56E0150E56E0050E56EFEEC0BF0C3
:102C4000070EE126E4CF06F0E4CF05F0E4CF04F070
:102C5000E4CF03F0E4CF02F0E4CF01F0E4CF00F0E2
:102C6000E4CFD9FF1200D9CFE5FFE1CFD9FF00C0F3
:102C7000E5FF01C0E5FF02C0E5FF03C0E5FF04C0BA
:102C8000E5FF05C0E5FF06C0E5FF020EDBCF00F063
:102C9000030EDBCF01F0040EDBCF02F0050EDBCF1D
:102CA00003F0046A056A0350800BE844066E065080
:102CB00011E10250022603360350015C02E102508A
:102CC000005C04E2D8900332023204D0052A05C029
:102CD00004F0E9D70350015C02E10250005C04E318
:102CE0000250005E0350015AD8900332023204C0F1
:102CF00005F004060550EEE101C0F3FF0050E4CFFB
:102D000006F0E4CF05F0E4CF04F0E4CF03F0E4CF25
:102D100002F0E4CF01F0E4CF00F0E4CFD9FF1200DD
:102D200000C0E5FF01C0E5FF02C0E5FF03C0E5FF0D
:102D30000AEC0EF058EC06F04BEC13F035EC1BF0FF
:102D4000006EF3CF01F0F4CF02F0E9CF03F00401FD
:102D50003351005E3451015A3551025A3651035AEB
:102D6000039E3F0E035C08E1FF0E025C05E1FF0ECF
:102D7000015C02E1FF0E005C23E235EC1BF0F3CFB7
:102D800001F0F4CF02F0E9CF03F0880F0401336FB4
:102D9000130E0120346F000E0220356F000E032049
:102DA000366F37C400F00401372B150E005C03E3C7
:102DB0000EEC04F0376B050E0401042701E3052B2C
:102DC000E4CF03F0E4CF02F0E4CF01F0E4CF00F071
:102DD000120000C0E5FF01C0E5FF02C0E5FF03C02F
:102DE000E5FF5DC300F0016A68C302F0036A0250A8
:102DF000005E0350015AE56A800EE56E0150E56EF3
:102E00000050E56EBDEC13F0006E040EE1260006E6
:102E100068C301F0430E05EC1BF0200E05EC1BF01F
:102E2000005020E0600E0124026E036A000E0322AF
:102E300002C0E9FF03C0EAFFEFCF02F0E56A0250EB
:102E4000E56E000EE56E3C0EE56ED00EE56EBAEC5A
:102E500018F0050EE126012A0150800A01E1016AFD
:102E60000006DED7E4CF03F0E4CF02F0E4CF01F0B8
:102E7000E4CF00F01200D8CFE5FFE0CFE5FFE56E2C
:102E8000F3CFE5FFF4CFE5FFE9CFE5FFEACFE5FFBC
:102E9000FACFE5FFFBCFE5FF00C0E5FF01C0E5FF8E
:102EA000040106510F01356F040107510F01366F00
:102EB000D650336FD750346FF2A417D006C400F049
:102EC00007C401F00050010F0401066F000E01203D
:102ED000076FF29406510F01356F040107510F017E
:102EE000366FD650336FD750346FE4CF01F0E4CF54
:102EF00000F0E4CFFBFFE4CFFAFFE4CFEAFFE4CF3A
:102F0000E9FFE4CFF4FFE4CFF3FFE450E4CFE0FFC8
:102F1000E4CFD8FF1000D9CFE5FFE1CFD9FF00C043
:102F2000E5FF01C0E5FF02C0E5FF03C0E5FF04C007
:102F3000E5FF020EDBCF00F0030EDBCF01F0040E45
:102F4000DBCF02F00301575111E1A0EC1AF0036E40
:102F5000F3CF04F003C0E5FF04C0F4FF00C0E9FFB5
:102F600001C0F3FF025078EC1EF016D00301575158
:102F7000010A12E100C0E9FF01C0F3FF0250A6EC14
:102F80001DF0006EF3CF01F00150E56E0050E56ECC
:102F900076EC19F0E652E652E4CF04F0E4CF03F009
:102FA000E4CF02F0E4CF01F0E4CF00F0E4CFD9FFAA
:102FB0001200A60EF66E3D0EF76E000EF86E0900BA
:102FC000F550056E0900F550066E04E1056702D064
:102FD00026EF18F00900F550006E0900F550016E5B
:102FE0000900F550026E09000900F550E96E09006C
:102FF000F550EA6E090009000900F550036E09005A
:10300000F550046E09000900F6CF07F0F7CF08F07D
:10301000F8CF09F000C0F6FF01C0F7FF02C0F8FFCB
:10302000035002E1045007E00900F550EE6E03067C
:10303000F8E20406F9D707C0F6FF08C0F7FF09C099
:10304000F8FF050601E20606E5EF17F01200D9CFFA
:10305000E5FFE1CFD9FF00C0E5FF01C0E5FF02C0F9
:10306000E5FF03C0E5FF04C0E5FF020EDBCF00F083
:103070000038E8441F0B016E026A550E0126030E4C
:10308000022201C0E9FF02C0EAFFEFCF03F0070E02
:103090000016010E046E00500DE006E6E86CD890B4
:1030A0000436010FFDE306D0D89004BED880043268
:1030B000010FFBE3041C006E0350001601C0E9FF82
:1030C00002C0EAFF00C0EFFFE4CF04F0E4CF03F05A
:1030D000E4CF02F0E4CF01F0E4CF00F0E4CFD9FF79
:1030E0001200D9CFE5FFE1CFD9FF00C0E5FF01C055
:1030F000E5FF02C0E5FF03C0E5FF04C0E5FF05C032
:10310000E5FF020EDBCF00F00050010A22E1016A68
:103110000150020DF450036EF3CF02F0B30E0224FF
:10312000046E040E0320056E04C0E9FF05C0EAFF2B
:10313000EE687F0EEF6ED30E0226040E032202C04D
:10314000E9FF03C0EAFFEE6AEF6A012A100E015C94
:10315000DFE300C00EF4E4CF05F0E4CF04F0E4CFE9
:1031600003F0E4CF02F0E4CF01F0E4CF00F0E4CFCD
:10317000D9FF1200D9CFE5FFE1CFD9FF00C0E5FFAD
:1031800001C0E5FF02C0E5FF020ED924006E000E6B
:10319000DA20016E800E026E030E0026000E012260
:1031A00002220250E56E0150E56E0050E56E040EFD
:1031B000DBCFE5FF030EDBCFE5FF020EDBCFE5FF44
:1031C00003014A51E56E4951E56E4851E56E0EEC3A
:1031D00000F0006EF3CF01F0090EE12601C0F3FF0D
:1031E0000050E4CF02F0E4CF01F0E4CF00F0E4CFF0
:1031F000D9FF1200D9CFE5FFE1CFD9FF00C0E5FF2D
:1032000001C0E5FF02C0E5FF03C0E5FF020EDBCF12
:1032100000F0030EDBCF01F0040EDBCF02F0030160
:1032200057510DE17AEC1DF0036E03C0E5FF00C0BD
:10323000E9FF01C0F3FF0250A6EC1EF00FD003011E
:103240005751010A0BE100C0E9FF01C0F3FF025032
:103250002EEC1EF0E56EFEEC1BF0E652E4CF03F020
:10326000E4CF02F0E4CF01F0E4CF00F0E4CFD9FFE7
:10327000120000C0E5FF01C0E5FF5FEC1BF0006E2F
:103280004C0A08E15FEC1BF0300A02E08B8229D087
:103290008B9227D00050450A24E1000EE56E250EE2
:1032A000E56E7E0EE56EBAEC18F0030EE126E9EC51
:1032B0001EF0006E00C001F0000601500FE05FEC50
:1032C0001BF0E56AE56E000EE56E250EE56E800EDC
:1032D000E56EBAEC18F0050EE126ECD70A0E05EC07
:1032E0001BF0E4CF01F0E4CF00F01200D9CFE5FFEE
:1032F000E1CFD9FF00C0E5FF01C0E5FF02C0E5FF57
:1033000003C0E5FF020EDBCF00F0030EDBCF01F0C0
:1033100053C302F054C303F00301533F01D0542BB5
:103320000150E56E0250E56E49EC1CF0E652E652A3
:1033300053C302F054C303F00301533F01D0542B95
:103340000050E56E0250E56E49EC1CF0E652E65284
:10335000E4CF03F0E4CF02F0E4CF01F0E4CF00F0DB
:10336000E4CFD9FF120000C0E5FF01C0E5FF02C0B5
:10337000E5FF5FEC1BF0006E5FEC1BF0016ED00E02
:1033800000260A0E005C05E30050026EF90E0224CE
:10339000006ED00E01260A0E015C05E30150026E9C
:1033A000F90E0224016E080E005C12E2100E015CA0
:1033B000D8B00ED00038F00B0124006E66EC1AF085
:1033C000016E015005E10050E56E1CEC1DF0E65267
:1033D000E4CF02F0E4CF01F0E4CF00F01200D9CF47
:1033E000E5FFE1CFD9FF00C0E5FF01C0E5FF02C066
:1033F000E5FF03C0E5FF04C0E5FF020EDBCF00F0F0
:1034000008C401F0026A014A022A09C403F0046AEE
:103410000150031803E10250041801E001D00ED05E
:10342000000E04010825016E026A010E022201C08D
:10343000E9FF02C0EAFF00C0EFFF082BE4CF04F071
:10344000E4CF03F0E4CF02F0E4CF01F0E4CF00F0EA
:10345000E4CFD9FF1200D9CFE5FFE1CFD9FF00C0FB
:10346000E5FF01C0E5FF02C0E5FF03C0E5FF020E76
:10347000DBCF00F0016A68C302F0036A0250002645
:1034800003500122E56A800EE56E0150E56E0050A2
:10349000E56EBDEC13F0006EF3CF01F0040EE126F3
:1034A000600E0026000E012200C0E9FF01C0EAFF05
:1034B000EFCF00F00050E4CF03F0E4CF02F0E4CF10
:1034C00001F0E4CF00F0E4CFD9FF120000C0E5FF27
:1034D00001C0E5FF02C0E5FF010E006E5FEC1BF0CE
:1034E000016E01C002F0015023E00050E56E4EEC89
:1034F0001EF0016EE652015010E10A0E005C0BE274
:103500000A0E006EE56E4EEC1EF0016EE6520150A2
:1035100004E1E8680ED0E8680CD00150021802E01F
:10352000E86807D0002A1B0E005CD8E3E86801D0E9
:10353000E86AE4CF02F0E4CF01F0E4CF00F012003B
:1035400000C0E5FF01C0E5FF02C0E5FF03C0E5FFE5
:1035500053C300F054C301F00301533F01D0542B77
:103560000050E56E4EEC1EF0E652036E026A53C345
:1035700000F054C301F00301533F01D0542B00501D
:10358000E56E4EEC1EF0E652016A02120150031283
:1035900003C0F3FF0250E4CF03F0E4CF02F0E4CF26
:1035A00001F0E4CF00F012000401086B0401096B84
:1035B00004010A6994808B909480B06A3F0EAF6ECC
:1035C000B886AC8AAC84AC8CAC90AB8CAB8E03016F
:1035D0005F6B0301596B03015C6B03015D6B0301BE
:1035E0005E6B000EE56A4EEC1EF004010C6FE652B5
:1035F0009F989F9A010E04010B6F0301486B496B62
:103600002F0E4A6F5CEC1EF0120000C0E5FF01C0F7
:10361000E5FF02C0E5FF006E390E04010D25016EC5
:10362000026A040E022201C0E9FF02C0EAFF00C0E4
:10363000EFFF220E0D5DD8A00D2B00500A0A0EE1FF
:1036400004010D51E56E800EE56E040EE56E390E37
:10365000E56ED8EC11F0040EE1260D6BE4CF02F01C
:10366000E4CF01F0E4CF00F01200040106510401A0
:10367000836F040107510401846FD650816FD750C6
:10368000826F83510401061905E10401845104018C
:1036900007190CE0040106510401836F040107516E
:1036A0000401846FD650816FD750826F84C4E9FFC4
:1036B00083C4F4FF82C4F3FF04018151120000C0EF
:1036C000E5FF01C0E5FF03015D510301661905E057
:1036D00003015D5103015C1902E1E86A15D05DC385
:1036E00000F003015D2B016A600E0026000E01222E
:1036F00000C0E9FF01C0EAFFEFCF00F05D51800A92
:1037000002E103015D6B0050E4CF01F0E4CF00F073
:10371000120000C0E5FFE3EC1EF00401896B806B32
:103720008983006A89B3002A0050010BE844F46ED3
:103730008051FD0BF410806FD58ED59CD59AD5881D
:10374000D596D594D582D580F28AF184D08EF28E2A
:10375000F28CBA80FF0EBB68BA84E4CF00F012008E
:10376000D9CFE5FFE1CFD9FF00C0E5FF01C0E5FFFC
:10377000020EDBCF00F00050020DF450016EF3CFCB
:1037800000F0000E0026030E012200C0E9FF01C078
:10379000EAFFEECF00F0EFCF01F001C0F3FF0050E1
:1037A000E4CF01F0E4CF00F0E4CFD9FF1200D9CF8D
:1037B000E5FFE1CFD9FF00C0E5FF01C0E5FF020E44
:1037C000DBCF00F00050020DF450016EF3CF00F09B
:1037D000E00E0026000E012200C0E9FF01C0EAFF52
:1037E000EECF00F0EFCF01F001C0F3FF0050E4CFC7
:1037F00001F0E4CF00F0E4CFD9FF1200D9CFE5FF0C
:10380000E1CFD9FF00C0E5FF01C0E5FF02C0E5FF41
:10381000020EDBCF00F053C301F054C302F00301EA
:10382000533F01D0542B0050E56E0150E56E49EC3A
:103830001CF0E652E652E4CF02F0E4CF01F0E4CF10
:1038400000F0E4CFD9FF1200D8CFE5FFE0CFE5FFCD
:10385000E56EF3CFE5FFF4CFE5FFE9CFE5FFEACF73
:10386000E5FFFACFE5FFFBCFE5FFD3EC09F0E4CFAE
:10387000FBFFE4CFFAFFE4CFEAFFE4CFE9FFE4CFB8
:10388000F4FFE4CFF3FFE450E4CFE0FFE4CFD8FF50
:103890001000D9CFE5FFE1CFD9FF00C0E5FF020E50
:1038A000DBCF00F0030EDBCFA8FF00C0A9FFA69E70
:1038B000A69CA684F29EF29C550EA76EAA0EA76E39
:1038C000A682A6A202D00000FCD7A694F28EF28CAB
:1038D000E4CF00F0E4CFD9FF1200E8AE0AD0F3CF76
:1038E000EAFFEE50EECFF3FFEECFF4FFEECFE9FFAD
:1038F0001200E8BCF6EF1EF0E9CFF6FFF3CFF7FFBA
:10390000F86E0900F5500900F5CFF3FF0900F5CF77
:10391000F4FF0900F5CFE9FF120000C0E5FF01C088
:10392000E5FF040108510401091902E1E86A0FD01A
:10393000000E04010925006E016A010E012200C07B
:10394000E9FF01C0EAFFEFCF00F0092B0050E4CF00
:1039500001F0E4CF00F01200F2CFEAFFF29EA69E43
:10396000A69CA684E9CFA9FFF3CFAAFFE4CFA8FFC6
:10397000BBEC1EF0F4CFA8FFBBEC1EF0F6CFA8FF07
:10398000BBEC1EF0F7CFA8FFBBEC1EF0A694EABE7E
:10399000F28E1200F2CFF6FFF29EA69EA69CE9CF11
:1039A000A9FFF3CFAAFFA680A850A94AAA2AA680F9
:1039B000A8CFF3FFA94AAA2AA680A8CFF4FFA94A54
:1039C000AA2AA680A8CFEAFFF6BEF28E1200E8AEC1
:1039D00008D0F3CFEAFFEE50EECFF3FFEECFF4FFC7
:1039E0001200E8BCFEEF1EF0E9CFF6FFF3CFF7FFC1
:1039F000F86E0900F5500900F5CFF3FF0900F5CF87
:103A0000F4FF1200F2CFEAFFF29EA69EA69CA684C7
:103A1000E9CFA9FFF3CFAAFFE4CFA8FFBBEC1EF0CC
:103A2000F4CFA8FFBBEC1EF0F6CFA8FFBBEC1EF056
:103A3000A694EABEF28E1200D9CFE5FFE1CFD9FFFE
:103A400000C0E5FF020EDBCF00F000C00CF4005018
:103A5000E56E000EE56A49EC1CF0E652E652E4CF52
:103A600000F0E4CFD9FF1200F2CFF6FFF29EA69E3F
:103A7000A69CE9CFA9FFF3CFAAFFA680A850A94A28
:103A8000AA2AA680A8CFF3FFA94AAA2AA680A8CF6F
:103A9000F4FFF6BEF28E120000C0E5FF01C0E5FFA4
:103AA000600E03015D25006E016A000E012200C058
:103AB000E9FF01C0EAFFEFCF00F00050E4CF01F0D2
:103AC000E4CF00F01200D9CFE5FFE1CFD9FF00C06D
:103AD000E5FF020EDBCF00F0610E005C05E37B0E1C
:103AE000005C02E2010E01D0E86AE4CF00F0E4CF0E
:103AF000D9FF120000C0E5FF01C0E5FF53C300F08D
:103B000054C301F00301533F01D0542B0050E56E24
:103B10004EEC1EF0E652E4CF01F0E4CF00F01200CC
:103B2000D9CFE5FFE1CFD9FF00C0E5FF020EDBCF23
:103B300000F000C00BF4005004E15CEC1EF09D9A14
:103B40009D98E4CF00F0E4CFD9FF1200E8AE06D094
:103B5000F3CFEAFFEE50EECFF3FF1200E8BCF4EF34
:103B60001EF0E9CFF6FFF3CFF7FFF86E0900F5502E
:103B70000900F5CFF3FF1200F2CFEAFFF29EA69EF6
:103B8000A69CA684E9CFA9FFF3CFAAFFE4CFA8FFA4
:103B9000BBEC1EF0F4CFA8FFBBEC1EF0A694EABE6F
:103BA000F28E120012EEFFF022EEFFF0F86AA68EFF
:103BB000A69CE9680E0EEA6E0068000EED6A0050E1
:103BC000FDE1D9EC17F006EC00F0FFD7F2CFF6FFDD
:103BD000F29EA69EA69CE9CFA9FFF3CFAAFFA680DE
:103BE000A850A94AAA2AA680A8CFF3FFF6BEF28E53
:103BF000120078000000000000000000FF0000003C
:103C0000000200020000004200000000000000006E
:103C1000000000000000F2CFEAFFF29EA69EA69CE4
:103C2000A684E9CFA9FFF3CFAAFFE4CFA8FFBBEC9E
:103C30001EF0A694EABEF28E1200E8AE0BD0F3CFCF
:103C4000EAFFE4CFEEFFF4CFEEFFF6CFEEFFF7CFC3
:103C5000EEFF1200E8BCF8EF1EF01200E8AE04D050
:103C6000F3CFEAFFEE501200E8BCF2EF1EF0E9CF0E
:103C7000F6FFF3CFF7FFF86E0900F5501200E8AE3B
:103C800009D0F3CFEAFFE4CFEEFFF4CFEEFFF6CF9B
:103C9000EEFF1200E8BC00EF1FF01200D9CFE5FFE5
:103CA000E1CFD9FF020EDBCFA9FFA69CA69EA6807E
:103CB000A850E4CFD9FF1200ACA2FED79480AE503A
:103CC0000000AE50AB98AB88AB869D8A9D981200E1
:103CD00025642000F2CFF6FFF29EA69EA69CE9CFB7
:103CE000A9FFF3CFAAFFA680A850F6BEF28E12005D
:103CF000E8AE07D0F3CFEAFFE4CFEEFFF4CFEEFF5C
:103D00001200E8BCFCEF1EF01200700ED36E9B8C0C
:103D1000FF0E9268936894689668626AF19E12003A
:103D200000C0E5FF66EC1AF0006E005001E1FF00F4
:103D3000E4CF00F012000F01456B900E0F01446FAD
:103D4000030E0F01436F0F01458F1200E8AE05D03F
:103D5000F3CFEAFFE4CFEEFF1200E8BCFAEF1EF06B
:103D60001200D9CFE5FFE1CFD9FF020EDBCF11F46E
:103D7000E4CFD9FF1200550EA76EAA0EA76EA68239
:103D8000A6B2FED7A94AAA2A010E0301576F1C0E3C
:103D90000301536F546B12000301576B1C0E030198
:103DA000536F546B12000100F23B0000000400004E
:103DB0002300000089EC1BF0D4EC1AF01200ACA236
:103DC000FED7AD6E120085EC1EF0120003015D51AE
:103DD000120003016751120004010B511200E8CFD9
:103DE0007FFF12006AEF1EF0E6EF1DF0CAEF1CF035
:103DF000ACEF1CF00BEF1EF0BCEF1DF034EF1DF02C
:043E000002EF1DF0C0
:020000040030CA
:010006008574
:00000001FF
