:020000040000FA
:100000008FEF16F0C69A120043EF0FF08DEC13F04D
:100010002FEC10F0FDD7120082EF14F0D9CFE5FFDE
:10002000E1CFD9FF00C0E5FF01C0E5FF02C0E5FF59
:1000300003C0E5FF04C0E5FF05C0E5FF06C0E5FF1E
:1000400007C0E5FF08C0E5FF09C0E5FF0AC0E5FFFE
:100050000BC0E5FF0CC0E5FF0DC0E5FF0EC0E5FFDE
:100060000FC0E5FF10C0E5FF11C0E5FF12C0E5FFBE
:1000700013C0E5FF14C0E5FF15C0E5FF16C0E5FF9E
:1000800017C0E5FF18C0E5FF19C0E5FF1AC0E5FF7E
:100090001BC0E5FF1CC0E5FF1DC0E5FF1EC0E5FF5E
:1000A000020EDBCF00F0030EDBCF01F0040EDBCF3E
:1000B00002F0050EDBCF03F0060EDBCF04F0070ED7
:1000C000DBCF05F0080EDBCF06F0090EDBCF07F023
:1000D0000A0EDBCF08F0096A0A6A02C00DF00D5063
:1000E000800A0DE1025004018F6F01508E6F0050A5
:1000F0008D6F040E016E8D0E006E800E026E03C0B9
:10010000E9FF04C0F3FF0550D9EC16F00B6E0B505D
:10011000D8B4C4EF03F00B50250A02E0ABEF03F0B4
:100120000C6A0D6A0E6A0F6A106A0A0E116E126A64
:10013000136A146A200E156E1668176A2B0E186E55
:10014000032A02E3044A052A03C0E9FF04C0F3FFBF
:100150000550D9EC16F0196E250A13E11950E56E19
:100160000250E56E0150E56E0050E56E77EC09F047
:10017000040EE126094A0A2A032A02E3044A052A50
:10018000BED71950300A06E1300E156E032A02E37D
:10019000044A052A03C0E9FF04C0F3FF0550D9EC67
:1001A00016F02D0A06E1010E146E032A02E3044A3A
:1001B000052A03C0E9FF04C0F3FF0550D9EC16F08F
:1001C000200A08E1010E176E200E186E032A02E3C2
:1001D000044A052A03C0E9FF04C0F3FF0550D9EC27
:1001E00016F02B0A06E1010E176E032A02E3044AF9
:1001F000052A03C0E9FF04C0F3FF0550D9EC16F04F
:10020000196E310E195C2BE33A0E195C28E203C01B
:1002100019F004C01AF005C01BF019C0E9FF1AC09C
:10022000F3FF1B50D9EC16F01C6E300E1C5C11E372
:100230003A0E1C5C0EE213500A0DF3CF1DF01C5059
:100240001D26D00E1D24136E192A02E31A4A1B2AFA
:10025000E4D719C003F01AC004F01BC005F003C0B6
:10026000E9FF04C0F3FF0550D9EC16F02E0A2DE18A
:10027000032A02E3044A052A166A03C019F004C0DF
:100280001AF005C01BF019C0E9FF1AC0F3FF1B509C
:10029000D9EC16F01C6E300E1C5C11E33A0E1C5C9F
:1002A0000EE216500A0DF3CF1DF01C501D26D00E85
:1002B0001D24166E192A02E31A4A1B2AE4D719C014
:1002C00003F01AC004F01BC005F003C0E9FF04C02E
:1002D000F3FF0550D9EC16F0196E6C0A07E1010E18
:1002E0000C6E032A02E3044A052A09D01950680A51
:1002F00006E1010E0E6E032A02E3044A052A03C03A
:10030000E9FF04C0F3FF0550D9EC16F0750A06E1C9
:10031000010E106E032A02E3044A052A03C0E9FF16
:1003200004C0F3FF0550D9EC16F0196E730A05E10D
:10033000010E0D6E200E156E3FD01950780A03E1A4
:10034000100E116E39D01950580A05E1100E116EB9
:10035000010E126E31D01950630A02E1116A2CD0DD
:1003600019506F0A03E1080E116E26D01950660A63
:1003700003E1010E0F6E20D01950640A1DE01950E0
:10038000690A1AE0105005E0FF0E03260422052238
:1003900013D01950E56E0250E56E0150E56E005025
:1003A000E56E77EC09F0040EE126094A0A2A032AD1
:1003B00002E3044A052AA3D60D5021E00650030F9C
:1003C0000D6E000E0720196E000E08201A6E0DC06B
:1003D00006F019C007F01AC008F0FD0E0D26FF0E3A
:1003E00019221A220DC0E9FF19C0F3FF1A50A4EC1C
:1003F00015F00D6EF3CF19F0F4CF1AF0FDD00F50B9
:100400000DE0000E1A6E080E196E100E0D6E040E21
:100410000626000E072208221668EED016680C5039
:1004200023E00650040F0C6E000E07200F6E000E26
:1004300008201B6E0CC006F00FC007F01BC008F0B0
:10044000FC0E0C26FF0E0F221B220CC0E9FF0FC072
:10045000F3FF1B50ECEC14F00C6EF3CF0FF0F4CF65
:100460001BF0E9CF1CF067D00E502FE00650020FB2
:100470000E6E000E07201D6E000E08201E6E0EC0B0
:1004800006F01DC007F01EC008F0FE0E0E26FF0E7F
:100490001D221E220EC0E9FF1DC0F3FF1E5063EC9B
:1004A00016F00E6E0EC00CF00F6A1B6A1C6A11501B
:1004B0000A0A03E11050D8B43ED00C500E6E0EC0A4
:1004C0000CF00F6A1B6A1C6A36D00650020F0E6EC3
:1004D000000E07201D6E000E08201E6E0EC006F0D6
:1004E0001DC007F01EC008F0FE0E0E26FF0E1D22D6
:1004F0001E220EC0E9FF1DC0F3FF1E5063EC16F074
:100500000E6EF3CF1DF00EC00CF01DC00FF0E86AA8
:100510001DBEFF0E1B6E1C6E11500A0A02E1105028
:100520000AE00C500E6E0F501D6E0EC00CF01DC078
:100530000FF01B6A1C6A040E196E240E0D6E800EDD
:100540001A6E1150D8B440D0105013E01150E56E1F
:10055000040EE56E240EE56E1C50E56E1B50E56E34
:100560000F50E56E0C50E56E2FEC05F0070EE126FE
:1005700012D01150E56E040EE56E240EE56E1C508F
:10058000E56E1B50E56E0F50E56E0C50E56ED6EC37
:100590000CF0070EE12617502FE00DC0E9FF19C03F
:1005A000F3FF1A50D9EC16F02D0A26E0FF0E0D26A7
:1005B00019221A2218C0E5FF0DC0E9FF19C0F3FF88
:1005C0001A505FEC17F018D00CC0E5FF0DC0E9FF22
:1005D00019C0F3FF1A505FEC17F00D50010F0C6EAD
:1005E000000E19200E6E000E1A20E56A0CC0E9FFFD
:1005F0000EC0F3FF5FEC17F00DC00CF019C00EF049
:100600001AC00FF013C010F0105010E00CC0E9FF3A
:100610000EC0F3FF0F50D9EC16F0176E175006E01E
:100620000C2A02E30E4A0F2A1006EED710C013F070
:1006300014501EE109C00CF00AC00EF010C00FF0FB
:100640000F5010E01550E56E0250E56E0150E56E5A
:100650000050E56E77EC09F0040EE1260C4A0E2AF4
:100660000F06EED70CC009F00EC00AF00FC013F051
:1006700016C00CF00DC00DF019C00EF01AC00FF02E
:1006800009C010F00AC015F00DC0E9FF0EC0F3FF5D
:100690000F50D9EC16F0166E1650D8B43ED00CC0E0
:1006A00016F0176A161E171E1650171005E00CC01C
:1006B00016F00C06165031E00DC0E9FF0EC0F3FF36
:1006C0000F50D9EC16F0116E125010E01150E56E7B
:1006D00020EC16F0166EE652165004E0DF0E1114F0
:1006E000166E02D011C016F016C011F01150E56E52
:1006F0000250E56E0150E56E0050E56E77EC09F0B2
:10070000040EE1260D2A02E30E4A0F2A104A152A8A
:100710001350D8B4B9D71306B7D710C009F015C015
:100720000AF014502BE010C00CF015C00DF013C0EF
:100730000EF00E501FE0200EE56E0250E56E0150E7
:10074000E56E0050E56E77EC09F0040EE1260C4AE8
:100750000D2A0E06EED70B50E56E0250E56E0150E5
:10076000E56E0050E56E77EC09F0040EE126094ACB
:100770000A2A04D00CC009F00DC00AF0032A02E3D3
:10078000044A052A7FEF00F00AC0F3FF0950E4CFC6
:100790001EF0E4CF1DF0E4CF1CF0E4CF1BF0E4CF5B
:1007A0001AF0E4CF19F0E4CF18F0E4CF17F0E4CF5B
:1007B00016F0E4CF15F0E4CF14F0E4CF13F0E4CF5B
:1007C00012F0E4CF11F0E4CF10F0E4CF0FF0E4CF5B
:1007D0000EF0E4CF0DF0E4CF0CF0E4CF0BF0E4CF5B
:1007E0000AF0E4CF09F0E4CF08F0E4CF07F0E4CF5B
:1007F00006F0E4CF05F0E4CF04F0E4CF03F0E4CF5B
:1008000002F0E4CF01F0E4CF00F0E4CFD9FF120012
:100810003C4E4F20464C4F41543E000000C0E5FF87
:1008200001C0E5FF02C0E5FF03C0E5FF04014E5132
:10083000D8B40CD19DA81DD09EA81BD00401535143
:100840000F01351905E107EC17F00F01356BFED0EC
:10085000000E04015325006E016A040E012200C03F
:10086000E9FF01C0EAFFEFCF31FF532B31CFADFFDE
:10087000EDD09DAAEBD09EAAE9D0ABA205D00F0186
:10088000368107EC17F0E2D0ABA405D00F01368318
:1008900007EC17F0DBD0ABA048D0AECF31FF4FC490
:1008A00000F0016A008E31CF02F0036A0250001896
:1008B00003E10350011801E004D00F013689AB9623
:1008C000C5D00F01315104E0315104014F1929E124
:1008D0000F013699AB960F01315103E00F013697A6
:1008E00002D00F01368731CF56F433CF57F40F01C2
:1008F0003351006E00040401586F600E0401572547
:10090000006E016A000E012200C0E9FF01C0EAFF8B
:1009100031CFEFFF572B5751800A02E10401576B8B
:1009200095D00F013699AB8691D0AECF31FF0F0134
:1009300036A921D04FC400F0016A008E31CF02F0F9
:10094000036A0250001803E10350011801E011D0BE
:100950009D9AAB9894900F01355104E1AD6A07EC74
:1009600017F007D000C4ADFF010E0401536F9D883E
:100970006DD0AB866BD00F013151040156270401B5
:100980005751040158191BE1040156510CE157C499
:1009900033FF0F0136B712D09D9AAB989490AD6A91
:1009A00007EC17F00BD00F01368536B707D09D9AAC
:1009B000AB989490010EAD6E07EC17F047D0040190
:1009C00057510F01341908E10F0134510F01331948
:1009D00003E007EC17F03AD033CF00F0016A004A89
:1009E000012AE56A800EE56E0150E56E0050E56E65
:1009F00096EC0BF0006E040EE12600500F01326FF2
:100A0000040157190FE131CF00F01F0E001404014B
:100A1000586F006E020E0024586F0F01335104010D
:100A20005827589F57C400F00401572B016A600EE5
:100A30000026000E012200C0E9FF01C0EAFF31CF0D
:100A4000EFFF5751800A02E10401576BE4CF03F036
:100A5000E4CF02F0E4CF01F0E4CF00F01200D9CFF0
:100A6000E5FFE1CFD9FF00C0E5FF01C0E5FF02C00F
:100A7000E5FF03C0E5FF04C0E5FF05C0E5FF06C0D4
:100A8000E5FF07C0E5FF08C0E5FF09C0E5FF0AC0B4
:100A9000E5FF0BC0E5FF0CC0E5FF0DC0E5FF0EC094
:100AA000E5FF0FC0E5FF020EDBCF00F0030EDBCF4A
:100AB00001F0040EDBCF02F0050EDBCF03F0060ED3
:100AC000DBCF04F0070EDBCF05F0080EDBCF06F01E
:100AD000200E076E086A06C009F00A6A0B6A0C6AE3
:100AE000E56AE56AE56A0950E56E0350E56E025075
:100AF000E56E0150E56E0050E56E0BEC06F00D6EF4
:100B0000080EE126300E0D263A0E0D5C05E30D5061
:100B10000E6E270E0E240D6EFF0E07260822E00E25
:100B200007240E6E000E08200F6E0EC0E9FF0FC0E6
:100B3000EAFF0DC0EFFF0C50E56E0B50E56E0A505A
:100B4000E56E0950E56E0350E56E0250E56E01500A
:100B5000E56E0050E56E5AEC08F0006EF3CF01F040
:100B6000F4CF02F0E9CF03F0080EE12600500110A7
:100B700002100310D8A4AFD707C000F008C001F0DE
:100B800004C002F005C003F000C004F001C005F08D
:100B9000004A012AE00E0426000E052204C0E9FFE7
:100BA00005C0EAFFEFCF04F002C0E9FF03C0EAFF8F
:100BB00004C0EFFF024A032A000E015C02E1200E8E
:100BC000005CE2E302C0E9FF03C0EAFF000EEF6A47
:100BD000E4CF0FF0E4CF0EF0E4CF0DF0E4CF0CF053
:100BE000E4CF0BF0E4CF0AF0E4CF09F0E4CF08F053
:100BF000E4CF07F0E4CF06F0E4CF05F0E4CF04F053
:100C0000E4CF03F0E4CF02F0E4CF01F0E4CF00F052
:100C1000E4CFD9FF1200D9CFE5FFE1CFD9FF00C063
:100C2000E5FF01C0E5FF02C0E5FF03C0E5FF04C02A
:100C3000E5FF05C0E5FF06C0E5FF07C0E5FF08C00A
:100C4000E5FF09C0E5FF0AC0E5FF020EDBCF00F0BB
:100C5000030EDBCF01F0040EDBCF02F0050EDBCF7D
:100C600003F0060EDBCF04F0070EDBCF05F0080E15
:100C7000DBCF06F0090EDBCF07F0086A0450051041
:100C80000610071005E1E968F468F368E86847D0E2
:100C9000096A0750800BE8440A6E0A501BE10450B1
:100CA00004260536063607360750035C08E1065071
:100CB000025C05E10550015C02E10450005C06E2C3
:100CC000D890073206320532043204D0092A09C00E
:100CD00008F0DFD70750035C08E10650025C05E12D
:100CE0000550015C02E10450005C08E30450005E22
:100CF0000550015A0650025A0750035AD89007323D
:100D000006320532043208C009F008060950E2E153
:100D100003C0E9FF02C0F4FF01C0F3FF0050E4CFBD
:100D20000AF0E4CF09F0E4CF08F0E4CF07F0E4CF15
:100D300006F0E4CF05F0E4CF04F0E4CF03F0E4CF15
:100D400002F0E4CF01F0E4CF00F0E4CFD9FF1200CD
:100D500000C0E5FF01C0E5FF02C0E5FF03C0E5FFFD
:100D6000E4EC13F0006E0A0A01E17AD00050140A94
:100D700003E139EC0DF074D00050150A11E1E4ECF8
:100D800013F0D880E866D890016A01360150D88007
:100D9000E866D890016A013601500401396F60D0CD
:100DA0000050280A1EE1E4EC13F0016EE56AE56EDE
:100DB0009FEC0EF0026EF3CF03F0E652E6520350C2
:100DC000E56E0250E56EE56A0150E56E000EE56ED7
:100DD000250EE56E840EE56E7AEC10F0070EE12626
:100DE0003FD00050290A0FE1E4EC13F0016EE4EC6F
:100DF00013F0E56E220EE56E0150E56E93EC12F0F5
:100E0000030EE1262DD000502A0A0EE1E4EC13F087
:100E1000016E020EE56E210EE56E0150E56E93EC5B
:100E200012F0030EE1261CD000502B0A0EE1E4EC78
:100E300013F0016E010EE56E200EE56E0150E56EB9
:100E400093EC12F0030EE1260BD00050640A08E187
:100E5000E568E56A080EE56E39EC07F0030EE12659
:100E6000E4CF03F0E4CF02F0E4CF01F0E4CF00F0F0
:100E70001200D9CFE5FFE1CFD9FF00C0E5FF01C0E7
:100E8000E5FF02C0E5FF03C0E5FF04C0E5FF06C0C3
:100E9000E5FF020EDBCF00F0030EDBCF01F0040E06
:100EA000DBCF02F03F0EC716C66AC56A0050C612F5
:100EB0000150C7129488820E006E0F0E016E0F0E45
:100EC000046E380E0026045001220F0E046E800EB0
:100ED000005E0450015A820E036E0F0E046E0F0E58
:100EE000066E380E0326065004220F0E066E800E84
:100EF000035E0650045A03C0E9FF04C0EAFFEFCFC7
:100F000003F0039800C0E9FF01C0EAFF03C0EFFF50
:100F10009486820E006E0F0E016E0F0E046E380E58
:100F20000026045001220F0E046E800E005E045055
:100F3000015A820E036E0F0E046E0F0E066E380EEF
:100F40000326065004220F0E066E800E035E065026
:100F5000045A03C0E9FF04C0EAFFEFCF03F0039691
:100F600000C0E9FF01C0EAFF03C0EFFF02C0C8FFF5
:100F7000C68A9E96A196E4CF06F0E4CF04F0E4CFB3
:100F800003F0E4CF02F0E4CF01F0E4CF00F0E4CFCF
:100F9000D9FF120000C0E5FF01C0E5FF02C0E5FF78
:100FA00003C0E5FF0F0134510F01331901E166D091
:100FB00034CF00F0002A009E016A600E0026000E69
:100FC000012200C0E9FF01C0EAFFEFCF5AF41F0E73
:100FD00004015A1734CF59F45A5104015927595171
:100FE000006E020E0024596F599FE4EC13F0006E5E
:100FF000005003E1006A002A01D0006AE4EC13F01B
:1010000004015A6F5AC401F0800E01165AC402F04E
:101010001F0E021602C003F002C05AF4035003E18F
:1010200033CF34FF3ED000501EE0015025E0E4EC09
:1010300013F0006E04015A51026E02045A6F005000
:10104000420A1AE000504E0A03E136EC11F014D0C7
:101050000050460A03E154EC17F00ED00050490A44
:101060000BE1FF0009D034CF5BF4015003E03DEC0D
:1010700017F002D0A8EC06F059C434FF04014B511C
:1010800004014C1906E00F01355103E103EC0AF0AD
:1010900008D094B006D00F01355103E1ACB207EC93
:1010A00017F0E4CF03F0E4CF02F0E4CF01F0E4CF97
:1010B00000F01200D9CFE5FFE1CFD9FF00C0E5FF76
:1010C00001C0E5FF02C0E5FF03C0E5FF04C0E5FF86
:1010D00005C0E5FF06C0E5FF07C0E5FF08C0E5FF66
:1010E00009C0E5FF0AC0E5FF0BC0E5FF0CC0E5FF46
:1010F0000DC0E5FF020EDBCF00F0030EDBCF01F0E9
:10110000040EDBCF02F0050EDBCF03F0060EDBCFC3
:1011100004F0070EDBCF05F0080EDBCF06F0090E5A
:10112000DBCF07F0086A096A0A6A0B6A200E0C6EA8
:101130000350800BE8440D6E005000260136023645
:1011400003360850082609360A360B360D50D8A447
:10115000088007500B5C08E106500A5C05E1055069
:10116000095C02E10450085C09E30450085E055084
:10117000095A06500A5A07500B5A00800C040D6E8B
:101180000DC00CF00D50D4E103C0E9FF02C0F4FF24
:1011900001C0F3FF0050E4CF0DF0E4CF0CF0E4CF3A
:1011A0000BF0E4CF0AF0E4CF09F0E4CF08F0E4CF8D
:1011B00007F0E4CF06F0E4CF05F0E4CF04F0E4CF8D
:1011C00003F0E4CF02F0E4CF01F0E4CF00F0E4CF8D
:1011D000D9FF120000C0E5FF01C0E5FF03C0E5FF35
:1011E00004C0E5FF05C0E5FF06C0E5FF07C0E5FF59
:1011F00008C0E5FF09C0E5FF0AC0E5FF0BC0E5FF39
:1012000090C400F091C401F00401903F01D0912BF3
:101210000050E56EF9EC16F0E652076E046A056AB6
:10122000066A90C400F091C401F00401903F01D01F
:10123000912B0050E56EF9EC16F0E6520B6A0A6E3F
:10124000086A0850041205120A5006120B500712C1
:1012500090C400F091C401F00401903F01D0912BA3
:101260000050E56EF9EC16F0E652036E006A03C01A
:1012700001F0E86A03BEFF0E086E096E005004120A
:1012800001500512085006120950071290C400F0D0
:1012900091C401F00401903F01D0912B0050E56E04
:1012A000F9EC16F0E652016A04120150051206121A
:1012B000071207C0E9FF06C0F4FF05C0F3FF0450A2
:1012C000E4CF0BF0E4CF0AF0E4CF09F0E4CF08F06C
:1012D000E4CF07F0E4CF06F0E4CF05F0E4CF04F06C
:1012E000E4CF03F0E4CF01F0E4CF00F01200D9CF57
:1012F000E5FFE1CFD9FF00C0E5FF01C0E5FF02C077
:10130000E5FF03C0E5FF04C0E5FF05C0E5FF06C03B
:10131000E5FF07C0E5FF020EDBCF00F0030EDBCFD9
:1013200001F0040EDBCF02F0050EDBCF03F002C0AC
:1013300006F00650046E800A33E100C0E9FF01C0E8
:10134000F3FF0250A4EC15F0056EF3CF06F0F4CFD6
:1013500007F003C0E5FF05C0E9FF06C0F3FF075033
:101360005FEC17F000C0E9FF01C0F3FF0250A4ECEE
:1013700015F0056EF3CF06F0F4CF07F0052A02E36F
:10138000064A072A05C0E5FF06C0F4FF07C0F6FFBE
:1013900000C0E9FF01C0F3FF0250EAEC16F020D0D4
:1013A00004C000F000AA1CD0007A0050046E04E1D2
:1013B0000350A6EC17F014D00450010A04E10350C6
:1013C000B9EC17F00DD004500F0A04E103505DECA6
:1013D00013F006D004500E0A03E10350B6EC17F0E8
:1013E000E4CF07F0E4CF06F0E4CF05F0E4CF04F05B
:1013F000E4CF03F0E4CF02F0E4CF01F0E4CF00F05B
:10140000E4CFD9FF120000C0E5FF01C0E5FF02C034
:10141000E5FF03C0E5FFACA277D00CEC15F0006E41
:10142000005005E104014C6B04014B6B6DD04CC4C2
:1014300001F0005001260CEC15F0026E000602507F
:10144000230A1FE1010E005CD8A05CD00CEC15F063
:10145000036E690A03E12CEC13F054D00350720AB6
:1014600003E107EC17F04ED00350730A01E04AD0B5
:101470009480AB869D8A9D98AE50AE50AB98AB8859
:1014800041D00250430A05E00250420A01E03AD03E
:1014900001D0008E0401536B00C054F400500401CD
:1014A000006F0401532B04014C51011814E00CECA3
:1014B00015F0006E04015427000E04015325026E3E
:1014C000036A040E032202C0E9FF03C0EAFF00C062
:1014D000EFFF532BE8D7000E04015325006E026A7C
:1014E000040E02220401541D036E032A00C0E9FF0A
:1014F00002C0EAFF03C0EFFF0401532B53C435FFC2
:101500000F012F6B01C04CF4E4CF03F0E4CF02F0E5
:10151000E4CF01F0E4CF00F01200D9CFE5FFE1CF36
:10152000D9FF00C0E5FF01C0E5FF02C0E5FF03C031
:10153000E5FF04C0E5FF05C0E5FF06C0E5FF020EBC
:10154000DBCF00F0030EDBCF01F0040EDBCF02F0A7
:10155000050EDBCF03F003C004F0056A0350D8B4D6
:1015600053D000C0E9FF01C0F3FF0250D9EC16F0E0
:10157000066E430A03E1010E056E038E0406002A7F
:1015800002E3014A022A9D9AAB9894909D989EA8E6
:10159000FED7AC80AD6A00009EA8FED7AC9003C019
:1015A000ADFF00009EA8FED7055005E0420EAD6ECF
:1015B0000324056E05D0620EAD6E620E0324056E27
:1015C00004C003F0035015E000009EA8FED700C041
:1015D000E9FF01C0F3FF0250D9EC16F0046E04C01D
:1015E000ADFF045005260306002A02E3014A022A41
:1015F000E9D700009EA8FED7051CAD6EAD2A0000FD
:101600009EA8FED707EC17F0E4CF06F0E4CF05F074
:10161000E4CF04F0E4CF03F0E4CF02F0E4CF01F034
:10162000E4CF00F0E4CFD9FF1200D9CFE5FFE1CF3E
:10163000D9FF00C0E5FF01C0E5FF02C0E5FF03C020
:10164000E5FF04C0E5FF05C0E5FF06C0E5FF07C0F4
:10165000E5FF020EDBCF00F0030EDBCF01F0040E3E
:10166000DBCF02F0050EDBCF03F04CC44DF40401D8
:101670004B5104014D5F4D51046E04044D6F03C086
:1016800004F0056A030E0426D8B0052A4DC406F0FE
:10169000076A0750800FF36E0550800FF35C02E17C
:1016A0000450065C02E2E8682ED0020E035C02E2FF
:1016B000E86A29D003060350E56E72EC11F0E65299
:1016C000046A0350045C14E204500024056EE86AC6
:1016D0000120066EE86A022005C0E9FF06C0F3FF9C
:1016E000D9EC16F0042AE56E72EC11F0E652E9D757
:1016F0004CC44DF404014B5104014D5F4D51006E3B
:1017000000044D6FE86AE4CF07F0E4CF06F0E4CFC1
:1017100005F0E4CF04F0E4CF03F0E4CF02F0E4CF2F
:1017200001F0E4CF00F0E4CFD9FF1200D9CFE5FFFC
:10173000E1CFD9FF00C0E5FF01C0E5FF02C0E5FF32
:1017400003C0E5FF04C0E5FF05C0E5FF06C0E5FFF7
:10175000020EDBCF00F0030EDBCF01F0040EDBCF77
:1017600002F0050EDBCF03F0D88001AED890046AFA
:101770000436045007E0011C066E001C056E054A85
:10178000062A04D000C005F001C006F0D88003AEE0
:10179000D89007E3031C016E021C006E004A012A68
:1017A00004D002C000F003C001F00150E56E00500B
:1017B000E56E0650E56E0550E56E9AEC0DF0006E94
:1017C000F3CF01F0040EE12604500AE0011C036E81
:1017D000001C026E024A032A03C0F3FF025003D02A
:1017E00001C0F3FF0050E4CF06F0E4CF05F0E4CFF2
:1017F00004F0E4CF03F0E4CF02F0E4CF01F0E4CF53
:1018000000F0E4CFD9FF1200D9CFE5FFE1CFD9FF37
:1018100000C0E5FF01C0E5FF02C0E5FF03C0E5FF32
:1018200004C0E5FF05C0E5FF020EDBCF00F0030EAC
:10183000DBCF01F0040EDBCF02F0050EDBCF03F0AF
:1018400090C404F091C405F00401903F01D0912BA5
:101850000350E56E0450E56EA7EC14F0E652E65234
:1018600090C404F091C405F00401903F01D0912B85
:101870000250056EE56E0450E56EA7EC14F0E652DA
:10188000E65290C404F091C405F00401903F01D0E9
:10189000912B0150E56E0450E56EA7EC14F0E65272
:1018A000E65290C404F091C405F00401903F01D0C9
:1018B000912B0050E56E0450E56EA7EC14F0E65253
:1018C000E652E4CF05F0E4CF04F0E4CF03F0E4CF38
:1018D00002F0E4CF01F0E4CF00F0E4CFD9FF120032
:1018E000D9CFE5FFE1CFD9FF00C0E5FF01C0E5FF9B
:1018F00002C0E5FF03C0E5FF04C0E5FF05C0E5FF4A
:1019000006C0E5FF020EDBCF00F0030EDBCF01F0D7
:10191000040EDBCF02F00F012E5119E1EAEC08F0C2
:10192000036EF3CF04F0F4CF05F0E9CF06F003C067
:10193000E5FF04C0F4FF05C0F6FF06C0F7FF00C0D6
:10194000E9FF01C0F3FF0250C8EC16F01ED00F01F2
:101950002E51010A1AE100C0E9FF01C0F3FF025055
:10196000ECEC14F0006EF3CF01F0F4CF02F0E9CF0D
:1019700003F00350E56E0250E56E0150E56E005035
:10198000E56E04EC0CF0040EE126E4CF06F0E4CFA3
:1019900005F0E4CF04F0E4CF03F0E4CF02F0E4CFAD
:1019A00001F0E4CF00F0E4CFD9FF1200D9CFE5FF7A
:1019B000E1CFD9FF00C0E5FF01C0E5FF02C0E5FFB0
:1019C00003C0E5FF04C0E5FF05C0E5FF06C0E5FF75
:1019D000020EDBCF00F0030EDBCF01F0040EDBCFF5
:1019E00002F0050EDBCF03F0060EDBCF04F0070E8E
:1019F000DBCF05F0080EDBCF06F0D88003AED89021
:101A000015E306500A0A12E104C0E9FF05C0EAFF27
:101A10002D0EEF6E044A052A031E021E011E006CE5
:101A200005E1012A03E1022AD8B4032A0650E56E33
:101A30000550E56E0450E56E0350E56E0250E56E0C
:101A40000150E56E0050E56E2FEC05F0070EE12623
:101A5000E4CF06F0E4CF05F0E4CF04F0E4CF03F0E8
:101A6000E4CF02F0E4CF01F0E4CF00F0E4CFD9FFFF
:101A7000120000C0E5FF01C0E5FF02C0E5FF03C0A2
:101A8000E5FF04C0E5FF04013A51006E140E002684
:101A9000E56A0050E56E9FEC0EF0006EF3CF01F0AA
:101AA000E652E6523A51020DF3CF02F0022A022A20
:101AB000036A02BE03683B0E0226040E0322015095
:101AC000046E02C0E9FF03C0EAFF04C0EFFF3A5111
:101AD000020DF3CF02F0030E0226036A02BE036872
:101AE0003B0E0226040E032202C0E9FF03C0EAFFF8
:101AF00000C0EFFF3A2B3A51050A11E104013A6B9D
:101B00000A0E0401476F0D0EE56E800EE56E040EA1
:101B1000E56E3B0EE56E15EC0BF0040EE126E4CF0E
:101B200004F0E4CF03F0E4CF02F0E4CF01F0E4CF1F
:101B300000F01200D9CFE5FFE1CFD9FF00C0E5FFEB
:101B400001C0E5FF02C0E5FF03C0E5FF04C0E5FFFB
:101B500005C0E5FF06C0E5FF020EDBCF00F0030E77
:101B6000DBCF01F0040EDBCF02F0050EDBCF03F07C
:101B7000046A056A0350800BE844066E065011E1C2
:101B80000250022603360350015C02E10250005C61
:101B900004E2D8900332023204D0052A05C004F0D2
:101BA000E9D70350015C02E10250005C04E30250FB
:101BB000005E0350015AD8900332023204C005F08F
:101BC00004060550EEE101C0F3FF0050E4CF06F03B
:101BD000E4CF05F0E4CF04F0E4CF03F0E4CF02F06B
:101BE000E4CF01F0E4CF00F0E4CFD9FF1200D9CF69
:101BF000E5FFE1CFD9FF00C0E5FF01C0E5FF02C06E
:101C0000E5FF03C0E5FF020EDBCF00F0030EDBCFE4
:101C100001F0040EDBCF02F000C0E9FF01C0F3FFCA
:101C20000250D9EC16F0036E035029E0C6A610D07E
:101C30000350E56E2BEC15F0036EE652035002E004
:101C4000FD0E1ED023EC12F0C5AC14D0FE0E18D041
:101C50009E9600C0E9FF01C0F3FF0250D9EC16F0D8
:101C6000C96EC6889EA6FED7C7B404D0C7B002D03E
:101C7000FE0E06D0002AD0E3014A022ACDD7E86A38
:101C8000E4CF03F0E4CF02F0E4CF01F0E4CF00F0C2
:101C9000E4CFD9FF1200D9CFE5FFE1CFD9FF00C0D3
:101CA000E5FF01C0E5FF02C0E5FF03C0E5FF04C09A
:101CB000E5FF05C0E5FF020EDBCF00F0030EDBCF32
:101CC00001F0040EDBCF02F0050EDBCF03F0046A57
:101CD00003C005F00306055022E035EC14F0056E54
:101CE00005C0E5FF00C0E9FF01C0F3FF02505FEC53
:101CF00017F0002A02E3014A022A04C005F0C5A633
:101D0000E7D7A1A602D0E8680BD0052A05C004F0E9
:101D10000350F5E0CBEC14F0C5B8FED7F0D7045073
:101D2000E4CF05F0E4CF04F0E4CF03F0E4CF02F019
:101D3000E4CF01F0E4CF00F0E4CFD9FF1200D9CF17
:101D4000E5FFE1CFD9FF00C0E5FF01C0E5FF02C01C
:101D5000E5FF03C0E5FF04C0E5FF05C0E5FF020E97
:101D6000DBCF00F0030EDBCF01F0E56A0050E56E3B
:101D70005DEC12F0E652E6520150E56E2BEC15F0E8
:101D8000E652A2EC17F0010EE56E0050E56E5DEC38
:101D900012F0E652E65235EC14F0006E016ACBEC1C
:101DA00014F035EC14F0056E046A0050026E015018
:101DB000036E0250041203500512A2EC17F005C086
:101DC000F3FF0450E4CF05F0E4CF04F0E4CF03F0D8
:101DD000E4CF02F0E4CF01F0E4CF00F0E4CFD9FF8C
:101DE000120000C0E5FF01C0E5FF02C0E5FF03C02F
:101DF000E5FF34CF00F0016A5BC402F0036A0250D1
:101E0000005E0350015AE56A800EE56E0150E56EF2
:101E10000050E56E96EC0BF0006E040EE126000615
:101E20005BC401F0430E5DEC13F0200E5DEC13F08B
:101E3000005020E0600E0124026E036A000E0322AF
:101E400002C0E9FF03C0EAFFEFCF02F0E56A0250EB
:101E5000E56E000EE56E2E0EE56E260EE56E7AEC52
:101E600010F0050EE126012A0150800A01E1016A05
:101E70000006DED7E4CF03F0E4CF02F0E4CF01F0B8
:101E8000E4CF00F01200D8CFE5FFE0CFE5FFE56E2C
:101E9000F3CFE5FFF4CFE5FFE9CFE5FFEACFE5FFBC
:101EA000FACFE5FFFBCFE5FF00C0E5FF01C0E5FF8E
:101EB000040149510401366F04014A510401376F8E
:101EC000D650346FD750356FF2A417D049C400F004
:101ED0004AC401F00050010F0401496F000E0120B7
:101EE0004A6FF29449510401366F04014A510401CA
:101EF000376FD650346FD750356FE4CF01F0E4CF51
:101F000000F0E4CFFBFFE4CFFAFFE4CFEAFFE4CF39
:101F1000E9FFE4CFF4FFE4CFF3FFE450E4CFE0FFC8
:101F2000E4CFD8FF1000D9CFE5FFE1CFD9FF00C043
:101F3000E5FF01C0E5FF02C0E5FF03C0E5FF04C007
:101F4000E5FF020EDBCF00F0030EDBCF01F0040E45
:101F5000DBCF02F00F012E5111E1C7EC12F0036E3E
:101F6000F3CF04F003C0E5FF04C0F4FF00C0E9FFB5
:101F700001C0F3FF025030EC17F016D00F012E51C4
:101F8000010A12E100C0E9FF01C0F3FF025063EC57
:101F900016F0006EF3CF01F00150E56E0050E56ED3
:101FA000F9EC10F0E652E652E4CF04F0E4CF03F08F
:101FB000E4CF02F0E4CF01F0E4CF00F0E4CFD9FFAA
:101FC0001200140EF66E2F0EF76E000EF86E09005A
:101FD000F550056E0900F550066E04E1056702D064
:101FE0002EEF10F00900F550006E0900F550016E5B
:101FF0000900F550026E09000900F550E96E09006C
:10200000F550EA6E090009000900F550036E090059
:10201000F550046E09000900F6CF07F0F7CF08F07D
:10202000F8CF09F000C0F6FF01C0F7FF02C0F8FFCB
:10203000035002E1045007E00900F550EE6E03067C
:10204000F8E20406F9D707C0F6FF08C0F7FF09C099
:10205000F8FF050601E20606EDEF0FF0120000C0E2
:10206000E5FF01C0E5FF02C0E5FF03C0E5FFCAECE4
:1020700007F0BAEC13F0006EF3CF01F0F4CF02F0EA
:10208000E9CF03F004013051005E3151015A325161
:10209000025A3351035A039E3F0E035C08E1FF0EC0
:1020A000025C05E1FF0E015C02E1FF0E005C19E23B
:1020B000BAEC13F0F3CF01F0F4CF02F0E9CF03F064
:1020C000D00F0401306F070E0120316F000E022087
:1020D000326F000E0320336F04013951D8A439EC5C
:1020E0000DF0E4CF03F0E4CF02F0E4CF01F0E4CF51
:1020F00000F01200D9CFE5FFE1CFD9FF00C0E5FF26
:1021000001C0E5FF02C0E5FF020ED924006E000EFB
:10211000DA20016E800E026E030E0026000E0122F0
:1021200002220250E56E0150E56E0050E56E040E8D
:10213000DBCFE5FF030EDBCFE5FF020EDBCFE5FFD4
:1021400004018751E56E8651E56E8551E56E0EEC12
:1021500000F0006EF3CF01F0090EE12601C0F3FF9D
:102160000050E4CF02F0E4CF01F0E4CF00F0E4CF80
:10217000D9FF1200D9CFE5FFE1CFD9FF00C0E5FFBD
:1021800001C0E5FF02C0E5FF03C0E5FF020EDBCFA3
:1021900000F0030EDBCF01F0040EDBCF02F00F01E5
:1021A0002E510DE137EC16F0036E03C0E5FF00C0C1
:1021B000E9FF01C0F3FF02505FEC17F00FD00F01F1
:1021C0002E51010A0BE100C0E9FF01C0F3FF0250EC
:1021D000D9EC16F0E56E5CEC14F0E652E4CF03F0B7
:1021E000E4CF02F0E4CF01F0E4CF00F0E4CFD9FF78
:1021F0001200D9CFE5FFE1CFD9FF00C0E5FF01C054
:10220000E5FF02C0E5FF03C0E5FF020EDBCF00F0F3
:10221000030EDBCF01F090C402F091C403F004017F
:10222000903F01D0912B0150E56E0250E56EA7EC76
:1022300014F0E652E65290C402F091C403F0040197
:10224000903F01D0912B0050E56E0250E56EA7EC57
:1022500014F0E652E652E4CF03F0E4CF02F0E4CF0C
:1022600001F0E4CF00F0E4CFD9FF120000C0E5FF99
:1022700001C0E5FF02C0E5FFE4EC13F0006EE4EC02
:1022800013F0016ED00E00260A0E005C05E300502C
:10229000026EF90E0224006ED00E01260A0E015CB9
:1022A00005E30150026EF90E0224016E080E005C77
:1022B00012E2100E015CD8B00ED00038F00B0124F1
:1022C000006EE9EC11F0016E015005E10050E56E81
:1022D000D9EC15F0E652E4CF02F0E4CF01F0E4CF00
:1022E00000F01200D9CFE5FFE1CFD9FF00C0E5FF34
:1022F00001C0E5FF02C0E5FF03C0E5FF04C0E5FF44
:10230000020EDBCF00F04BC401F0026A014A022A40
:102310004CC403F0046A0150031803E1025004188E
:1023200001E001D00ED0000E04014B25016E026ABF
:10233000010E022201C0E9FF02C0EAFF00C0EFFF68
:102340004B2BE4CF04F0E4CF03F0E4CF02F0E4CF72
:1023500001F0E4CF00F0E4CFD9FF1200D9CFE5FFC0
:10236000E1CFD9FF00C0E5FF01C0E5FF02C0E5FFF6
:1023700003C0E5FF020EDBCF00F0016A5BC402F090
:10238000036A0250002603500122E56A800EE56EC2
:102390000150E56E0050E56E96EC0BF0006EF3CF49
:1023A00001F0040EE126600E0026000E012200C09E
:1023B000E9FF01C0EAFFEFCF00F00050E4CF03F0E7
:1023C000E4CF02F0E4CF01F0E4CF00F0E4CFD9FF96
:1023D000120000C0E5FF01C0E5FF02C0E5FF010EED
:1023E000006EE4EC13F0016E01C002F0015023E036
:1023F0000050E56EF9EC16F0016EE652015010E166
:102400000A0E005C0BE20A0E006EE56EF9EC16F0A7
:10241000016EE652015004E1E8680ED0E8680CD085
:102420000150021802E0E86807D0002A1B0E005C89
:10243000D8E3E86801D0E86AE4CF02F0E4CF01F025
:10244000E4CF00F0120000C0E5FF01C0E5FF02C0CC
:10245000E5FF03C0E5FF04C0E5FF05C0E5FFE80EAA
:10246000006E030E016EFF0E0026012200500110C7
:1024700010E0C5CF02F0036A1F0E0216046AC7B44B
:10248000042A056A04500212055003120250031078
:10249000EAE10401516B005003E1015001E1512BCD
:1024A000E4CF05F0E4CF04F0E4CF03F0E4CF02F092
:1024B000E4CF01F0E4CF00F01200D9CFE5FFE1CF87
:1024C000D9FF00C0E5FF01C0E5FF02C0E5FF020E35
:1024D000DBCF00F0030EDBCF01F04AEC15F0040176
:1024E000515102E0E86816D00044FE0B026E015024
:1024F000D880E866D890016A01360150D880E86635
:10250000D890016A0136015002120250E56E2BECA0
:1025100015F0E652E4CF02F0E4CF01F0E4CF00F092
:10252000E4CFD9FF1200D9CFE5FFE1CFD9FF00C03A
:10253000E5FF01C0E5FF02C0E5FF020EDBCF00F0C2
:10254000030EDBCF01F0040EDBCF02F0E56A005092
:10255000E56E5DEC12F0E652E6520150E56E2BECB2
:1025600015F0E6520250E56E2BEC15F0E652A2ECA7
:1025700017F0E4CF02F0E4CF01F0E4CF00F0E4CFB5
:10258000D9FF1200436C2025642025640A0000C096
:10259000E5FF01C0E5FF02C0E5FF03C0E5FF90C411
:1025A00000F091C401F00401903F01D0912B005044
:1025B000E56EF9EC16F0E652036E026A90C400F084
:1025C00091C401F00401903F01D0912B0050E56EC1
:1025D000F9EC16F0E652016A02120150031203C030
:1025E000F3FF0250E4CF03F0E4CF02F0E4CF01F0B8
:1025F000E4CF00F01200D9CFE5FFE1CFD9FF00C052
:10260000E5FF01C0E5FF020EDBCF00F0030EDBCFDC
:1026100001F0E56A0050E56E5DEC12F0E652E6521C
:102620000150E56E2BEC15F0E652A2EC17F0010E0E
:10263000E56E0050E56E5DEC12F0E652E65235ECC8
:1026400014F0006EA2EC17F00050E4CF01F0E4CFDC
:1026500000F0E4CFD9FF120004014B6B04014C6B76
:1026600004014D6994808B909480B06A3F0EAF6EE8
:10267000B886AC8AAC84AC8CAC90AB8CAB8E0F01C2
:10268000366B0F01306B0F01336B0F01346B0F0191
:10269000356B000EE56AF9EC16F004014F6FE65257
:1026A0009F989F9A010E04014E6F0401856B866B03
:1026B0002F0E876F07EC17F0120000C0E5FF01C076
:1026C000E5FF02C0E5FF006E000E04015025016E1B
:1026D000026A0F0E022201C0E9FF02C0EAFF00C039
:1026E000EFFF220E505DD8A0502B00500A0A0EE1D9
:1026F00004015051E56E800EE56E0F0EE56E000E82
:10270000E56E15EC0BF0040EE126506BE4CF02F001
:10271000E4CF01F0E4CF00F0120001C0E5FF02C0F9
:10272000E5FF03C0E5FF9DEC17F094928B92BAECA5
:1027300013F0F3CF01F0F4CF02F0E9CF03F0500F24
:102740000401306FC30E0120316F000E0220326F82
:10275000000E0320336FE568E56A080EE56E39EC7C
:1027600007F0030EE126E4CF03F0E4CF02F0E4CF5C
:1027700001F01200040149510401836F04014A5120
:102780000401846FD650816FD750826F835104014A
:10279000491905E10401845104014A190CE00401BE
:1027A00049510401836F04014A510401846FD650DA
:1027B000816FD750826F84C4E9FF83C4F4FF82C461
:1027C000F3FF04018151120000C0E5FF01C0E5FFE5
:1027D0000F0134510401591905E00F0134510F0163
:1027E000331902E1E86A15D034CF00F00F01342B21
:1027F000016A600E0026000E012200C0E9FF01C040
:10280000EAFFEFCF00F03451800A02E10F01346B90
:102810000050E4CF01F0E4CF00F0120000C0E5FF6B
:10282000AAEC17F00401896B806B8983006A89B375
:10283000002A0050010BE844F46E8051FD0BF410A7
:10284000806FD58ED59CD59AD588D596D594D582CE
:10285000D580F28AF184D08EF28EF28CBA80FF0E8F
:10286000BB68BA84E4CF00F0120000C0E5FF01C0ED
:10287000E5FF02C0E5FF23EC12F0C586E80E006E0E
:10288000030E016EFF0E002601220050011005E02C
:1028900097EC17F0026E0250F5E00401516B005006
:1028A00003E1015001E1512BC950E4CF02F0E4CF24
:1028B00001F0E4CF00F01200D9CFE5FFE1CFD9FF5E
:1028C00000C0E5FF01C0E5FF02C0E5FF020EDBCF5F
:1028D00000F090C401F091C402F00401903F01D0D7
:1028E000912B0050E56E0150E56EA7EC14F0E65216
:1028F000E652E4CF02F0E4CF01F0E4CF00F0E4CF01
:10290000D9FF1200D8CFE5FFE0CFE5FFE56EF3CFAA
:10291000E5FFF4CFE5FFE9CFE5FFEACFE5FFFACF2A
:10292000E5FFFBCFE5FF0EEC04F0E4CFFBFFE4CFC7
:10293000FAFFE4CFEAFFE4CFE9FFE4CFF4FFE4CF0E
:10294000F3FFE450E4CFE0FFE4CFD8FF1000D9CF8D
:10295000E5FFE1CFD9FF00C0E5FF020EDBCF00F0BD
:10296000030EDBCFA8FF00C0A9FFA69EA69CA684ED
:10297000F29EF29C550EA76EAA0EA76EA682A6A284
:1029800002D00000FCD7A694F28EF28CE4CF00F0C7
:10299000E4CFD9FF120000C0E5FF01C0E5FF23EC42
:1029A00012F09E96C59AC588E80E006E030E016E61
:1029B000FF0E002601220050011002E09EA6F8D76B
:1029C0000401516B005003E1015001E1512BE4CFB0
:1029D00001F0E4CF00F01200E8AE0AD0F3CFEAFF36
:1029E000EE50EECFF3FFEECFF4FFEECFE9FF120093
:1029F000E8BCBFEF17F0E9CFF6FFF3CFF7FFF86EB3
:102A00000900F5500900F5CFF3FF0900F5CFF4FFF9
:102A10000900F5CFE9FF120000C0E5FF01C0E5FFA6
:102A200004014B5104014C1902E1E86A0FD0000E79
:102A300004014C25006E016A010E012200C0E9FF6D
:102A400001C0EAFFEFCF00F04C2B0050E4CF01F0C3
:102A5000E4CF00F01200D9CFE5FFE1CFD9FF00C0ED
:102A6000E5FF020EDBCF00F0C69E00C0C9FFC6AE78
:102A700002D0E8680AD023EC12F0C5BC03D00401F0
:102A8000515102E0E86801D0E86AE4CF00F0E4CFF9
:102A9000D9FF120000C0E5FF01C0E5FF23EC12F0F2
:102AA000C580E80E006E030E016EFF0E00260122A7
:102AB0000050011002E0C5B0F8D70401516B00507E
:102AC00003E1015001E1512BE4CF01F0E4CF00F02C
:102AD0001200F2CFEAFFF29EA69EA69CA684E9CF42
:102AE000A9FFF3CFAAFFE4CFA8FF6AEC17F0F4CF59
:102AF000A8FF6AEC17F0F6CFA8FF6AEC17F0F7CF43
:102B0000A8FF6AEC17F0A694EABEF28E1200F2CF8C
:102B1000F6FFF29EA69EA69CE9CFA9FFF3CFAAFFDF
:102B2000A680A850A94AAA2AA680A8CFF3FFA94A3E
:102B3000AA2AA680A8CFF4FFA94AAA2AA680A8CFCD
:102B4000EAFFF6BEF28E1200E8AE08D0F3CFEAFF3D
:102B5000EE50EECFF3FFEECFF4FF1200E8BCC7EF6C
:102B600017F0E9CFF6FFF3CFF7FFF86E0900F55045
:102B70000900F5CFF3FF0900F5CFF4FF1200F2CF03
:102B8000EAFFF29EA69EA69CA684E9CFA9FFF3CFFA
:102B9000AAFFE4CFA8FF6AEC17F0F4CFA8FF6AEC15
:102BA00017F0F6CFA8FF6AEC17F0A694EABEF28EF3
:102BB0001200D9CFE5FFE1CFD9FF00C0E5FF020E3B
:102BC000DBCF00F000C04FF40050E56E000EE56A68
:102BD000A7EC14F0E652E652E4CF00F0E4CFD9FFC0
:102BE0001200F2CFF6FFF29EA69EA69CE9CFA9FFA7
:102BF000F3CFAAFFA680A850A94AAA2AA680A8CFE8
:102C0000F3FFA94AAA2AA680A8CFF4FFF6BEF28E47
:102C1000120000C0E5FF01C0E5FF600E0F01342582
:102C2000006E016A000E012200C0E9FF01C0EAFF48
:102C3000EFCF00F00050E4CF01F0E4CF00F012003D
:102C4000D9CFE5FFE1CFD9FF00C0E5FF020EDBCF12
:102C500000F0610E005C05E37B0E005C02E2010EF9
:102C600001D0E86AE4CF00F0E4CFD9FF120000C041
:102C7000E5FF01C0E5FF90C400F091C401F004013C
:102C8000903F01D0912B0050E56EF9EC16F0E65222
:102C9000E4CF01F0E4CF00F01200D9CFE5FFE1CF9F
:102CA000D9FF00C0E5FF020EDBCF00F000C04EF4FC
:102CB000005004E107EC17F09D9A9D98E4CF00F0D6
:102CC000E4CFD9FF1200E8AE06D0F3CFEAFFEE5012
:102CD000EECFF3FF1200E8BCBDEF17F0E9CFF6FF2F
:102CE000F3CFF7FFF86E0900F5500900F5CFF3FFB9
:102CF0001200F2CFEAFFF29EA69EA69CA684E9CF20
:102D0000A9FFF3CFAAFFE4CFA8FF6AEC17F0F4CF36
:102D1000A8FF6AEC17F0A694EABEF28E120012EE3B
:102D2000FFF022EEFFF0F86AA68EA69CE9680E0E70
:102D3000EA6E0068000EED6A0050FDE1E1EC0FF074
:102D400006EC00F0FFD7F2CFF6FFF29EA69EA69CFF
:102D5000E9CFA9FFF3CFAAFFA680A850A94AAA2AC3
:102D6000A680A8CFF3FFF6BEF28E1200F2CFEAFFE4
:102D7000F29EA69EA69CA684E9CFA9FFF3CFAAFF48
:102D8000E4CFA8FF6AEC17F0A694EABEF28E120018
:102D9000E8AE0BD0F3CFEAFFE4CFEEFFF4CFEEFFC7
:102DA000F6CFEEFFF7CFEEFF1200E8BCC1EF17F051
:102DB0001200E8AE04D0F3CFEAFFEE501200E8BCF8
:102DC000BBEF17F0E9CFF6FFF3CFF7FFF86E09007E
:102DD000F5501200E8AE09D0F3CFEAFFE4CFEEFFE2
:102DE000F4CFEEFFF6CFEEFF1200E8BCC9EF17F00C
:102DF0001200D9CFE5FFE1CFD9FF020EDBCFA9FF4B
:102E0000A69CA69EA680A850E4CFD9FF1200ACA233
:102E1000FED79480AE500000AE50AB98AB88AB8626
:102E20009D8A9D98120025642000F2CFF6FFF29E45
:102E3000A69EA69CE9CFA9FFF3CFAAFFA680A85023
:102E4000F6BEF28E12000100420A000000000000EF
:102E500000000000000000000000FF000000000073
:102E6000E8AE07D0F3CFEAFFE4CFEEFFF4CFEEFFFA
:102E70001200E8BCC5EF17F01200E4EC13F04C0AA6
:102E800007E1E4EC13F0300A02E08B8201D08B9270
:102E90001200700ED36E9B8CFF0E9268936894683C
:102EA0009668626AF19E120000C0E5FFE9EC11F03D
:102EB000006E005001E1FF00E4CF00F01200E8AE28
:102EC00005D0F3CFEAFFE4CFEEFF1200E8BCC3EF7A
:102ED00017F01200550EA76EAA0EA76EA682A6B214
:102EE000FED7A94AAA2A010E0F012E6F1C0E04015B
:102EF000906F916B120023EC12F09E96C58AC588E4
:102F00009EA6FED712000F012E6B1C0E0401906FBF
:102F1000916B12000100462E0000390400001A00D7
:102F2000000023EC12F0C582C5B2FED71200C7A084
:102F300002D0010E01D0E86A12000EEC14F02CEC65
:102F400013F0120023EC12F0C5841200ACA2FED7DD
:102F5000AD6E120049EC17F012000F01345112004F
:102F600004015A51120004014E511200E8CF7FFFB4
:102F70001200C96E120015EF17F0A3EF16F087EFDD
:102F800015F069EF15F0B6EF16F079EF16F0F1EFE6
:062F900015F0BFEF15F083
:020000040030CA
:010006008574
:00000001FF
