:020000041000EA
:1090000000200420F7900010C3900010C5900010BD
:10901000C1900010C1900010C1900010C1900010CC
:10902000C1900010C1900010C1900010C7900010B6
:10903000C1900010C1900010C9900010CB9000109A
:10904000CD900010CD900010CD900010CD9000106C
:10905000CD900010CD900010CD900010CD9000105C
:10906000CD900010CD900010CD900010CD9000104C
:10907000CD900010CD900010CD900010CD9000103C
:10908000CD900010CD900010CD900010CD9000102C
:10909000CD900010CD900010CD900010CD9000101C
:1090A000CD900010CD900010CD900010CD9000100C
:1090B000CD900010CD900010CD900010CD900010FC
:1090C00000BE00BE00BE00BE00BE00BEEFF30580C5
:1090D000103800BEF2EB8871CC250110EC25011090
:1090E0003491001090A31AE700201F49086006C8B9
:1090F00081F3088810471D48006800282FD10DA46F
:109100000ECC002902D000F012F8F9E71849194AEC
:10911000002000E001C19142FCD11749884717495E
:1091200088471749884700BEFDE701C901C29A4236
:10913000FBD37047EC250110C00000200010002078
:109140002C35011000000420000004202C350110F3
:10915000001004200010042000000000704709489F
:1091600003F0A6FA0047000008ED00E0000000D080
:10917000001000205C280020B1AD0010151C01106B
:10918000A5AE00105756000006005250ABB3605316
:10919000381F011006005250861C0302481F0110A0
:1091A000060052505422A29D541F01100500525037
:1091B000DE65F4682C350110F8B5C046064807494D
:1091C000091A8B10C90FC91810B5491003D0044BE8
:1091D000002B00D0984710BD001000200010002088
:1091E00000000000054B10B5002B03D004490548D2
:1091F00000E000BFFFF7E2FF10BDC0460000000026
:109200009C230020781E0110F8B51E4C1E4B61688F
:109210005A6A2068914226D89B6A834224D301214E
:109220001A4A13784B40137026D0D02380221B0695
:1092300092045A61164B1D6801F0ACF8FA22060040
:109240000F00002392002800002104F0A3F88019E9
:1092500079410B008021020009068B4202D30122D2
:109260000C4B52420CC4F8BD9142FCD00121074A7C
:1092700013784B401370D8D1D02380221B06920460
:109280009A61D7E730110020004005404C280020AB
:10929000F80E0020FFFFFF7FF8B5037805000E00F1
:1092A000012B06D142780C4993009B185B000B60A0
:1092B000F8BD0A4808F018F8002E08D00024084F1E
:1092C000295D3800013408F00FF8B442F8DB0A20B9
:1092D00007F0F0FFECE7C046F80E0020781E011002
:1092E000801E011010B50378452B00D010BD411C25
:1092F000014807F0F9FFF9E7841E0110094A10B58B
:1093000094464024830063441A68C000624080345D
:1093100014408022520113431C60034B9C4660445E
:10932000416010BD04C0014000400140074B800077
:109330009C4660440368C90092000A435A400C23CB
:109340001A4080235B0103431A60704704C0014048
:109350000123D0228340120693629361094A40217F
:109360009446830063441A68C0004A40803111402B
:109370008022520113431960034B9C46052360442D
:109380004360704704C0014000400140024B186830
:109390008007C00F7047C04600C00640EFF3108042
:1093A00072B6034A1368002BFCD0BFF35F8F70477F
:1093B0002C0100D0BFF35F8F0022024B1A6080F3B4
:1093C000108870472C0100D070B5EFF3108C72B686
:1093D0000D4D2B68002BFCD0BFF35F8F0724CB080B
:1093E000C618C05C01230C40A3401C00044003428B
:1093F00007D118433070BFF35F8F2C608CF3108857
:1094000070BD100001F052FD2C0100D0F8B54746A8
:10941000CE46884680B5EFF3108C72B6214D2C688D
:10942000002CFCD0BFF35F8F9A422CD8D4080727BA
:10943000055D061901241740BC402C421FD00721AE
:109440000127894609E0D408055D06194C46390014
:109450001440A1400C00294211D001329342F2D2B3
:1094600001204042BFF35F8F00220E4B1A608CF345
:10947000108800280FDBC0BCB946B046F8BD2543B4
:1094800010003570EEE7BFF35F8F00232B608CF385
:109490001088012040424346002BECD0089801F090
:1094A00005FDC0462C0100D00021044B044ABFF347
:1094B0005F8F02C39342FAD17047C046000100D0CB
:1094C000800100D0044A1078431CDBB2172B00D96E
:1094D000102313707047C046FC0E002010B5064BD9
:1094E000064C82B00100009318221F232000FFF7D2
:1094F0008DFF02B010BDC0468C1E0110AC180020BC
:1095000001238340002904D0034A1360034A1360F7
:109510007047034A1360FBE780E200E000E100E0EF
:1095200080E100E001238340014A13607047C04698
:1095300000E200E0084B10309B688000C358002B0D
:1095400007D0064A00209B1A2F229A424041C0B2FF
:1095500070470020FCE7C04600ED00E0000F00204F
:10956000024B10309B688000C058704700ED00E04F
:1095700070B50D00EFF3108672B60F4A1368002B1A
:10958000FCD0BFF35F8F0D4B10309B6884001B59DC
:109590000B4A934203D09D4201D001F09FFC074B40
:1095A0009B681D51BFF35F8FBFF35F8F0022024B9B
:1095B0001A6086F3108870BD240100D000ED00E031
:1095C000CD900010EFF3108172B60E4B1A68002A8E
:1095D000FCD0BFF35F8F0C4A103092688000805837
:1095E000BFF35F8F00221A6081F31088074B984207
:1095F00006D02F23064A821A93429B411840704797
:109600000020FCE7240100D000ED00E0CD90001028
:10961000000F0020F0B557464E46DE464546E0B501
:1096200085B0060000911700EFF3108B72B66A4AFE
:109630001368002BFCD0BFF35F8F0025674B5D578D
:109640009A46002D00DAA9E06B00654C01935B1986
:109650009B009846A146C1444B4652469B79103622
:109660001370604BB6009B6899590B1B2F2B33D995
:109670005D4B994200D0ACE0019B42469C465B4B5F
:109680006544AD0063535A4B0232A218043B9B1A47
:109690001B05584A5B0D651913436B80564B01211E
:1096A000AB80FF23AB71009BEF71AB604B460B436C
:1096B00019004C4B9B689951BFF35F8FBFF35F8FCD
:1096C0000022454B1A608BF3108805B0F0BCBB46F6
:1096D000B246A946A046F0BD01200A008243D379D4
:1096E0008C46BB4231D84546130044491B1B5B41A5
:1096F0005943090D3D4B63533D4B02356519043BFE
:109700005B1B1B053B4D5B0D2B43AA464D466B80F7
:109710000425AC465546E044131F44441B1B1B055F
:109720005B0D1D434B46997100999D809960494698
:10973000DF71334B01431360BBE75800C018800052
:109740002018C179B9422FD902000623D356002B25
:10975000F3DA02932B4B61460393131D9A460423BD
:109760005B429C46E14450464B461B1A1B055B0D71
:109770009C46204B95719846634640460343938030
:10978000019B5A199200039BA418A380029B1C4AB8
:10979000A371009B2260E771A3608AE701F09EFB42
:1097A000002553465D574FE7908802934005131DEF
:1097B0009A46031561469C464046D44463460430AD
:1097C0002018181AE0230005400D1B0218430390CF
:1097D000C5E701F083FB4FE7240100D048280020B3
:1097E000000F002000ED00E0CD90001000A1FFFF71
:1097F000300F002000E0FFFF01BDFFFFAAAA00001C
:109800000148804701BD0000F0B5DE4657464E4690
:109810004546E0B50C0083B0EFF3108872B65D4AA0
:109820001368002BFCD0BFF35F8F5B4B5B499A68DA
:10983000030010339F00D5598D4239D0A5424AD03C
:10984000574EAA1B2F2A33D80122924682409146B6
:109850004846544A1268104001904846524A1060E7
:10986000BFF35F8FEFF305829346002A35D0934212
:1098700001D001F033FB2A0053469A43906884429A
:1098800008D175E04B005B189B00F3189868A04264
:1098900034D01A00062151560029F3DA844253D0FD
:1098A000019B002B26D04A46404B1A603D4B1A6064
:1098B000394B9B68DD51BFF35F8FBFF35F8F002291
:1098C000344B1A6088F3108803B0F0BCBB46B24634
:1098D000A946A046F0BD0D00EAE72A0053469A4388
:1098E00090688442D6D1062010561300002809DA69
:1098F0000D0031E04A462C4B1A60D9E70620185675
:10990000002822DB42001118890074188A46A168D9
:109910009960E179D971062161569971002925DB99
:10992000A488F11A6405241554440919E024090592
:10993000490D24022143998013181D4A9B00117878
:10994000F31899711070ABE713005946002914D130
:10995000FF3191711749918015490A789A71164A19
:109960009B1B5B415A43120D0A7099E71349E2E7CA
:109970000620105613000028C4DA114A1149D21AE1
:10998000083A5002400D014399800F4952080A439A
:10999000DA8085E7240100D000ED00E0CD900010D2
:1099A000000F002000E100E080E100E080E200E044
:1099B0004828002001BDFFFFAAAA000001BD000049
:1099C0003A0F002000F0FFFF00F8FFFF70B5EFF343
:1099D000058101240443EFF3108C72B6214A136809
:1099E000002BFCD0BFF35F8F1F4B05001F4AED1A01
:1099F0006D416A43120D1E4D8900AE6852B2765811
:109A0000A6421CD00621595691421CD0122159560B
:109A1000914222D01E215956914220D02A215956D6
:109A20000324914210D0134B19781A708171BFF33F
:109A30005F8F00220B4B1A608CF3108870BDAB68EF
:109A40000D4C5C50EFE700246100091989005B1898
:109A5000FF21997109499980E5E70124F4E702247F
:109A6000F2E7C046240100D0000F0020AAAA00009F
:109A700000ED00E048280020CD90001001BDFFFF60
:109A8000054B064A1360064A136053609360D36027
:109A900013615361936170478080808000E400E02F
:109AA00004E400E010B5084B084C82B001000093BC
:109AB000002205232000FFF7A9FC002801DB1F235B
:109AC000181A02B010BDC046A81E01105A28002066
:109AD000024B9C466144890001607047400000349D
:109AE00010B50400FFF7EEFC01002000FFF7F0FFC7
:109AF000FF232371BFF35F8F10BDC04610B5040074
:109B0000FFF7E0FC01002000FFF7E2FFFF23A38046
:109B1000BFF35F8F10BDC04610B504000120FFF7F2
:109B2000DDFC034BC3189B002360BFF35F8F10BDA8
:109B300040000034034B9C46614489000160BFF340
:109B40005F8F70474000003483680B4810B584462F
:109B5000614462441201090159189B185C684A6803
:109B60000120944201D802D00020C0B210BD1A6872
:109B70000B689A42F9D8F7E7FFFFFF0F0A4B196805
:109B8000EFF3108072B60A68002AFCD0BFF35F8F33
:109B90001B68BFF35F8F00221A6080F3108840BFFC
:109BA000002000217047C046F8250020F8B5574630
:109BB00045464E46DE46E0B598460CAB1C780DABEC
:109BC0001B78070091469A460568002C59D1AC7B5A
:109BD000002C3BD0660029683619033E89194B7862
:109BE000AB73002B00D1EB7300238B704B700B70A9
:109BF0002D4BE218BB6812019B184A461A60424678
:109C00005A600A9A9A600B9ADA6000238B704B7044
:109C10000B706B7B9B46002B26D022006B6859464D
:109C2000A86898475B465B005B442A68033B0028B2
:109C300012D058469619B070D118D35C002B00D0C2
:109C400073705B460C706B735C450ED0F0BCBB460A
:109C5000B246A946A046F8BDD3189C709119925DF2
:109C6000002A1CD15B460B706C734A464346387D14
:109C700000F024FC051E0AD10E9B002BE6D01D70BF
:109C8000E4E7660029683619033E8919B0E75346B0
:109C9000002BF1D12100386800F028FEECE75A7063
:109CA0005B460B706C73E0E7FFFFFF0FF0B5DE461D
:109CB00057464E4645460023E0B58BB00893684BA7
:109CC0008200D45800239B46099000F063FB0200F9
:109CD0000B006068EFF3108A72B6564601680029DF
:109CE000FCD0B246BFF35F8F21684F7B8C46002FBC
:109CF0002ED0A5685B49A9467918090189444946CF
:109D00000868496805000E00AD1A9E41002E5FDD0F
:109D100002000B00099800F0D1FB002300229946B5
:109D2000002306920793002398466368BFF35F8F72
:109D30005A461A608AF310884346002B12D1002835
:109D4000C3D10BB0F0BCBB46B246A946A046F0BD9D
:109D50000023002299460023069207930023002047
:109D60009846E2E7089B494618023843C0476268B4
:109D700005000E00EFF3108A72B61368002BFCD0BA
:109D8000BFF35F8F002E41DB2B00334302D02369EA
:109D9000002B56D12368D97B002905D01A684800CA
:109DA00041185218033A57709A7B002A00D19F73CA
:109DB000DF73E268013FD35D0133D3555B46236116
:109DC0006368BFF35F8F5A461A608AF310887CE796
:109DD000002E02D1002D00D09AE70021604600F04D
:109DE00003FD4B461A685B68069207934B469B68D7
:109DF00098464B46DB689946E368DB19013B1B78C4
:109E000008931B020343236100208EE72369002B84
:109E1000C0D0069A079B8021521BB34109068B4292
:109E200002D30122104B52420021049101310391CF
:109E3000494601914146200002970091FFF7B6FE86
:109E4000BCE700F0A7FA2A00330012184B4180212A
:109E500009068B42E8D30122034B5242E4E7C04695
:109E6000C8230020FFFFFF0FFFFFFF7F10B5144C3A
:109E70006368002B04D00A211248FFF729FE10BDA9
:109E80002300114A1021206800F0CAFB032000F0D3
:109E900075FA032000F07AFB03200C4900F0C8FAA1
:109EA000FFF710FB0A4B9C4603232375D0231B06A8
:109EB0001B6860446375074B80006060DC60DAE714
:109EC000480F0020F8250020499B0010AD9C001091
:109ED00040000034C823002000487047480F00208D
:109EE000F0B557464E464546DE46E0B585B001938F
:109EF00010AB1B780600039300239A469846009205
:109F00007268EFF3108B72B61368002BFCD0BFF3AE
:109F10005F8F3568AC7B002C00D16EE067002B684A
:109F20003F19033FDB195A78AA73002A00D1EA735C
:109F3000484AA118B26809015218009801991060A6
:109F400051600E9991600F99D16042469A705A7093
:109F50001A706B7B9946002B00D16BE022006B6876
:109F60004946A86898474B465B004B442A68033B28
:109F7000002856D04846D719B870D118D35C002BAA
:109F800000D07B704B460C706B734C4553D0F3681C
:109F90001B19013B18787368BFF35F8F42461A6044
:109FA0008BF310885346002B08D10002204305B0E4
:109FB000F0BCBB46B246A946A046F0BD039B002BB1
:109FC00046D00E9B00200F99984703000B433FD0CB
:109FD00004000D1E1ADA009A019B121BAB4100927D
:109FE000019380221206934204D301231A4C5B4250
:109FF00000930194039B9A4682E77368BFF35F8FD7
:10A000001C608BF3108801204042D0E700F0C2F9B9
:10A010008022001969411206009001919142E9D312
:10A02000E3E7D3189C70D119D25D002A00D05A7092
:10A030004B460B706C73307D009A019B00F03EFA2A
:10A0400082460028A3D02100306800F04FFC9EE734
:10A050000020ACE7FFFFFF0FFFFFFF7FF8B5040014
:10A0600000292FD04268EFF3108572B61368002BD9
:10A07000FCD0BFF35F8FFF222068CFB2437B0A4042
:10A08000BB4213D003685600B6189B19033B9B785C
:10A09000002B0BD12269914216D000206368BFF3D8
:10A0A0005F8F00221A6085F310880CE0E6680B0AC7
:10A0B000B218013A1278DBB29A42EED1390000F0C0
:10A0C00015FCEBE70020F8BD2361E6E7407D704713
:10A0D000F0B504000D0006267642F717C64636197D
:10A0E0006F4100B584B08F4214D811D000F052F9FE
:10A0F00032003B00121A8B41002B15DC002B3ED0A6
:10A100002000290000F084F904B080BCB846F0BDFE
:10A110008642EBD90026002700F03CF932003B00D4
:10A12000121A8B41002BE9DD002302930193154B9A
:10A130003200009314483B00FFF7D2FE0028DFDB1B
:10A1400000239846BC46114A114F7B6A9C4504D8AF
:10A15000B96A8E42D4D99C45D2D11168EFF31080F0
:10A1600072B60B68002BFCD0BFF35F8F1368BFF390
:10A170005F8F4146196080F3108820BFE5E7002A11
:10A18000BED0D1E77D9B0010480F0020F8250020AD
:10A190000040054070B504000D0000F0FBF880237E
:10A1A000001969411B06994202D30120024940422D
:10A1B000FFF78EFF70BDC046FFFFFF7F70B5060042
:10A1C00000F0E8F8FA2204000D000023300000211E
:10A1D000920003F0DFF88023001969411B069942C1
:10A1E00002D3012002494042FFF772FF70BDC04612
:10A1F000FFFFFF7FF0B5EFF30583CE46474680B5FE
:10A2000005000C0085B0002B12D02A4A0020536AAA
:10A21000A34203D3926A0130AA4204D305B0C0BC62
:10A22000B946B046F0BD1B1B5A1E9341D8B2F5E7A4
:10A23000214E02930193214B0200009330000B004A
:10A24000FFF74EFE031EE0DD20BF7168EFF31087BD
:10A2500072B60A68002AFCD0BFF35F8FDAB2944668
:10A26000FF2230681A40417B61450FD00168894662
:10A270005100884649469044414403398978002971
:10A2800004D13269934209D1316107E0F1681B0AB8
:10A290008A18013A1278DBB29A4207D07368BFF38A
:10A2A0005F8F00221A6087F31088AEE7614600F0E6
:10A2B0001DFBF3E700400540480F00207D9B001088
:10A2C000F0B5EFF30582D6464F4646461000C0B5BE
:10A2D0001038EFF3108872B6214C2368002BFCD0A5
:10A2E000BFF35F8F0123190081401E4D1F0069637A
:10A2F000AA461D4D29601D4D2E78AC463500C5403F
:10A300002F402B4215D053465F6A194B8500EB58FE
:10A310009F4218D36246174B8E43EB581670BFF31B
:10A320005F8F0022226088F31088002B06D09847A8
:10A3300004E0BFF35F8F276088F31088E0BCBA4663
:10A34000B146A846F0BD0C4B92009C46624413688F
:10A350001360BFF35F8F0023236088F31088EDE75D
:10A36000280100D0004005403C70054055280020E1
:10A370000826002090170020D03F054010B5034B61
:10A3800001001800024AFFF71FF810BD4428002002
:10A39000C41E0110034B596A0A00986A596A8A421E
:10A3A000FAD170470040054070B504000D00174A0F
:10A3B000536A1900966A536A8B42FAD13000190029
:10A3C00024184D41AB4216D813D0104B2A005B6ABB
:10A3D0009D4203D90D494B6A9342FCD3934207D166
:10A3E0000A4A02E0516A994202D1916AA142F9D324
:10A3F00070BDA642E9D9054B5B6A1C005A1CEFD020
:10A40000012201246442E5175242E3E7004005407F
:10A41000064A536A9942FCD807D1044B02E05A6AB3
:10A42000914202D19A6A8242F9D3704700400540B6
:10A4300070B504000D00EFF3108672B61A4A136867
:10A44000002BFCD0BFF35F8F002D1BD02000FFF747
:10A4500087F8164981420AD02000FFF789F80121C8
:10A460002000FFF74DF80123A340114A1360114B60
:10A47000A400E550BFF35F8F00220B4B1A6086F3F8
:10A48000108870BD0121A1400A4BA200D5500A4B93
:10A4900020001A788A4305491A70FFF7B5F90021A0
:10A4A0002000FFF72DF8E5E7280100D0C1A2001039
:10A4B000386005409017002055280020F0B54F4621
:10A4C000D6464646C0B507002B4C616A0D00A66A09
:10A4D000616AA942FAD18B4208D805D00120E0BCBC
:10A4E000BA46B146A846F0BDB242F7D9EFF3108A9A
:10A4F00072B6224801680029FCD0BFF35F8F0125A6
:10A50000BD401F491C4C8846097889462943C9B279
:10A510008C46414660460870391D890065630A51C2
:10A520001849B8004350216A0020294219D0616AB5
:10A530000800A66A616A8142FAD18B4219D801D11A
:10A54000B24216D8CC450BD00B4B1F221D625D6367
:10A5500001233A4093400C4A136043464A461A701E
:10A560000120BFF35F8F0022044B1A608AF310882A
:10A57000B5E70020F5E7C04600400540280100D0BF
:10A58000552800200826002080E200E0EFF3108C20
:10A5900072B60A490B68002BFCD0BFF35F8F012312
:10A5A0008340074A0748136202789A430270BFF358
:10A5B0005F8F00230B608CF310887047280100D058
:10A5C000004005405528002070B506000D0014001D
:10A5D00000291DD0002A12D0736880689847620055
:10A5E0006B0012195B193168033A033B002808D04D
:10A5F0008A189570C818CB5C002B0BD1047028000A
:10A6000070BDCB189C7088188A5C002A05D1057033
:10A610002000F5E753700470F1E75A700570F7E712
:10A6200010B583600023CCB24373013342600473DE
:10A630008373C4730068421C012C05D90133DBB25B
:10A64000137003329C42F9D1FF230B405A00D318F8
:10A65000C01800230338437010BDC04670B5050014
:10A660000C1E07D0630001681B19033BCB185A78F6
:10A67000002A01D1200070BD50008018033809184D
:10A6800000204E784870210058702800FFF79CFF8A
:10A69000310004002800FFF7E1FF0600002C20D065
:10A6A0000028E7D0320021006B68A8689847720044
:10A6B000630092191B192968033A033B002808D04C
:10A6C0008A189470C818CB5C002B00D053700670A9
:10A6D000D0E7CB189E7088188A5C002A00D05A7088
:10A6E00004703400C6E7C046F0B557464546DE461E
:10A6F0004E46E0B50D006F0001687F19033F04006E
:10A70000C85D83B00192CA19002850D043001B18BD
:10A71000033BCB185E78B446002E1AD1019E002E62
:10A7200042D0E67B002E04D073009B19CB18033B6C
:10A730005D70A37B002B00D1A573E57300282FD19A
:10A740000023537003B0F0BCBB46B246A946A046F6
:10A75000F0BD72006244033A8A185178884600219D
:10A76000517089465970320001002000FFF72CFF1C
:10A7700043468246002B07D05B0021684344033BDD
:10A78000CB185A78002A16D1424651462000FFF7CE
:10A790001BFF2168019BCA19002BC2D10028CFD012
:10A7A00043001B18033BCB1800219970C8E7019B9D
:10A7B000002BB6D1C4E75000801803380918487838
:10A7C000834648464870587041462000FFF7FCFE1B
:10A7D000594680462000FFF741FF41460200200015
:10A7E000FFF7F2FE8046CFE7F0B557464546DE4616
:10A7F0004E46E0B583B00191457B04006F000068D0
:10A800007F19033FC15DC219002952D04B005B186C
:10A81000033BC3185E78B446002E1CD1019E002E67
:10A8200044D0E67B002E04D073009B19C318033B71
:10A830005D70A37B002B00D1A573E573002931D196
:10A84000002328005370617303B0F0BCBB46B246CE
:10A85000A946A046F0BD72006244033A82185078BF
:10A860008046002050708146587032002000FFF76B
:10A87000ABFE43468246002B07D05B002168434471
:10A88000033BCB185A78002A17D142465146200084
:10A89000FFF79AFE019B01002068C219002BC0D16E
:10A8A0000029CDD04B005B18033BC31800209870E3
:10A8B000C6E7019B002BB4D1C2E7500080180338D3
:10A8C0000918487883464846487058704146200029
:10A8D000FFF77AFE594680462000FFF7BFFE41464B
:10A8E00002002000FFF770FE8046CEE770B505003D
:10A8F00000292CD0437B8B422ED04C00006864187A
:10A90000033C0419A278002A21D053009B18033B72
:10A91000C25CC6188A4202D11BE0002A08D053004C
:10A920009B18033BC3185A788A42F6D162785A7052
:10A93000002301222800A3706370FFF7D5FE697B16
:10A9400002002800FFF740FE6873012000E00020AD
:10A9500070BD63783370EBE701221900FFF7C4FE86
:10A96000F2E7C04610B50C2082B000F0B7F9FEF750
:10A970000DFD002810D08B4B8B488B498B4A1860FB
:10A9800059609860D960186159619861D9611862FD
:10A9900059625A6202B010BD854CA06700F0F4F90C
:10A9A0000122844B1A60636C012BFCD10322824B81
:10A9B0001A607F4A936B012BFCD1013301217F4A3E
:10A9C0007F480093043300F037F905237D4A009354
:10A9D00001217D4800F030F97C4B5A68FF2A02D8EB
:10A9E000802252005A608022734B6E4C12011A6012
:10A9F0002169002907D0606901F0B4FE01304300ED
:10AA00001B18033BFDD2E022704B714819680A40C5
:10AA1000026002221968514001320A40042102609A
:10AA20009A681142FCD080216A4A09011160802293
:10AA300052005A60684B2361684B5968FF2900D85F
:10AA40005A60032201215B4B1A60644A93681942E1
:10AA5000FCD0E023106803406148036012680323C0
:10AA60004A40022113405D4A036093681942FCD0BA
:10AA700080215C4B0901196080215B4B49005160CA
:10AA800063615A4B5A68FF2A00D859608022584B9C
:10AA900012011A60E169002907D0606901F062FEC5
:10AAA000013043001B18033BFDD2E0234F4A1168DD
:10AAB0000B4050490B6080214F4B090119608021E8
:10AAC000394B49005160E3614C4B5A68FF2A00D86A
:10AAD000596080224A4B12011A60216A002907D06E
:10AAE000606901F03FFE013043001B18033BFDD2BB
:10AAF000E023424A11680B4042490B608021424BDF
:10AB00000901196080235B0053608022264BD2022A
:10AB100023623E4B5968914200D25A6080223C4BDE
:10AB200012011A60616A002907D0606901F01AFEFB
:10AB3000013043001B18033BFDD2E023334A116868
:10AB40000B4034490B608021334B0901196080238D
:10AB5000DB025360154B6362304B5A68FF2A02D800
:10AB6000802252005A6080222D4B12011A60A16986
:10AB7000002907D0606901F0F5FD013043001B1882
:10AB8000033BFDD2E023254A11680B4025490B60A9
:10AB90008021254B0901196080235B005360124B13
:10ABA000A361F7E600100020006CDC021BB7000078
:10ABB000008000403CB0004030B00040002F685999
:10ABC00000800240008C864700C002403080004078
:10ABD0003090004030A00040001BB7003C80004097
:10ABE0003C9000403CA00040405973075480004016
:10ABF00054B000405490004054A000406080004099
:10AC000060B000406090004060A000406C80004058
:10AC10006CB000406C9000406CA000404880004048
:10AC200048B000404890004048A00040014B8000E0
:10AC3000C058704700100020F8B5040022481E00DC
:10AC400017000D0001F08EFD0100380001F08AFDB3
:10AC5000069B36041B031E432368002B22DB1B4B81
:10AC60001B49E3185A1E93418022920194465B428D
:10AC70001B0B184A1B0363441360174A13601F0021
:10AC80008A689743FBD1C022231D92011A432123D6
:10AC90002560A06013602368002BFCDA0823E660BF
:10ACA0001360F8BD3F2322681340AB42D7D1A3689D
:10ACB0001B051B0D8342D2D1EE22E368D202134062
:10ACC000B342CCD1EDE7C046001BB7000040FDBF4A
:10ACD00000C0004000E0004000F000408023024A35
:10ACE0009B000343D36270470080054010B5802469
:10ACF0001C4BE4051C6000281AD001231A4C184391
:10AD00001A4BDC611A4C44401C62596298628021E3
:10AD1000144BC9051960174817490860E021C90498
:10AD20001960002A07D18022144B12061A6010BD48
:10AD30000E4BD861EBE753019B1A9B009A188023B6
:10AD400012015B049A4209D213000D490B60074BB4
:10AD50005A608022094BD2051A60E8E7094B1A00B5
:10AD6000F3E7C04600B00540D3C007B000800540FF
:10AD70002D3FF84FFCFF01000820014000A00540D6
:10AD800090230020FFFFFF00AA23064A1B01136047
:10AD90002F230549D360054B19605368002BFCDA5B
:10ADA0007047C0460040024000B0FA000060024018
:10ADB0002C4B2D4A70B51A602C4A2D4B2D491A6028
:10ADC00014008B689C43FBD12B4D2C4EB54208D20E
:10ADD000013E761BB60808CD984723000134B342E4
:10ADE000F9D1FFF7BFFD264A214B1A60214A93682B
:10ADF000DB43DB01DD09002BF9D14022214B224C42
:10AE0000224E9A675A671A67DA66B44208D22368F4
:10AE10002000002B20D00834FEF770FEB442F6D399
:10AE20001B4C1C4EC022B168200002F075FBB460C0
:10AE3000FEF73AFBFEF724FEFFF718F8164C174E04
:10AE4000B44208D2013E361BB60808CC98472B0006
:10AE500001359E42F9D170BD0834FEF741FEB4427F
:10AE6000D5D3DDE700E00040BFCDFBFEFE7F3C0018
:10AE700000F0004000C00040E40F0020F40F00206C
:10AE8000FFFFFF0100F00140DC0F0020E40F002075
:10AE90000000002000ED00E0F40F00200010002072
:10AEA00000BEFDE710B5FFF7FBFFC0460FB400B5CD
:10AEB000084883B002F0FEFB049B002B07D005A9D5
:10AEC0001800019101F0CEFB034802F0F3FB0120D2
:10AED000FFF7E6FFE81E0110F81E011010B501484B
:10AEE000FFF7E4FFFC1E01109A4200D2885470471D
:10AEF0007047C046F8B55746DE464E464546E0B573
:10AF000099460A9B07009A460D9B884693460B9CE0
:10AF10009B073BD10C9B9C423DD21E1B0B94150002
:10AF20000C005E442A004B46013521002020B84722
:10AF3000B542F7D1A0460B9C002C20D045463619CF
:10AF40005346321B013C185D29004B46B847002C84
:10AF5000F6D12B00350098460D9B9B070FD55B461D
:10AF6000EC1A0C9BA3420AD9464698462A004B4647
:10AF7000310020200134B84701354445F6D328007C
:10AF8000F0BCBB46B246A946A046F8BD1600150067
:10AF9000002CD3D1E0E71600002CCFD11500EEE74E
:10AFA000F0B54F464646D646C0B584B098460EAB7F
:10AFB0001B7894469946129B0D9C109F119E9A07F0
:10AFC00025D4002E65D1BC4221D201221A409246DE
:10AFD000202C00D1E9E00C9A551E302202E0202CF2
:10AFE00000D17BE001342A55A742F8D85246002A06
:10AFF0000DD0B4420BD20C9A551E3022202C02D117
:10B0000071E0202C2DD001342A55B442F9D1DA0652
:10B010003CD55A052ED4002C28D10F9A102A00D1E5
:10B02000B6E0022A00D1BCE030220C9C2270012440
:10B030004A46002A65D15A0700D499E02B220C9D7C
:10B040002A55013403930C9B6246009302964346B3
:10B050000194FFF74FFF04B0E0BCBA46B146A846E2
:10B06000F0BD2024DA06EDD55A0503D4A74266D0F8
:10B07000B44264D00F9A102A71D0022A57D0202CE3
:10B08000E0D02200013430250C9FBD54202CD9D0B3
:10B09000CEE7012215001D40AA461A4236D04A4684
:10B0A000002A4AD10C321A4247D1BC42A1D2202CEC
:10B0B00091D1202E17D82024DA06C3D55A051BD4E7
:10B0C000202F01D0202ED5D11F220F9D102D6FD003
:10B0D000022DD8D162250C9FBD54D0E75246002ADC
:10B0E00079D0202EBDD92024DA06ABD55A0503D459
:10B0F000202FE9D0202EE7D00F9A102AA2D12024A9
:10B10000A0E72D220C9D2A5501349BE7BC4200D3B9
:10B110007DE7202C00D05EE7DA06F0D55A05EED4A4
:10B12000202F62D0202EEAD134001F22CDE7202C20
:10B1300000D187E722000134CCE7013EB5E7621E6B
:10B14000012CC2D10F9A102A00D06AE79A063BD58B
:10B1500058220C9C2270283A6270022468E79A06F2
:10B160000ED4202CCBD078220C9D2A55013486E7B2
:10B170001A0700D466E720220C9D2A55013461E7A6
:10B18000202CBCD058250C9A12191570013476E782
:10B190009A0608D558220C9C227030226270022434
:10B1A00046E76032F7E77822F5E7002A83D1B3E774
:10B1B000A21E013C9D0603D478250C9FBD5460E778
:10B1C00058250C9FBD545CE778220C9C2270483AAD
:10B1D000627002242CE7DA0600D433E75A058BD4D8
:10B1E000202F00D044E71F226FE73C001F226CE7AE
:10B1F00010B5002800D110BD02F010FAFBE7C046E0
:10B200000B0010B5002802D049681B68984710BD94
:10B21000F0B557464E464546DE46E0B599B0824603
:10B22000894690460893229A239B1000190001F04A
:10B230005AFD002800D0CDE0229823990122D94B55
:10B24000524201F04BFD002800D0C3E02298239920
:10B250000122D54B524201F033FD002800D0B9E065
:10B26000229823990022002301F02AFD002800D013
:10B27000F1E1229E239F8023269ADB001A400D9243
:10B28000269A1A4201D1062324938023269A1B0171
:10B290001A403B0093460996334300D0B3E0002A9E
:10B2A00000D0C2E1002300240A930B94002304255C
:10B2B0000993259B0024AB4200D95C1B0223269AEC
:10B2C0001A400C92269A134203D06B426B415B42A8
:10B2D0001C40099B002B07D00A9A0B9B30003900B9
:10B2E00001F08DFC06000F00229823990022002314
:10B2F00001F0E6FC002803D0802109067B181F001E
:10B30000269AAA4B009601971340089E0493249B0B
:10B3100003940293424633004946504600F0AAF98E
:10B320000400002D67D02020269A494602401300D1
:10B330005A4253415B42621C18400A923300220079
:10B340004530D047099A6F1ED317D4185C40D30FED
:10B350009B46002501E0202D13D008AA94461F2308
:10B36000200063440A2101355E1901F0FBF93031F8
:10B37000317020000A2101F0F5F926000400092EA1
:10B38000E9D805230693002304930A3303935B460D
:10B39000089E029310AB0A9A009349463300504628
:10B3A00005970195FFF7FCFD0C9A0400002A22D0B6
:10B3B0004246851A259AAA421DD9B046574616001C
:10B3C00022004346494620200135B8470134AE42A9
:10B3D000F6D810E0269B42460493259B49460393EA
:10B3E000249B50460293229B239C00930194089B2C
:10B3F00000F040F90400200019B0F0BCBB46B24692
:10B40000A946A046F0BD6A4B78009C46400D6044BA
:10B4100001F07CFC674A684B01F00FFC674A684BFF
:10B4200001F0E4FB674A3B031B0B1A4304000D00C9
:10B4300009981100644B002201F0CFFB634A644B72
:10B4400001F0FBFB02000B002000290001F0CEFB05
:10B4500001F074FC099001F059FC5E4A5E4B040057
:10B460000D0001F0EAFB00225C4B01F0BFFB01F094
:10B4700065FC5B4A5B4B29000C90200001F0DDFB72
:10B4800004000C980D0001F041FC574A574B01F0A5
:10B49000D4FB02000B002000290001F09EFB0400F9
:10B4A0000D0002000B000A940B9501F0C6FB04008E
:10B4B0000D000A980B9902000B0001F097FB002287
:10B4C0000E900F914A4B2000290001F098FB0022BA
:10B4D000484B01F08BFB02000B002000290001F01B
:10B4E0008EFB0022444B01F081FB02000B00200088
:10B4F000290001F084FB0A9A0B9B0D0080210400B7
:10B50000C905002001F069FB02000B0020002900A2
:10B5100001F06CFB02000B000E980F9901F06FFB1D
:10B520000022284B01F062FB344B0C9C9C46644487
:10B530002305002201F081FB04000D0002000B0036
:10B54000300039000A940B9501F0BAFB00285DD158
:10B5500023002A00C625099963318D42AD41594621
:10B560006D420435002900D1A3E6134363D03000B7
:10B570003900234A234B01F0A9FB002807D0002201
:10B5800030003900204B01F09BFB002853D1249B55
:10B59000002B00D18DE60D9B5A1E9341249AD31A9D
:10B5A000249386E6FFFFEF7FFFFFEFFFFFF7FFFF2C
:10B5B00001FCFFFFFB799F501344D33FB3C8608B5E
:10B5C000288AC63F0000F03F0000F83F61436F63E8
:10B5D000A787D23F71A379094F930A400000E03F4B
:10B5E0001655B5BBB16B0240EF39FAFE422EE63F6D
:10B5F00000002C400000244000001840FF03000021
:10B600002D431CEBE2361A3F80842E41099B002219
:10B61000013B09932000164B290001F0F0FA0A00C3
:10B62000010003000A910B9294E7002300240A937F
:10B630000B9400230993249A099B9A4214DDD31A90
:10B64000013B24938023269ADB001A430023002524
:10B65000269209932DE6802212069446229B1E0014
:10B66000239B63441F0006E600232493EAE7C046B9
:10B6700000002440F0B54546DE464E465746E0B54C
:10B6800095B08B46904699461E9A1F9B0A901900CA
:10B690001000209D01F027FB002800D0B0E11E988B
:10B6A0001F990122C74B524201F00AFB002800D02B
:10B6B00037E11E981F990122C34B524201F00EFB45
:10B6C000002800D0A7E01E981F990022BF4B01F070
:10B6D00005FB002800D088E01E981F990022BC4B73
:10B6E00001F0EEFA002800D07FE01E981F9900229A
:10B6F000002301F0E5FA002800D0FAE000230B93C4
:10B700008023229C229ADB001C401A4200D102E1D5
:10B71000092D00D87CE106A98C462C0017220023B5
:10B720003021093C62440133D154EF1A202B00D15F
:10B7300032E1A342F7D10022A44B069207931E9850
:10B740001F9901F0FBFA050001F0E0FA02000B007E
:10B750001E981F9901F041FA069A079B01F06DFAB5
:10B760000890099101F00EFB060001F0CBFA0200EF
:10B770000B000898099901F030FA0022954B0890C7
:10B78000099101F0ABFA002800D1D2E00136300077
:10B7900001F0B8FA069A079B01F098FA002801D048
:10B7A00000260135AA46002F00D098E0280001F0BD
:10B7B000ADFA02000B001E981F9901F00EFA854B9E
:10B7C000002206000F0001F07BFA0CAB9A4600281D
:10B7D00045D10022300039007E4B01F07FFA00286D
:10B7E0003DD1EB073BD5013539E0229B424604931E
:10B7F000219B594603930A981E9B1F9C0295009318
:10B8000001944B46FFF704FD15B0F0BCBB46B246B1
:10B81000A946A046F0BD229B5B0767D403226E4B6E
:10B8200022990192039121990291009342464B463D
:10B8300059460A98FFF75EFBE6E706AA94461723E7
:10B84000280063440A2101341E1900F063FF3031DF
:10B85000280031700A2100F05DFF051E76D0202CF3
:10B86000EBD10323229A1340012B1DD1219B002BE6
:10B870001AD00B9B002B00D0BBE0229A0C33134252
:10B8800000D0B6E0219BA34200D887E006AB9C46DF
:10B8900017223023624404E02199013413558C426D
:10B8A00059D0202CF8D12024229B01940393219B72
:10B8B00002935346B9E706AA944617230A21634424
:10B8C000300001341D1900F04DFF30312970300077
:10B8D0000A21013F00F046FF092E46D90600202C20
:10B8E000E9D155460CAB20249A46B8E704223B4BDD
:10B8F00096E71E9A1F9B0020002101F06EF901239C
:10B900000B938023229C229ADB001E901F911C40E7
:10B910001A4200D0FCE60022314B0627069207931C
:10B920000DE7229B0393219B0293042301932D4B4C
:10B930007BE7002208980999264B01F0C1F90028FD
:10B9400000D02FE7002E4FD101362BE70323229A98
:10B950001340012B66D0202CA6D00B9B002B1FD0B0
:10B960002D235246135501349EE75546202CB9D05D
:10B9700030233A19002F08D0172006A901340918DE
:10B980000B55202CAED09442F6D10CAB9A462E2308
:10B9900052461355013462E72024CCE6202C83D094
:10B9A000229B5B0708D4229B1B0700D47CE7202343
:10B9B00052461355013477E72B2352461355013471
:10B9C00072E7C046FFFFEFFFFFFFEF7F65CDCD4180
:10B9D00065CDCDC10000E03F101F0110081F011010
:10B9E00080842E41181F0110F30700D4DAE60136D7
:10B9F000D8E6219B013B2193A34200D946E7AAE761
:10BA0000229B0393219B029303230193074B0CE793
:10BA1000074BEA009B185C681B682F00069307948D
:10BA200000248CE6219B002B95D022E7141F0110E7
:10BA300040230110F0B55746DE464E464546E0B578
:10BA4000A5B01F002E9B91460D93CA4ACA4B824651
:10BA50008B461A60002900D129E2002338789846E5
:10BA6000002800D12BE2C54B44460C93C44B5546ED
:10BA70004E460E930AE0631C984622003300594656
:10BA8000A84744463878002800D187E001372528A8
:10BA9000F1D108239A46043B9946023B9846013B64
:10BAA00000229C460B943878791C0300203BDBB2C3
:10BAB000102B03D80C9C9B00E3589F460300303B9F
:10BAC0000B9C0B92092B3AD9002398462A2800D1C7
:10BAD000DDE000239A462E284BD00300683BDBB202
:10BAE000122B1ED80E9A9B00D3589F4663460F0018
:10BAF0001A43D8E743460F001A43D4E74B460F00DA
:10BB00001A43D0E710230F001A43CCE753460F0027
:10BB10001A43C8E780235B000B9A78781A430B928C
:10BB200001310F0067284FD82428A4D90300253BF2
:10BB3000DBB2422B9FD893499B00CB589F460023F2
:10BB400098460B9B47469C4600E00131BB00DB1941
:10BB50005B001F180878303F0300303B092BF4D9F5
:10BB600063460B930023B8469A460F0001312E28F6
:10BB7000B3D180200B9AC00002430B923022524274
:10BB8000944678780B0084446246092A00D8AAE1DA
:10BB90002A2800D1B9E10F0001319EE7A046AA464C
:10BBA000B146C84503D301235B424B4498464B46FC
:10BBB000424659460020D047200025B0F0BCBB4685
:10BBC000B246A946A046F0BD01006939C9B20F29A5
:10BBD00000D950E701238B409C466B4B9946634646
:10BBE0004A4613400F9362464B461A4200D068E122
:10BBF0000A2956D0072900D03DE70D9B02CB984675
:10BC0000002900D092E10B9B10211A008A431000FA
:10BC100011310843814680201A00C0000240110003
:10BC200003421CD114AB9C461F220F2362440D9586
:10BC30009C4615000F9B0B9402E0202B0CD01100AA
:10BC400064460C4020003730092C00D807380133F7
:10BC5000E8540A090F29F0D80B9C0D9D0F934B4611
:10BC60000822069353460592083203920022049359
:10BC70000F9B029201931CAB2200009359463300A4
:10BC80002800FFF78DF9434604000D93FAE60D9B5B
:10BC900004CB9046002A79DB78780D930F000131B0
:10BCA00017E70D9B02CB14930B789C461800534664
:10BCB000002B00D134E1002815D05346013B01335D
:10BCC00099460D940B9C89444A460B00A14601E01D
:10BCD000934203D05C780133002CF9D14A465B1AB9
:10BCE0000D9C0B920F938023DB0099460B9A134017
:10BCF0000D934B461A4204D00F9B534501D953462E
:10BD00000F93022399460B9A13400B934B46134211
:10BD100000D1F5E16346002B00D1D6E10D9B002B4D
:10BD200000D182E10B1BD14631009A463B00A14471
:10BD30002E005F464D4622009B46894609E04B4651
:10BD40003900541CB0475346185D002800D192E1D9
:10BD500022009542F3D14B465A46A946BB463500D0
:10BD600017001E004C460B9B002B00D0ADE1149B2E
:10BD70000D9387E635BA00104C220020A421011053
:10BD8000E821011034220110419000000B9A28385C
:10BD900002430B9242465242787890460F000D9330
:10BDA000013196E678786C2800D15DE180230B9A0A
:10BDB0005B001A430B920131B3E680239B00ABE694
:10BDC0007878682800D148E180230B9A01311A4322
:10BDD0000B92A6E6672800D1B2E0472800D11AE10D
:10BDE000452800D11CE10B9A0721049242460D9B85
:10BDF0000392073352468B43190002920CC9280064
:10BE0000009201930D91220033005946FFF700FA8A
:10BE1000040037E6462800D18DE00B9A07210492F2
:10BE200042460D9B0392073352468B431900029200
:10BE30000CC92800009201930D912200330059464D
:10BE4000FFF718FC04001DE6631C9846220033002F
:10BE500059462520A847444614E60D9B04330F930A
:10BE6000631C99460B9B9A0700D40AE10D9B2200A4
:10BE7000187859463300A84743464444012B00D85C
:10BE80006FE1B0462E0025004C46B9465F462200C1
:10BE90004346013439002020B047AC42F7D12C0092
:10BEA000BB4635004F4646460F9B0D93EAE5D64B01
:10BEB00038789A4600239846002800D0D3E500241D
:10BEC0006FE66F2842D000D8FDE11023782800D11A
:10BED0009BE00B9A9A430B920A239C4600231493EF
:10BEE0000A330F9338E057460B9AB900C919490035
:10BEF00001330F181878303F010030390929F4D97F
:10BF0000BA460B921F00591CE7E50D9BB87804CB8D
:10BF10000237D143C9170A4092460D93791CDCE5DC
:10BF2000002800D1DFE602235B42C8E621200B9AFD
:10BF30000243914676E620230B9A1A430B926CE754
:10BF400080230B9A1B011A430B924CE708239C4653
:10BF50000023149308330F930B9880230200DB0017
:10BF60001A4011000200184200D080E00C239A43CE
:10BF70001000802302009B001A400B92184200D050
:10BF8000F1E0802302005B001A4091460D9A0432D2
:10BF90001492184200D0C3E2430600D5D7E003064E
:10BFA00000D421E30D9B1B880993002B00D02DE1C9
:10BFB00010339843002900D128E1002399464346D5
:10BFC0000593534604930F9B06900393002302931B
:10BFD0004B4601931CAB22000093594633002800C6
:10BFE000FEF7DEFF0400C2E6582809D0622800D020
:10BFF000E3E202239C460023149302330F93ABE742
:10C0000020230B9A1A430B92103B9C460023149357
:10C0100010330F93A0E780230B9A1B011A430B9256
:10C0200020230B9A1A430B92DDE60B1B9A460F9BBB
:10C0300099463B0037005E469B4622003B0031009C
:10C04000A84753460134185D0028F6D14B460F939C
:10C050005B46B3463E001F0085E6C0230B9AB878C6
:10C060001A430B92F91C5CE5C0239B00F6E70D23F5
:10C070009A4310007DE75B463500BB464E461F00E5
:10C0800071E64346012B66D9631E434432002E00FD
:10C090001D003B00A2465F4691469B4622004B4650
:10C0A000013439002020B047AC42F7D15B4635005F
:10C0B000BB464E46A14654461F000D9B4A46187883
:10C0C000594633004444A847EEE60F9BA1469845E5
:10C0D00000D84CE64444E41AB0462E0025004C46F5
:10C0E000B9465F4622004346013439002020B0475C
:10C0F000AC42F7D12C00BB4635004F46464636E6EB
:10C100000F98804500D873E24346E218131A3200B4
:10C110002E001D003B0091465F469B460F9122007A
:10C120004B46013439002020B047AC42F7D15B4682
:10C13000BB461F0043460F9901330F930B78350020
:10C140009C464E466046002800D0E7E50FE60D9B72
:10C150001B78099329E70D9B220018785946330074
:10C16000A8474C46A0E60D9AFA3BFF3B07329A439C
:10C170000133994691444B460D93136852681592CA
:10C180001A4306D11032904300220992002900D0B0
:10C1900083E06122810600D54122D2B20A9214AA1C
:10C1A00091460A9A00210A3A0B9242461792524649
:10C1B00018925A46B24609911E001F31149B4944F9
:10C1C000BB4616941A950024674698468946159DE5
:10C1D00019901B920AE03032D2B24B4601341A5504
:10C1E000A8454CD0202C4CD006000D003A0000236E
:10C1F0003000290000F0F4FAD2B2092AEBD90B9BE7
:10C200009C466244D2B2E8E7F1AE00106123820698
:10C2100000D54123DBB20A3B0B93434614A91F22EE
:10C220008C46159353466244B2460D9417974C467C
:10C230008046A9461700099D0F9E169308E03033EB
:10C24000DBB201343B55B5420ED3202C0CD0050097
:10C250003100280000F086FACBB20929EFD90B9AF9
:10C2600094466344DBB2ECE7159B40469846169B28
:10C270004D465646A1469A460D9C179F9FE6B742EB
:10C28000B0D9179B56469846189B5F469A461B9B0B
:10C2900009949B46169C19981A9D4346059353464C
:10C2A00004930F9B0690039300230293099B019331
:10C2B0001CAB22000093594633002800FEF770FEA5
:10C2C0000400FFF7DFFB10230B9A9A430F926928B3
:10C2D00000D091E10B9980230A00DB001A40100086
:10C2E0000A00194203D0112118008A430F920F9AB5
:10C2F000802311009B0019408C461A425BD1802399
:10C3000011005B00194089460D9904310B911A42C6
:10C3100000D0B2E013005B0600D4EDE00D9B1B786B
:10C320001A00D90F0D91002B00D1A3E0100014AA20
:10C33000944642461F23159252466344A846BA4685
:10C340004D461494B14604001F00169201E0202DC2
:10C350000FD020000A2100F005FA01357E19303196
:10C36000317020000A2100F0FDF926000400092E9A
:10C37000EDD8159B4E46A94645469846169B57460E
:10C380009A46149C0F9B0693434605935346049389
:10C390000A2303930D9B02934B4601931CAB22008F
:10C3A0000093594633002800FEF7FAFD0B9B04006A
:10C3B0000D93FFF767FB07220D9B07339343013271
:10C3C00094469C4462460D920CCBD90F0B91110000
:10C3D000194300D19BE0D91713911291514010914C
:10C3E00013995940119110981199129A139B801A20
:10C3F00099411090119114AA944642460023159237
:10C4000052469946169232001F336344A8464E4660
:10C41000BA4614941F00109C119D914601E0202EF5
:10C4200010D0200029000A22002300F0D9F901369B
:10C4300030322B00BA550D0022000400002BEED143
:10C44000092AECD8159B10941195454698464B4601
:10C45000169AB14657461E009246149C0F9B0693AF
:10C4600043460593534604930A2303930B9B02937D
:10C470004B461CE7002885D159E70D9B1B68DA0F56
:10C480001100002B00D1A6E0DA179818504014AA2A
:10C4900091461F2342464B44A8460D94169704002C
:10C4A0006546B1461F001491159201E0202D0FD072
:10C4B00020000A2100F056F901357E193031317023
:10C4C00020000A2100F04EF926000400092EEDD8C4
:10C4D000159BAC4645469846149B4E4619000D9C4C
:10C4E000169F0F9B02910693434605935346049370
:10C4F0000A230393634650E713001B066ED50D9B7A
:10C5000000229B5ED9175A184A4092B209E70023CD
:10C5100099460028A2D100220023109211936AE7C5
:10C520000D9B1B689946002B03D1103398430029BB
:10C5300038D16123820600D54123DBB20A3B0D933B
:10C5400043461693534614A91F228C4617932B007B
:10C5500062444D46B2461594189780461700994696
:10C560000B9C0F9E08E03033DBB201343B55B542E3
:10C570000ED3202C0CD005003100280000F0F2F87A
:10C58000CBB20929EFD90D9A94466344DBB2ECE7AC
:10C59000169B40469846179B56464D469A460B9426
:10C5A000189F159C43460593534604930F9B069092
:10C5B0000393002302930B9B0BE50B9980230A0046
:10C5C000DB001A4010000A00194200D08BE610234D
:10C5D0009A430F928BE6002883D158E70D9B1B6886
:10C5E000D9175A184A409CE60D9B1B680993DCE456
:10C5F000030001330F93A5E50B926DE40EB4012205
:10C6000030B584B007AC08CC064D0100009428007A
:10C6100052420394FFF70EFA04B030BC08BC03B0DA
:10C620001847C046E9AE001010B5054C82B0009323
:10C6300013000A0001002000FFF7FCF902B010BD52
:10C64000E9AE001000B585B003910121029000937E
:10C65000034813004A4202A9FFF7ECF905B000BDF8
:10C6600001B2001010B5094A0300146884B0002C10
:10C6700008D0012200910648524203A9A047012098
:10C6800004B010BD01F016F80020F9E74C2200209C
:10C69000F1B1001001480421014B1847700F002030
:10C6A000D1C60010014B9B6818470000700F002096
:10C6B000142310B50100188804331B88984710BD57
:10C6C000162310B50100188802331B88984710BD47
:10C6D000F8B54746CE4680B50F1E19D014239946AB
:10C6E000043304000025012698464B46188843462B
:10C6F00021681B88984701C4431E98410135404278
:10C700000640AF42F1D13000C0BCB946B046F8BDDA
:10C710000126F8E7124A936F9B0815D29066D166FE
:10C72000002905D0FFE7FFE7FFE7516F106F704763
:10C7300004B580210906C2175140002800D0C84323
:10C7400005F052FB002104BDF0B5146E556E576F15
:10C75000166FFFF7E3FF1466556657671667F0BD5F
:10C76000000000D0114A936F9B0813D210665166E7
:10C77000002905D0FFE7FFE7FFE7516F106F704713
:10C7800004B5002801D00020C04305F02DFB002196
:10C7900004BDC046F0B5146E556E576F166FFFF7A7
:10C7A000E5FF1466556657671667F0BD000000D0B8
:10C7B00094464A4A926F9208624601D228E0C046E7
:10C7C000F0B5464E346E756E776F366F00F020F818
:10C7D0009446424A14665566576716676246F0BD2E
:10C7E00094463E4A926F9208624601D254E0C04697
:10C7F000F0B53A4E346E756E776F366F00F04CF8C8
:10C800009446364A14665566576716676246F0BD09
:10C81000002B24DB11D000293EDA00B5C943404289
:10C8200000D1013100F038F8C943404200D1013154
:10C83000DB43524200D1013300BD002AEBD1002876
:10C8400001D1002905D00020C90FC90701D1C0437B
:10C85000410800B505F0B8FA0022002300BD00B57C
:10C8600000290ADBDB43524200D1013300F014F807
:10C87000C943404200D1013100BDC943404200D10B
:10C880000131DB43524200D1013300F005F8DB43B4
:10C89000524200D1013300BD002923D1002B18D111
:10C8A000002A0CD0BC460D4F38667A660021002362
:10C8B000FFE7FFE7FFE77A6F386F674670470028AA
:10C8C00001D00748010000B505F07EFA00220023E0
:10C8D00000BD02000B00002000217047000000D0C6
:10C8E000FFFFFFFF002B00D0BFE0130C28D1002A70
:10C8F000E7D080B4114F39667A66FFE7FFE730B4BE
:10C90000040C7B6F396F1B0423433B667A66FFE799
:10C91000FFE7FFE7C04684B27B6F3D6F1B042343F4
:10C920003B667A66FFE7FFE7C04600232C042D0C28
:10C930007A6F386F00196941B0BC7047000000D0B1
:10C94000F0B594460025140E01D112020835140FDB
:10C9500001D112010435940F01D192000235D40F98
:10C9600001D152000135D40B0134254F7C66254C92
:10C970003C660E0C93B2FFE7FFE7FFE73C6F6643B0
:10C98000360C7703BE467343DF0B5B04C01AB94114
:10C99000130C7343DB18C91ACE086643360CB64431
:10C9A00093B273431F0F1B01C01AB941130C734399
:10C9B0001F0B1B05C01AB941860D8F023E4366430B
:10C9C000360C092D24DB520A7243801A7703460A7B
:10C9D0006643360C16235B1BDE40DF40BF196446FE
:10C9E0006643821B7046043506330100D940A840D7
:10C9F000C01900D30131A24206D20023F0BD0000CD
:10CA0000000000D0FFFFFFFF121B0130F3D3F1E75E
:10CA100009277F1BFE406446A2B27243801A00D2EF
:10CA20000139220C7243130C1204821A99410B0033
:10CA30007046043513370100F940A840801900D32F
:10CA40000131002B02D1A2420AD2F0BD013000D345
:10CA50000131121BFAD2013BF8D1A24200D2F0BD43
:10CA6000013000D30131121BF7E7F0B51C0C00D0E8
:10CA700080E00CB400251C0A04D11B02160E3343BF
:10CA8000120208351C0B04D11B01160F334312018F
:10CA900004359C0B04D19B00960F33439200023562
:10CAA000DC0B02D192185B4101351C0097186441E0
:10CAB0000134464F7C66464C3C660E0CFFE7FFE7B0
:10CAC000FFE7C0463C6F6643360C7703BE4697B21D
:10CAD0007743C01B00D20139C01B00D201399FB27D
:10CAE0007743C91BC91B170C77437E04FF0B801BC0
:10CAF000B941CE086643360C0C2D33DBB644120B1D
:10CB00001F053A431B0B97B27743C01B00D2013974
:10CB10009FB27743C91B170C77433E043F0C801B21
:10CB2000B941860D8F023E43664329277F1BFE4095
:10CB30000C3D7746AF40BF1930BCA2B2ABB27243D6
:10CB40007343801A9941220C7243130C1204801A09
:10CB5000994102000B000137001BA941F9D2781E50
:10CB60000021F0BD0C277F1BFE4077467F0BAF40B6
:10CB7000FF19E0E700245D1C07D0144F7D6639667D
:10CB8000FFE7FFE7FFE7FFE73C6F95B29EB2654323
:10CB90006643401BB141150C1E0C654366433604C9
:10CBA0002F0C3E432D04401BB141994204D2020098
:10CBB0000B0020000021F0BD01D19042F7D3801A74
:10CBC000994101349942F2D3F6E70000000000D009
:10CBD000FFFFFFFF48404140484018B41B4B5B68D3
:10CBE000FC46019308BD04DF67CE001018B4174B54
:10CBF0001B68FC46019308BD00DF71CE001094460F
:10CC0000134A926F920809D2624618B40F4BDB6840
:10CC1000FC46019308BD0CDF29D100100C4AF0B589
:10CC2000146E556E576F166F6246FFF7EEFF084A97
:10CC30001466556657671667F0BD18B4034B9B68BA
:10CC4000FC46019308BD08DFCDCF00104011002045
:10CC5000000000D0FFB550404240504059404B408A
:10CC6000594000E0FFB5154F4C00640D03D0BC42A5
:10CC700004D10C0314D80020090D09055C00640DD3
:10CC800003D0BC4204D11C030AD800221B0D1B0593
:10CC900001264B4009D44B4003D58B4200D1824240
:10CCA000FFBD9942FCD19042FFBD0B43DB1803430B
:10CCB0001343F5D0C9434918FFBD0000FF0700002A
:10CCC00000B5FFF7CFFF804100BDC04600B5FFF7BC
:10CCD000C1FF01D9002000BD012000BD00B5FFF754
:10CCE000B9FF804100BD012040054A00121804D858
:10CCF0005A00121801D80020704701207047002008
:10CD0000704700000021002805D17047C117484036
:10CD1000401AFAD0C90713B5064B1B6898470CBCDC
:10CD2000441CA2401005120B0349091B09051943B5
:10CD3000114310BDF42500201F04000010B54C0065
:10CD4000620D8023D218DB00D21A5B057E2A10DD2B
:10CD50009E3A13DACC170903490819435242D140CD
:10CD6000640001341532202A05DAD04008436043BC
:10CD700010BD002010BD0846604310BDC80FC0188C
:10CD8000013810BD18B4044B5B6AFC46019308BD22
:10CD900024DFD9D20010000040110020132370B509
:10CDA0001D78012D15D010DD1D48FFF789FC1D4CA5
:10CDB00001008022200000F0AFFB022D2DD01A4888
:10CDC000FFF776FC194B186070BD194B154CA36426
:10CDD000F5E7174B134C23606360A360E3602361A6
:10CDE0006361A361E36123626362A362E36223631D
:10CDF0006363A363E36323646364A364E3642365FD
:10CE00006365A365E36523666366A366E3662367DC
:10CE10006367A367E367A364D1E7054BA364CEE729
:10CE200053440000401100204C330000F425002042
:10CE300035CE001007B5604601880A0A0230DF2AA5
:10CE4000FAD1C9B2820804D3028840880004104392
:10CE500000E00068014A5050039007BD40110020D7
:10CE60000FB403BC0CBCF0B50124E407634000E040
:10CE7000F0B50C0DCF0F661E3605891B640503D374
:10CE8000C943404200D30131640D03D0661CF60A49
:10CE900007D0E41B00207F00791C89078912803CA1
:10CEA00024031D0DDF0F6E1E36059B1B6D0503D37E
:10CEB000DB43524200D301336D0D03D06E1CF60AE2
:10CEC00007D0ED1B00227F007B1C9B079B12803D3F
:10CED0002D032F1B661B58D4A446202E46DA20377C
:10CEE0001400BC401D00BD40F24033412A4380186D
:10CEF0005941CB0F05D0C943C04300226442504181
:10CF0000514162464D0D28D10D0D07D100281FD08B
:10CF1000241940414941013A0D0DF9D0640006D36E
:10CF2000013000D30131002C01D140084000013A0A
:10CF30000BD4941CE40A04D112051144DB071944F4
:10CF4000F0BDD907204B194300E0D9070020F0BD00
:10CF50000029DDD1002CDBD1F0BD0132C60740082D
:10CF6000CD0728434908002EE1D0D9E73C2E29DA25
:10CF7000203E40371400BC4000D00124F24014434E
:10CF80001A00BB401C43D317ACE7AC46202F08DA8D
:10CF900020360400B4400D00B540F8403941284324
:10CFA000A5E73C2F0CDA203F40360400B44000D007
:10CFB0000124F84004430800B1400C43C117EAE7DC
:10CFC00010001900002494E70000F07FF0B50C0D6C
:10CFD000661E3605891BE60A6405640D02D0651CD1
:10CFE000ED0A04D0002001210905803C2403A44659
:10CFF0001C0D671E3F05DB1BE70A6405640D02D0AC
:10D00000651CED0A04D0002201231B05803C24038B
:10D010007740644497B484B296B27443070C7E435D
:10D02000150C6F4380B26843361802D30120000408
:10D030003F183004350C00197D41844688B29AB2FD
:10D0400050430C0C62431F0C7C438EB27E439219FA
:10D0500002D301263604A4191604170C36186741AA
:10D0600001BC81B29AB25143040C62431B0C5C4375
:10D0700080B25843121802D301200004241810046F
:10D08000130C401863412D185E410020474106BC37
:10D0900088B293B258430C0C6343120C544389B2C8
:10D0A00051435B1802D301210904641819041A0CB6
:10D0B000091862416D1856410020474118BCF90219
:10D0C000720D1143F0026A0D1043ED020A0D03D1F7
:10D0D0006D1940414941013B124E9B1B7600B34202
:10D0E0000ED26D0007D301300026714166463543EC
:10D0F00001D1400840001B05C918E4072144F0BDD8
:10D100000BDA013306D1013004D101314F0D01D0CA
:10D110004908F2E7E1070020F0BD013631050020A3
:10D12000EBE70000FF030000F0B51C0D671E3F0594
:10D13000DB1BE70A6405640D02D0661CF60A04D006
:10D14000002201231B05803C2403D0252D06002648
:10D15000F6432E661E096E66CE0FF619B4464900D8
:10D160004F0D02D07E1CF60A03D000200021403F64
:10D170003F033E1BB600B444013F7F05C91B49086D
:10D180002E6F013676089C02950D25437543ED13ED
:10D190007543AD1301356D10F603761B0CB4CC024C
:10D1A000450D2C43A2B2B3B25A43270C7B43350C36
:10D1B0006F43A4B26C431B1902D3012424043F190A
:10D1C0001C041D0CA4187D4124196D41009A91B2D4
:10D1D000ACB26143170C7C432B0C5F4392B25A43B1
:10D1E000A41802D301221204BF182204230C5218DF
:10D1F0007B41019C6C431B19520ED9010A43440127
:10D20000A01A81B2B2B2514303145A43360C73438D
:10D2100087B27743D617D21900277E4136049B196F
:10D220001704160C7F185E417316ED18F3010026E3
:10D2300080337541A90F06D16400690AE8055B0ACD
:10D24000184309D22FE00422944480337541A90A7F
:10D25000A8059B0A184326D3404149412404009A5B
:10D26000019B0D005543641B4343E41A95B286B2FB
:10D270007543170C7E43030C5F4392B25A43B618B2
:10D2800002D301221204BF183204330C52197B411D
:10D2900052429C41002C02D40022013051414008EE
:10D2A000CA071043490802B06246D7079210084BDC
:10D2B000D218084B9A4203D212058918C919F0BD39
:10D2C0000020002A01DC3900F0BD01331905F5E723
:10D2D000FD030000FE070000002200B5203200F030
:10D2E00004F8080000BD000000220B150AD410B598
:10D2F000944600F031F81414013400DA0021CB1701
:10D30000144C20470020002170476244343A0CD46A
:10D310000C2A07DA04009140904052422032D44057
:10D32000214310BDD843D94310BD203207D40C4649
:10D330009440524220321141D040204310BD080099
:10D34000C917203203D452422032104110BD1800B8
:10D35000190010BD0BD300100A0DCC0F531E1B0576
:10D36000C91A520503D3C943404200D30131520DBB
:10D3700003D0531CDB0A07D0121B00206400611C81
:10D3800089078912803A1203014BD21A70470000B4
:10D39000FF03000051434343C9188C46110C83B26C
:10D3A0004B4310B4040C614392B280B250436243C9
:10D3B0001C041B0C001910BC59411304120CC0189A
:10D3C00051416144704700004840414048400E4B85
:10D3D0005B6818470C4B1B6818470C4A936F9B08F7
:10D3E00002D2094BDB681847F0B5146E556E576FC3
:10D3F000166FFFF7F6FF054A1466556657671667FE
:10D40000F0BD014B9B68184740120020000000D07F
:10D41000491A002808D1084670470000C10FC90703
:10D4200000D54042002817D0F44603B40B4B1B68CC
:10D43000984706BC81409E384042803107D20B0697
:10D4400007D04900490AC00510430843604701302E
:10D45000F8E7490A8902F5E770470000F425002043
:10D46000014B5B6A1847000040120020132310B5DF
:10D4700012481C78FFF724F90100012C0AD003DDC3
:10D4800080220F4800F048F80E48FFF711F90E4BC4
:10D49000186010BD0A4C5422200000F03DF80B4BE0
:10D4A0006365A365E36523666366A366E366236736
:10D4B0006367A367E3672362E361E5E75346000020
:10D4C000401200204C330000F4250020D1D400107D
:10D4D00007B5604601880A0A0230DF2AFAD1C9B2CC
:10D4E000820804D3028840880004104300E00068EA
:10D4F000014A5050039007BD40120020014804210A
:10D50000014B1847800F0020D1C60010014B1B684B
:10D5100018470000800F0020014B5B68184700008F
:10D52000800F0020F0B5C64600B5437D07000D0012
:10D530001600002B38D0002A2EDD00216A1E9046EE
:10D540006A5C037D4C1C00200A2A0CD0A64216D02F
:10D5500043461B5D21000D3B5A4253416A5CDBB2DE
:10D560004C1C0A2AF2D1002BF0D1884217DB022191
:10D5700010483B689847A64207D02000E8E786425B
:10D5800003DD311A3B6828189847AD19013D2B7807
:10D590000D3B5A4253413B7580BCB846F0BD091A59
:10D5A0003B6828189847E2E703681100280098476D
:10D5B000F2E7C046B4230110F0B5C6460B6806007A
:10D5C0000C0000B5802B06D05A1C2260E41826718E
:10D5D00080BCB846F0BD0F4B1D68002D16D00B1D4A
:10D5E00098460D4F02E02D69002D0FD02B68002BBF
:10D5F000F9D03B68002B01D0AB42F4D12800414662
:10D600002268FFF78FFF2D69002DEFD10122002343
:10D61000DBE7C046241900202C1D0020F0B5CE46C3
:10D62000474680B583B06B460600DD1D2870FCF7C9
:10D63000B1FE00231A4A12184B41802109068B4281
:10D6400002D30122174B524217490800884604F0C2
:10D65000F3FB164B81461C68002C14D0144F02E0DB
:10D660002469002C0FD02368002BF9D03B68002BD5
:10D6700001D0A342F4D1200001222900FFF752FF7C
:10D680002469002CEFD14B46002B05D1300003B0AC
:10D69000C0BCB946B046F0BD404604F08DFBF5E78E
:10D6A00040420F00FFFFFF7FDC0F00202419002005
:10D6B0002C1D0020F0B5DE4657464E464546E0B5E7
:10D6C00085B0070004F038FB0600FCF763FE00237A
:10D6D0002B4A12184B41802109068B4202D30122AA
:10D6E000284B5242284908008B4604F0A5FB274BE3
:10D6F00001901C689A46002C3BD0254B984602AB03
:10D70000DD1D0A23994602E02469002C17D0236806
:10D71000002BF9D043461B68002B01D09C42F3D16B
:10D72000200032003900FFF7FDFE4B4620000122A9
:10D7300029002B70FFF7F6FE2469002CE7D1019B2E
:10D74000002B18D153461C68002C06D06368002BB0
:10D750000BD098472469002CF8D1300005B0F0BCFC
:10D76000BB46B246A946A046F0BD2469002CEDD1C7
:10D77000F3E70028F1D0584604F01EFBE2E7C0466C
:10D7800040420F00FFFFFF7FDC0F00202419002024
:10D790002C1D00200A4A1368002B05D10CE01A004A
:10D7A0001B691032002B07D09842F8D1002902D112
:10D7B00003691360016170470029FCD01060FAE72B
:10D7C00024190020F0B5CE46474680B5A3B004002A
:10D7D0000D00FCF7DFFD0023294A12184B41802180
:10D7E00009068B4202D30122264B5242264F3800B3
:10D7F00004F022FB00230600019322002B002348A3
:10D8000001A9FEF71FFF019B8046002B14D1204B7E
:10D810001C68002C06D06368002B0BD09847246945
:10D82000002CF8D1002E25D1404623B0C0BCB9460B
:10D83000B046F0BD2469ECE7154B1D689946002DF4
:10D840001CD0144C02E02D69002D0FD02B68002B4A
:10D85000F9D02368002B01D0AB42F4D12800019A03
:10D8600002A9FFF75FFE2D69002DEFD14B46019510
:10D870001C68CEE7380004F09FFAD5E70195D1E7A0
:10D8800040420F00FFFFFF7FDC0F0020B9D50010E2
:10D89000241900202C1D00200FB400B583B004A96A
:10D8A00001C90191FFF78EFF03B008BC04B018470F
:10D8B00010B500F025FA10BDF0B5CE46474604007D
:10D8C00080B583B0FCF766FD26000027802336185C
:10D8D0004F411B069F4202D30126194F7642194B36
:10D8E000B9469846184D43461C68002C03D116E0F3
:10D8F0002469002C13D02B68002B01D09C42F7D157
:10D90000A368002BF4D0012101A898470028EFDD7F
:10D910006B46187903B0C0BCB946B046F0BD0B4B9E
:10D920005A6A914507D89B6AB34202D3012040420C
:10D93000F0E79145FAD101200021FCF735FDD2E74F
:10D94000FFFFFF7F241900202C1D00200040054010
:10D950007047C0460022014B1A7070474B280020C8
:10D960004B790020FF2B0BD18B79002B08D1CB7981
:10D97000012B05D1082A03D9024B8A7809301A7085
:10D980007047C0464B2800200120704770B5012920
:10D9900001D0012070BD13495379107909781B0219
:10D9A000034300209942F5D15378012B08D0022B74
:10D9B000F0D1002064220021FDF798F90120E9E769
:10D9C0009478D278050012021443D20502D5620A77
:10D9D00093401D000448FEF76BFE7F2103002140A9
:10D9E000280098474B28002055420000012303706F
:10D9F00000487047B82301104B780A781B02134384
:10DA00008A7810B512041A43CB781B06134396226A
:10DA1000D200934200D010BD0348FEF749FE00211A
:10DA2000030008009847C04655420000024B1860AA
:10DA3000024B19607047C046A4180020A8180020A7
:10DA400010B5024B1878FBF76DFD10BD4E28002075
:10DA5000114B70B51A68002A1AD0EFF3108172B614
:10DA600010680028FCD0BFF35F8F00200B4A59607C
:10DA700010701B68BFF35F8F186081F3108800245B
:10DA80000025074B1878FBF74DFD2900200070BDDD
:10DA9000FA240025A400F4E7B42300204F28002036
:10DAA0004E28002070B5040000200E0001F0E8FAB6
:10DAB000002836D0002001F0FBFA002831D0FCF716
:10DAC00069FC0023184A12184B41802109068B4239
:10DAD00016D2164D280004F0AFF9002821D00020FE
:10DAE00001F0CEFA00280FD101200021404200F0C1
:10DAF000C1FC03246442280004F05EF9200070BDDC
:10DB000001220B4B5242E4E7002001F0D1FA002839
:10DB1000EAD021003200002001F0D6FA041EEAD13A
:10DB2000E7E703246442E9E740420F0000260020B3
:10DB3000FFFFFF7FF8B5DE46574680B505000C00B5
:10DB4000FCF728FC0023374A12184B4180210906B4
:10DB50008B4202D30122344B5242344908008A4698
:10DB600004F06AF9002803D1C0BCBB46B246F8BD38
:10DB7000002001F085FA00284AD00026002C43DD61
:10DB80002B4B9B4614E0A919002001F011FB070064
:10DB900001200021404200F06DFC002001F0CCFA91
:10DBA000FCF7F8FB224BF61918605960B4422BDDE4
:10DBB000002001F017FBA71B0200B84200DD3A006D
:10DBC000002AE0D101200021404200F053FC002057
:10DBD00001F0B2FA002001F053FA002814D000201E
:10DBE00001F000FB0028E1D1FCF7D4FB5B460F00FD
:10DBF0001A685B68002184460E4812184B419F4208
:10DC000002D8D3D19445D1D9504604F0D5F8ABE72A
:10DC100000200021064B18605960504604F0CCF8F3
:10DC2000A2E7C04640420F00FFFFFF7F0026002012
:10DC30002811002020A1070010B5244C84B0002139
:10DC4000200004F0D9F800281CD1214B1A68002AC2
:10DC500016D0EFF3108172B610680028FCD0BFF325
:10DC60005F8F01241B48596002781B68D2B2047090
:10DC7000BFF35F8F0020186081F31088002A0AD05C
:10DC800004B010BD01200021404200F0F3FB200051
:10DC900004F092F8F4E7FCF71FF90400FCF77AFBB4
:10DCA000FA220023920012184B41802109068B4270
:10DCB00002D30122084B524201210291002101911D
:10DCC000064920000091FCF70BF9D9E70026002057
:10DCD000B42300204F280020FFFFFF7F51DA0010FF
:10DCE000054B10B51868002804D0044B00221968B1
:10DCF00001F036F810BDC046A4180020A818002076
:10DD0000D02310B51B0684B01C68FCF7E5F8FCF7BF
:10DD1000DDF9A04202D0002004B010BD274B1B78D3
:10DD200001F042FC2648FBF7DBFE0120FBF7BAFEC0
:10DD3000FF23244C244920701840FBF719FC20785D
:10DD40000121FBF7DDFB0520FBF7F4FB002827D1C1
:10DD5000FCF7C2F80400FCF71DFBFA220023920036
:10DD600012184B41802109068B4202D30122174B26
:10DD70005242012102910021019115492000009198
:10DD8000FCF7AEF80822040000211248FFF7BEFBA2
:10DD9000002CC0DB10480121FFF7FCFC0120BBE791
:10DDA00000220E490520FBF735FCFBF78BFB094BE6
:10DDB00001001800FBF7BEFEECE7C046E8250110A5
:10DDC000002600204E28002039DC0010FFFFFF7FD6
:10DDD00051DA0010B4230020900F002041DA001027
:10DDE000004870474824011000487047F423011090
:10DDF00010B5040017480378002B20D0002C06D162
:10DE0000154B16484380063BFF3B038010BD052C95
:10DE100019D8134BA400E05812490123013804E03B
:10DE200001330A800231142B0FD0C25C002AF7D1D3
:10DE3000C022DBB25B00920008481343E5E71121E2
:10DE400000F01AF8DAE70020E0E7CA2303489B0055
:10DE5000DBE7C0463028002009040000FC18002041
:10DE6000DC230110FE18002010B5024800F0D8F89D
:10DE700010BDC046D823002030B54B1E012900D16B
:10DE8000A7E0664A11780D092C0030349F2900D98B
:10DE9000A2E00470012B00D1BEE00F2114782140D4
:10DEA0000C003034092900D998E04470022B00D1CD
:10DEB000B2E054782509290030319F2C00D990E038
:10DEC0008170032B00D1A7E00F2121400C003034DA
:10DED000092900D987E0C470042B00D19CE0947814
:10DEE0002509290030319F2C00D97FE00171052BD5
:10DEF00000D191E00F2121400C003034092900D9D4
:10DF000076E04471062B00D186E0D47825092900FB
:10DF100030319F2C00D96EE08171072B00D17BE05E
:10DF20000F2121400C003034092966D8C471082B18
:10DF300000D171E014792509290030319F2C5FD878
:10DF40000172092B68D00F2121400C0030340929BF
:10DF500058D844720A2B5FD05479250929003031F2
:10DF60009F2C52D881720B2B56D00F2121400C00D0
:10DF7000303409294BD8C4720C2B4DD09479250923
:10DF8000290030319F2C00D9073101730D2B43D06C
:10DF90000F2121400C003034092901D937310C0000
:10DFA00044730E2B38D0D1790C09220030329F29CE
:10DFB00000D9073282730F2B2ED00F220A40110096
:10DFC0003731092A01D830321100C173102B23D008
:10DFD00010300023037030BD07345AE737310C008E
:10DFE00063E707316CE737310C0074E707317DE7F1
:10DFF00037310C0085E707318EE737310C0095E7A4
:10E0000007319DE737310C00A3E70731AAE7373125
:10E010000C00C4720C2BB1D1C018DAE7D823002051
:10E0200010B588B004000D2200216846FFF76EFA93
:10E030000D22002104A8FFF769FA4B236A466846BF
:10E04000137004A90D2203F0AFFE15210822200051
:10E050006944FFF761FA08B010BDC04610B5012150
:10E060000520FBF74DFA10BD10B500220021024833
:10E0700000F058F910BDC0465C1E00208022024B03
:10E080005202DA647047C04600201150F0B5C6460F
:10E0900000B5060000F020F90C231B4DFF22AB67F2
:10E0A00005201A49FBF7B6FA40239846184C40223F
:10E0B00000212000FFF72AFA43460127238321216C
:10E0C0000023144A6770A260136063545F31618457
:10E0D00041462187053963540F4A10496360E26065
:10E0E000A1620B606362E26203F0BEFE80239B05C7
:10E0F0002F64EB6490230A4A3000EA50FFF7BEFF1A
:10E1000080BCB846F0BDC04600001150A1050020FB
:10E110003C1E002084001050000110508000105060
:10E1200010D001000B785B0602D14B78052B00D094
:10E1300070478A78014B1A60FAE7C0460000115018
:10E14000F0B5C64600B5CC7888780A794B797F213E
:10E15000A40701401B02C50913434F00A20F14007E
:10E16000324E7A195201B2189070012068405070F6
:10E1700000205B055B0DD0701383D4768046CA0007
:10E18000012D33D02A488446880162448446B44431
:10E190006046826040461060002933D0254AC9009D
:10E1A00090466246414451603F223F339343022CE4
:10E1B00000D15B0020487A1901685201B218D16081
:10E1C0001E4ACB18036051405A40802388465B01A9
:10E1D0009A4228D84346A4061C4380237F197F0116
:10E1E000F61972681B062343136011E01448844635
:10E1F000880162448446B4446046826240461060AE
:10E20000002909D100236D0175196B600D4BEB607E
:10E21000012080BCB846F0BD084AC900904662465D
:10E2200041445162C0E7FCF759FED3E73C1E002091
:10E23000840010500400105098230020000010505B
:10E24000800010500001105010B503F00DFE10BDFD
:10E2500010B57F200C0020404000E4091100001997
:10E260001A00034B4001C01800F05CF8012010BDFB
:10E270003C1E00207F23180010B50840CA090B423D
:10E2800003D107497D3B9B1A8B6640008018802292
:10E29000044B40010021C018120103F0DDFD10BD48
:10E2A000002011503C1E00207F22130010B50B40AF
:10E2B0000A4200D110BDC9095B005B1804485B012C
:10E2C000C018002300220349C37003F0C5FDF1E725
:10E2D0003C1E0020FFF7FFFF80220D4B520410B5BB
:10E2E0001A600C4B0C491A6010008B689843FBD1E4
:10E2F0000A4C9C2200212000FFF708F9802200210F
:10E3000052010748FFF702F90923636710BDC046B1
:10E3100000E0004000F0004000C00040000011504C
:10E3200000001050002310B5C3820133828283762F
:10E330000161040003F068FD002804D080219023CF
:10E34000074A8902D150200003F026FD002802D0A0
:10E350000123237710BD200003F076FDFAE7C046C5
:10E3600000201150024B5878431E9841C0B27047AC
:10E370006C160020024B18784007C00F7047C0464B
:10E380006C160020034B1878FF38431E9841C0B22A
:10E390007047C046CC0F0020F8B5CE46474680B542
:10E3A0002A4E05003378FF2B01D001203DE0532297
:10E3B00000212748FFF7AAF8264C2000FBF790FB26
:10E3C000254B1C60254C2000143CFBF7A5FB2000CE
:10E3D00001F0CCFB224B234F1C60234B9846002FAF
:10E3E0001ED01800FFF702FB204B186043461B7835
:10E3F0001F4A00249146002F14D04A46A3421AD83F
:10E400009047434601341B78E4B2A342F3D228007C
:10E410003570FFF73BFE2800FFF720FE012004E0E7
:10E420001B78E5E7002C04D00020C0BCB946B046FC
:10E43000F8BD0F4AE4E70D4A630012681B19DB00C0
:10E44000D318002BF0D01A68DAE7C046CC0F0020B2
:10E450006C16002024160020C0160020C40F0020D7
:10E46000C4160020EDD900104128002044130020DC
:10E47000FDF10010F0B5DE4657464E464546E0B584
:10E4800091B001F097F8002800D1FCE0C34BC44ED6
:10E490009946C44B0DAC0293C34B9B464B4601932C
:10E4A00035686A69EFF3108172B61368002BFCD0EF
:10E4B000BFF35F8FA9612800210001F085F96A6927
:10E4C000AB69BFF35F8F0021116083F310880028D0
:10E4D00000D1D8E06378082BE2D8019A9B00D3588A
:10E4E0009F466368002BDBD0A0689847D8E77F2061
:10E4F0002179AC4D08404300CA09EB189B181D0058
:10E5000001273035EA78BA43EA70EA780337BA432C
:10E51000EA70002800D1F2E0A44FDB7C002F06D087
:10E52000A34A1278934200D2F1E09B1ADBB2002B8F
:10E5300000D0A8E09F4DA36862792078A847AFE794
:10E540000122984D01202B78042113432B70332393
:10E55000EA5C8243EA54EA5C8A43EA540133EA5CA7
:10E560008243EA54EA5C00208A43EA5423789A46BC
:10E5700000F0F8FC602223791A40602A00D1B5E04F
:10E58000402A00D1AFE0DB06DB0E012B00D1D3E047
:10E59000022B00D120E1002B00D0A7E0202A00D1DF
:10E5A00053E1002A00D0A1E06379092B00D99DE056
:10E5B000814A9B00D3589F46029B1B78DB0700D4FF
:10E5C0006EE77E4B002B00D16AE700E000BF67E7F3
:10E5D000744D2B78DB0700D462E7794B002B00D118
:10E5E0005EE728780007C00F00E000BF58E700256D
:10E5F00023786E4F9A466E4B98461B78002F49D071
:10E600005A46AB4263D850469047434601351B7883
:10E61000EDB2AB42F2D2634D532200212800FEF747
:10E6200075FF1022FF21E81CFEF770FF2800202252
:10E63000FF211330FEF76AFF2EE0002523785B4FA1
:10E640009A465B4B98461B78002F2ED05A469D4227
:10E6500033D350469047434601351B78EDB2AB4269
:10E66000F2D2504D532200212800FEF74FFF102216
:10E67000FF21E81CFEF74AFF28002022FF2113306B
:10E68000FEF744FF14E011B0F0BCBB46B246A94609
:10E69000A046F0BD002D38D000F05AFC494B002BAD
:10E6A00000D1FDE600E000BFFAE6002D19D03D4D97
:10E6B00000F04EFC2379AB70F2E6434A6B0012681F
:10E6C0005B19DB00D318002BF1D05A68C1E73E4A32
:10E6D0006B0012685B19DB00D318002BDCD05A6882
:10E6E00091E7314AB5E7394800281AD1207800214E
:10E6F000FFF7C0FD80212078FFF7BCFDD0E6A368BE
:10E700006279207800F042FCCAE6274A7BE72E4A6D
:10E7100058001268C318DB00D318002BB3D01D6952
:10E7200009E700F01FFC012150460EAA00E000BFDF
:10E73000002800D0B4E6D9E7237A0F2BD6D81B4F98
:10E74000EB18DB78002F06D0194A1278934200D2DA
:10E750009CE09B1ADBB2002BC8D11D481D4D00F078
:10E7600001FC01215046EB680EAA9847002800D012
:10E7700096E66022150023791D401A42B6D16379CE
:10E780000A3B012BB2D800F0EDFB63790A2B00D1D4
:10E790007DE150460EA900F06FFB81E65C2401107C
:10E7A000C41600206C16002079F20010EDD900107C
:10E7B000412800206DF400108024011000000000AA
:10E7C00000000000000000004413002000000000D2
:10E7D00089F30010E82401107023217A0B4285D1BF
:10E7E000C80984460F330B405B00E8186044C07CC6
:10E7F000B14F8046002F07D0B0480078804550D3F5
:10E800004746381AC0B28046404600283AD1002A0E
:10E8100000D0F5E0AA4A9046677902203A00824388
:10E82000012A00D1F0E0002F00D05FE7EB1863442D
:10E830003033DB780CAA9B07DB0F02321380504683
:10E8400002230EA900F02EFB2AE6237A0F2B00D913
:10E850004CE7994FEB18DB78002F06D0974A1278D7
:10E86000934200D2F3E09B1ADBB2002B00D03DE7CD
:10E870009448934D00F076FB01215046EB680EAAB8
:10E88000984755E79046002AC6D02FE78E4A590090
:10E890001568CB18DB00ED18002D00D126E7E868DD
:10E8A0005DE7474688487F00006847448046FF0090
:10E8B000B844002AB0D04346002B00D116E7D868F0
:10E8C00000F050FB434601215046DB680EAA9847F2
:10E8D0002EE7A37903931A006B789A4207D06B78DE
:10E8E000002B00D058E1039B002B00D0F8E0039BE5
:10E8F00050460EA96B7000F0BFFAD1E56B780CAAF8
:10E9000002321370504601230EA900F0CBFAC7E57E
:10E91000E3881A0AD8B20F2A00D9E7E66B499300B8
:10E92000CB589F460EA800F023FB5046A179FFF775
:10E930009BFB02222B7813432B70B1E5E388012B5C
:10E9400000D0D3E608222B78504693430EA92B70B3
:10E9500000F092FAA4E5022029780CAB9A1C8B06F1
:10E960008908DB0F01400B4368E7E388012B00D0E7
:10E97000BCE608222B78504613430EA92B7000F0FA
:10E980007BFA8DE5524B002B00D1AFE600E000BFD3
:10E99000021E00D1AAE6D37891781B020B435046A1
:10E9A0000EA900F07FFAC3E64A4B002B00D19DE68A
:10E9B00000E000BF021E00D198E6504613780EA971
:10E9C00000F070FAB4E62189FFF712FA021EF4D1C2
:10E9D0008CE6022A00D12DE13F4B002B00D185E6C9
:10E9E00000E000BF0200002A00D17FE6D3E7FFF776
:10E9F000F7F9122302000EA9504600F053FA97E6E9
:10EA00002F4B304898465BE7E288002A09D1334A09
:10EA10001078012F26D0EF1867443037FB789B071A
:10EA20003ED54346002B00D13AE5D86800F09AFA6B
:10EA300043460121DB680EAA50469847002000F0AB
:10EA400091FA3423EB5CDB0700D529E5A1E61E4AE9
:10EA500059001568CB18DB00ED18002D00D145E6F4
:10EA6000E86807E730229146EB18634499444B4627
:10EA7000DB789B07D5D5FFF717FC4B460222DB78E6
:10EA800093434A46D370D378BB43D370C9E70CABEA
:10EA90009A1C504601230EA9157000F003FAFFE4FA
:10EAA000FFF7E8FB0222FB7813430122FB70FB789F
:10EAB0001343FB70B5E7C046EDD900104128002094
:10EAC000E824011089F3001044130020A824011049
:10EAD000000000000000000000000000CC0F00203B
