:020000041000EA
:1080000000200420F7800010C3800010C5800010FD
:10801000C1800010C1800010C1800010C18000101C
:10802000C1800010C1800010C1800010C780001006
:10803000C1800010C1800010C9800010CB800010EA
:10804000CD800010CD800010CD800010CD800010BC
:10805000CD800010CD800010CD800010CD800010AC
:10806000CD800010CD800010CD800010CD8000109C
:10807000CD800010CD800010CD800010CD8000108C
:10808000CD800010CD800010CD800010CD8000107C
:10809000CD800010CD800010CD800010CD8000106C
:1080A000CD800010CD800010CD800010CD8000105C
:1080B000CD800010CD800010CD800010CD8000104C
:1080C00000BE00BE00BE00BE00BE00BEEFF30580D5
:1080D000103800BEF2EB887158E9001074E9001006
:1080E0003481001090A31AE700201F49086006C8D9
:1080F00081F3088810471D48006800282FD10DA47F
:108100000ECC002902D000F012F8F9E71849194AFC
:10811000002000E001C19142FCD11749884717496E
:1081200088471749884700BEFDE701C901C29A4246
:10813000FBD3704774E90010C00000206C040020DD
:1081400020ED0010000004200000042020ED0010AD
:1081500000100420001004200000000070470948AF
:1081600003F070FD0047000008ED00E0000000D0C3
:108170007004002018130020A1A300107DDC001063
:1081800095A400105756000006005250ABB3605340
:10819000F8E5001006005250861C030208E60010A5
:1081A000060052505422A29D14E6001005005250C1
:1081B000DE65F46820ED0010F8B5C04606480749B2
:1081C000091A8B10C90FC91810B5491003D0044BF8
:1081D000002B00D0984710BD6C0400206C040020D8
:1081E00000000000054B10B5002B03D004490548E2
:1081F00000E000BFFFF7E2FF10BDC0460000000036
:108200002C0E002060E500100120704770B5D024CE
:10821000240663680125C3402B40002810D116496D
:108220000A88002B1AD063685B081D4213D1013AFB
:1082300093B20B8001F0DAFB104B1860596070BDEF
:108240000128FCD10C490A88002B0ED06368184025
:10825000C0B20028EBD1013293B2EAE763685B0851
:108260001D42E4D1013293B2E3E763681840C0B223
:108270000028DCD0EFE7C046FC1200209805002063
:10828000F0B5C64600B5EFF3108872B6254B264907
:108290001888264B0C684D681A881880244B944621
:1082A0001A685B6816001F00361BAF410A604B60FE
:1082B000340088F31088002E32D06346C01A00B212
:1082C00003F0EEFF00221B4B03F081FF06002000AD
:1082D0000F0003F0E5FF02000B003000390003F04F
:1082E00058FF04F025F8144C144B26681D68311C07
:1082F00004F057FB291C04F06EFB311C04F054FB06
:1083000020600F4C2668311C04F04BFB291C04F044
:1083100062FB311C04F048FB206080BCB846F0BD15
:108320000020E0E7FC120020A0050020021300203E
:1083300098050020006A0841CC1000209803002016
:10834000D0100020F0B5C64600B5FFF799FF04F045
:1083500071FB2B4B04B200215A5EA24242D001268F
:108360001C80284D284B28881A8882421DD01880EE
:10837000642103F0C1FCD02380221B069204C007B5
:1083800011D49A6104F02AFD012004F02FFD288801
:1083900004F048FD200004F035FD04F053FD0120F9
:1083A00080BCB846F0BD5A61ECE7184B184F18680E
:1083B00039780130186003F077FC164B197898462D
:1083C00003F072FCD02380221B06920400290BD0FC
:1083D0009A61114A1378002B0BD0013B1370002EC9
:1083E000DDD0CFE70026BCE75A610B4A1378002B9B
:1083F000F3D1422342463B703F3B1370EFE7C04648
:1084000000130020FC120020FE120020A00D00200E
:108410009D0300209C0300200A130020F0B585B0C6
:1084200000F0E8FF184BD02502930023002401261A
:108430000193164B164A0093002301F09DF8154F47
:108440002D06200000F016FA3300A3402000002281
:108450000121AB6200F09AF920003B0001220C21BF
:10846000013400F0A5F9102CEBD100F0C3FF0A4B4A
:108470000A4A029300230193094B0093002301F061
:108480007BF805B0F0BDC046E8070020458300102A
:10849000204E00000D820010A805002090D003009F
:1084A0000982001010B5040004F072FC012802D00B
:1084B00002280AD010BD0B4B62781A700A4BA278C2
:1084C0001A707822094B1A70F4E704F06FFC03F07D
:1084D000E7FE0022064B03F05CFE03F029FF054C8B
:1084E0002060E7E79D0300209C0300200A13002082
:1084F000E0FFEF409803002010B50378452B00D033
:1085000010BD411C014805F069FBF9E760E500106A
:10851000D0231B061B688D4A9900F0B54E4689464C
:1085200051585A4253412F2257464546DE465B4238
:1085300093439846864BE0B59C4683B00027019153
:10854000E044002935D0834B0F269B464246FB086A
:1085500008339B009C5801233D009A460837002CA5
:108560001ED031002140264214D05B464A469A581C
:108570005346AB401A420DD1072208002A40920010
:1085800090400200EB0874483C339B001A502800CE
:10859000019B984724090135002C01D0BD42E0D34E
:1085A000202FD3D103B0F0BCBB46B246A946A046AB
:1085B000F0BD684B00210F229B460124CD082B0003
:1085C000404608339B001B5808000831002B00D19F
:1085D0009DE017001F40BC461A420BD05F464E4636
:1085E000BE59270087403E4204D166465A4F3C356B
:1085F000AD00EE511D0900D189E017002F402A423D
:1086000011D02600451CAE400195B4465D464E464D
:10861000AE5965462E4206D1019D4F4EED083C35C0
:108620003F01AD00AF511D0A71D017002F402A4203
:1086300011D02600851CAE400195B4465D464E46DD
:10864000AE5965462E4206D1019D434EED083C359C
:108650003F02AD00AF511D0B59D017002F402A42E9
:108660000AD02600C51CAE400195B4465D464E4674
:10867000AE5965462E424ED01D0C48D017002F40F3
:10868000BC462A4209D00126071DBE40B2464E46CE
:10869000304DAD595646354245D01D0D37D01600E8
:1086A0002E40B4462A4209D00126471DBE40B2469C
:1086B0004E46284DAD59564635423ED01D0E26D069
:1086C00016002E40B4462A4210D00126871DBE4017
:1086D000B2464E461F4DAD595646354206D1664606
:1086E000FD083C3537061C4EAD00AF511B0F07305F
:1086F000002B0CD04D465E467759250085402F4211
:1087000005D1C008144D3C301B078000435120297F
:1087100000D053E746E7019D0F4EED083C353F037F
:10872000AD00AF51A8E765462D04AC466646FF088C
:108730003C37BD00084FEE51AFE76646FD083C35BB
:108740003705054EAD00AF51B8E7C0461C09002003
:1087500030410140A40E002000400140094A10B5FC
:1087600094464024830063441A68C0006240803409
:1087700014408022520113431C60034B9C4660440A
:10878000416010BD04C0014000400140074B800023
:108790009C4660440368C90092000A435A400C2377
:1087A0001A4080235B0103431A60704704C00140F4
:1087B000F8B51D00D0231B061C680600604244412A
:1087C0002F20644284432748F7088446072030401E
:1087D000800081403800244E3C3064448000BF005B
:1087E0008151E419002A11D08022920122431160A4
:1087F0001C681E4EA400A359002B15D0002D25D0B7
:10880000A55101210D2000F029F9F8BDC0229201E7
:10881000224311601C68154EA400A359002B0CD0F4
:10882000002D18D0A551F0E7002DEAD000220D2030
:108830000F49A55100F07EF9E3E7002DE5D00022B5
:108840000D200B49A55100F075F9DEE70D20084910
:1088500000F06AFAD4E70D20054900F065FAA55149
:10886000D3E7C04630410140004001401C090020D0
:10887000118500100123D022834012069362936178
:10888000094A40219446830063441A68C0004A4064
:10889000803111408022520113431960034B9C46E2
:1088A000052360444360704704C00140004001401C
:1088B000024B18688007C00F7047C04600C00640D2
:1088C000EFF3108072B6034A1368002BFCD0BFF39D
:1088D0005F8F70472C0100D0BFF35F8F0022024BE7
:1088E0001A6080F3108870472C0100D070B5EFF348
:1088F000108C72B60D4D2B68002BFCD0BFF35F8F30
:108900000724CB08C618C05C01230C40A3401C0000
:108910000440034207D118433070BFF35F8F2C60CF
:108920008CF3108870BD100001F0B8FD2C0100D050
:10893000F8B54746CE46884680B5EFF3108C72B640
:10894000214D2C68002CFCD0BFF35F8F9A422CD8AD
:10895000D4080727055D061901241740BC402C42A6
:108960001FD007210127894609E0D408055D0619B3
:108970004C4639001440A1400C00294211D001326C
:108980009342F2D201204042BFF35F8F00220E4B90
:108990001A608CF3108800280FDBC0BCB946B046C3
:1089A000F8BD254310003570EEE7BFF35F8F00235D
:1089B0002B608CF31088012040424346002BECD002
:1089C000089801F06BFDC0462C0100D030B5EFF3E4
:1089D000108C72B60A4C2368002BFCD0BFF35F8F5B
:1089E000072301220B409A40CD08435D9343435532
:1089F000BFF35F8F002323608CF3108830BDC04627
:108A00002C0100D00021044B044ABFF35F8F02C346
:108A10009342FAD17047C046000100D0800100D0D7
:108A2000044A1078431CDBB2172B00D910231370B3
:108A30007047C0469E03002010B5064B064C82B01E
:108A40000100009318221F232000FFF771FF02B0DE
:108A500010BDC04668E500102409002001238340B2
:108A6000002904D0034A1360034A13607047034A85
:108A70001360FBE780E200E000E100E080E100E05D
:108A8000024B10309B688000C058704700ED00E03A
:108A900070B50D00EFF3108672B60F4A1368002B05
:108AA000FCD0BFF35F8F0D4B10309B6884001B59C7
:108AB0000B4A934203D09D4201D001F007FD074BC2
:108AC0009B681D51BFF35F8FBFF35F8F0022024B86
:108AD0001A6086F3108870BD240100D000ED00E01C
:108AE000CD800010EFF3108172B60E4B1A68002A89
:108AF000FCD0BFF35F8F0C4A103092688000805822
:108B0000BFF35F8F00221A6081F31088074B9842F1
:108B100006D02F23064A821A93429B411840704781
:108B20000020FCE7240100D000ED00E0CD80001023
:108B3000A0030020F0B557464E46DE464546E0B558
:108B400085B0060000911700EFF3108B72B66A4AE9
:108B50001368002BFCD0BFF35F8F0025674B5D5778
:108B60009A46002D00DAA9E06B00654C01935B1971
:108B70009B009846A146C1444B4652469B7910360D
:108B80001370604BB6009B6899590B1B2F2B33D980
:108B90005D4B994200D0ACE0019B42469C465B4B4A
:108BA0006544AD0063535A4B0232A218043B9B1A32
:108BB0001B05584A5B0D651913436B80564B012109
:108BC000AB80FF23AB71009BEF71AB604B460B4357
:108BD00019004C4B9B689951BFF35F8FBFF35F8FB8
:108BE0000022454B1A608BF3108805B0F0BCBB46E1
:108BF000B246A946A046F0BD01200A008243D379BF
:108C00008C46BB4231D84546130044491B1B5B418F
:108C10005943090D3D4B63533D4B02356519043BE8
:108C20005B1B1B053B4D5B0D2B43AA464D466B80E2
:108C30000425AC465546E044131F44441B1B1B054A
:108C40005B0D1D434B46997100999D809960494683
:108C5000DF71334B01431360BBE75800C01880003D
:108C60002018C179B9422FD902000623D356002B10
:108C7000F3DA02932B4B61460393131D9A460423A8
:108C80005B429C46E14450464B461B1A1B055B0D5C
:108C90009C46204B9571984663464046034393801B
:108CA000019B5A199200039BA418A380029B1C4AA3
:108CB000A371009B2260E771A3608AE701F006FCC4
:108CC000002553465D574FE7908802934005131DDA
:108CD0009A46031561469C464046D4446346043098
:108CE0002018181AE0230005400D1B0218430390BA
:108CF000C5E701F0EBFB4FE7240100D0081300208B
:108D0000A003002000ED00E0CD80001000A1FFFFD7
:108D1000D003002000E0FFFF01BDFFFFAAAA000072
:108D20000148804701BD0000F0B5DE4657464E467B
:108D30004546E0B50C0083B0EFF3108872B65D4A8B
:108D40001368002BFCD0BFF35F8F5B4B5B499A68C5
:108D5000030010339F00D5598D4239D0A5424AD027
:108D6000574EAA1B2F2A33D80122924682409146A1
:108D70004846544A1268104001904846524A1060D2
:108D8000BFF35F8FEFF305829346002A35D09342FD
:108D900001D001F09BFB2A0053469A43906884421D
:108DA00008D175E04B005B189B00F3189868A0424F
:108DB00034D01A00062151560029F3DA844253D0E8
:108DC000019B002B26D04A46404B1A603D4B1A604F
:108DD000394B9B68DD51BFF35F8FBFF35F8F00227C
:108DE000344B1A6088F3108803B0F0BCBB46B2461F
:108DF000A946A046F0BD0D00EAE72A0053469A4373
:108E000090688442D6D1062010561300002809DA53
:108E10000D0031E04A462C4B1A60D9E7062018565F
:108E2000002822DB42001118890074188A46A168C4
:108E30009960E179D971062161569971002925DB84
:108E4000A488F11A6405241554440919E02409057D
:108E5000490D24022143998013181D4A9B00117863
:108E6000F31899711070ABE713005946002914D11B
:108E7000FF3191711749918015490A789A71164A04
:108E80009B1B5B415A43120D0A7099E71349E2E7B5
:108E90000620105613000028C4DA114A1149D21ACC
:108EA000083A5002400D014399800F4952080A4385
:108EB000DA8085E7240100D000ED00E0CD800010CD
:108EC000A003002000E100E080E100E080E200E09B
:108ED0000813002001BDFFFFAAAA000001BD000089
:108EE000DA03002000F0FFFF00F8FFFF70B5EFF39A
:108EF000058101240443EFF3108C72B6214A1368F4
:108F0000002BFCD0BFF35F8F1F4B05001F4AED1AEB
:108F10006D416A43120D1E4D8900AE6852B27658FB
:108F2000A6421CD00621595691421CD012215956F6
:108F3000914222D01E215956914220D02A215956C1
:108F40000324914210D0134B19781A708171BFF32A
:108F50005F8F00220B4B1A608CF3108870BDAB68DA
:108F60000D4C5C50EFE700246100091989005B1883
:108F7000FF21997109499980E5E70124F4E702246A
:108F8000F2E7C046240100D0A0030020AAAA0000F6
:108F900000ED00E008130020CD80001001BDFFFFB0
:108FA000054B064A1360064A136053609360D36012
:108FB00013615361936170478080808000E400E01A
:108FC00004E400E070B504000E001500FFF728FD72
:108FD0000100200000F006F8A680E580BFF35F8F57
:108FE00070BDC046024B9C466144890001607047D9
:108FF0004000003410B50400FFF712FD010020000E
:10900000FFF7F0FFFF232371BFF35F8F10BDC04652
:1090100010B50400FFF704FD01002000FFF7E2FF98
:10902000FF23A380BFF35F8F10BDC04610B50400BF
:109030000120FFF701FD034BC3189B002360BFF322
:109040005F8F10BD4000003483680B4810B5844624
:10905000614462441201090159189B185C684A680E
:109060000120944201D802D00020C0B210BD1A687D
:109070000B689A42F9D8F7E7FFFFFF0F10B5080019
:109080000B690C009847002802D02068616810BD69
:10909000E06000210020FAE70A4B1968EFF3108026
:1090A00072B60A68002AFCD0BFF35F8F1B68BFF35B
:1090B0005F8F00221A6080F3108840BF00200021DB
:1090C0007047C046C4100020F8B5574645464E4686
:1090D000DE46E0B598460CAB1C780DAB1B7807005C
:1090E00091469A460568002C59D1AC7B002C3BD0A8
:1090F000660029683619033E89194B78AB73002B3B
:1091000000D1EB7300238B704B700B702D4BE2186A
:10911000BB6812019B184A461A6042465A600A9A76
:109120009A600B9ADA6000238B704B700B706B7B2C
:109130009B46002B26D022006B685946A8689847AA
:109140005B465B005B442A68033B002812D058460C
:109150009619B070D118D35C002B00D073705B46A9
:109160000C706B735C450ED0F0BCBB46B246A94692
:10917000A046F8BDD3189C709119925D002A1CD1AD
:109180005B460B706C734A464346387D00F08EFC9C
:10919000051E0AD10E9B002BE6D01D70E4E7660089
:1091A00029683619033E8919B0E75346002BF1D1DF
:1091B0002100386800F092FEECE75A705B460B70B5
:1091C0006C73E0E7FFFFFF0FF0B5DE4657464E46F3
:1091D00045460023E0B58BB00893684B8200D45815
:1091E00000239B46099000F001FC02000B00606820
:1091F000EFF3108A72B6564601680029FCD0B246D9
:10920000BFF35F8F21684F7B8C46002F2ED0A5685F
:109210005B49A946791809018944494608684968A3
:1092200005000E00AD1A9E41002E5FDD02000B000E
:10923000099800F03BFC0023002299460023069287
:109240000793002398466368BFF35F8F5A461A60FE
:109250008AF310884346002B12D10028C3D10BB0EB
:10926000F0BCBB46B246A946A046F0BD0023002292
:109270009946002306920793002300209846E2E7D0
:10928000089B494618023843C047626805000E0033
:10929000EFF3108A72B61368002BFCD0BFF35F8F18
:1092A000002E41DB2B00334302D02369002B56D123
:1092B0002368D97B002905D01A6848004118521844
:1092C000033A57709A7B002A00D19F73DF73E268DC
:1092D000013FD35D0133D3555B4623616368BFF320
:1092E0005F8F5A461A608AF310887CE7002E02D1FD
:1092F000002D00D09AE70021604600F06DFD4B463E
:109300001A685B68069207934B469B6898464B46E3
:10931000DB689946E368DB19013B1B7808931B0265
:109320000343236100208EE72369002BC0D0069AF7
:10933000079B8021521BB34109068B4202D30122B5
:10934000104B524200210491013103914946019191
:109350004146200002970091FFF7B6FEBCE700F0FF
:1093600045FB2A00330012184B41802109068B422D
:10937000E8D30122034B5242E4E7C046500E0020DE
:10938000FFFFFF0FFFFFFF7F10B5144C6368002B3A
:1093900004D00A211248FFF725FE10BD2300114A10
:1093A0001021206800F034FC032000F013FB0320A0
:1093B00000F0E4FB03200C4900F032FBFFF730FB28
:1093C0000A4B9C4603232375D0231B061B6860446D
:1093D0006375074B80006060DC60DAE7E80300201B
:1093E000C410002049900010C991001040000034C2
:1093F000500E002000487047E8030020F0B55746A3
:109400004E464546DE46E0B585B0019310AB1B786D
:109410000600039300239A46984600927268EFF381
:10942000108B72B61368002BFCD0BFF35F8F3568CA
:10943000AC7B002C00D16EE067002B683F19033F26
:10944000DB195A78AA73002A00D1EA73484AA11896
:10945000B2680901521800980199106051600E9984
:1094600091600F99D16042469A705A701A706B7B66
:109470009946002B00D16BE022006B684946A86832
:1094800098474B465B004B442A68033B002856D064
:109490004846D719B870D118D35C002B00D07B7028
:1094A0004B460C706B734C4553D0F3681B19013B52
:1094B00018787368BFF35F8F42461A608BF3108889
:1094C0005346002B08D10002204305B0F0BCBB4638
:1094D000B246A946A046F0BD039B002B46D00E9B8A
:1094E00000200F99984703000B433FD004000D1E46
:1094F0001ADA009A019B121BAB4100920193802261
:109500001206934204D301231A4C5B420093019448
:10951000039B9A4682E77368BFF35F8F1C608BF3EF
:10952000108801204042D0E700F060FA8022001944
:1095300069411206009001919142E9D3E3E7D31803
:109540009C70D119D25D002A00D05A704B460B7026
:109550006C73307D009A019B00F0A8FA82460028C7
:10956000A3D02100306800F0B9FC9EE70020ACE7F2
:10957000FFFFFF0FFFFFFF7FF0B557464E46DE4669
:1095800045461100E0B585B006009C46109F194382
:1095900000D1E9E06146DB170193009353401C00C2
:1095A000019B4B401D0000980199241A8D41634690
:1095B0000E997B600F9BBE607B6139613A6000F061
:1095C00015FA8023001969411B0600900191994208
:1095D00004D30123694C5B42009301940023984615
:1095E000674B1097039300239946109B370046461C
:1095F00098467A68EFF3108B72B61368002BFCD094
:10960000BFF35F8F3D68AC7B002C00D179E0630035
:109610001B19033B1A00944602932B6863445A7843
:10962000AA73002A00D1EA73564AA118BA68090140
:109630005218009801991060516003999160414659
:10964000D1604A469A705A701A706B7B9A46002B0A
:1096500000D17BE022006B685146A86898475346CA
:109660005B0053442A68033B002800D164E0D11812
:109670008C465146029810188170D35C002B00D0A4
:10968000437063461C7053466B73350054455ED07F
:10969000FB687A681B19013B1B78BFF35F8F494653
:1096A00011608BF31088002D0CD147461B02234319
:1096B00001352800FB6005B0F0BCBB46B246A946A8
:1096C000A046F0BD434640461B699847061E24D07D
:1096D00043460CCB100018434CD014001D1E1FDA5B
:1096E000009A019B121BAB4100920193802212064B
:1096F000934200D27DE70123204C5B42009301940A
:1097000077E73E0047467368BFF35F8F1C608BF3BB
:109710001088012300255B42CBE747460023C8E7BA
:1097200000F064F98022001969411206009001914D
:10973000914200D25DE7DEE70298D3189C701118C1
:10974000125C002A00D05A7053460B706C73387D3F
:10975000009A019B00F0AAF9051E00D198E72100AC
:10976000386800F0BBFB93E70023012400250122A9
:109770009C461CE74746350000239AE7FFFFFF7F22
:109780007D900010FFFFFF0FF0B504000D000626CE
:109790007642F717C64636196F4100B584B08F423E
:1097A00014D811D000F022F932003B00121A8B417C
:1097B000002B15DC002B3ED02000290000F020F902
:1097C00004B080BCB846F0BD8642EBD90026002725
:1097D00000F00CF932003B00121A8B41002BE9DD3E
:1097E000002302930193154B3200009314483B0071
:1097F000FFF704FE0028DFDB00239846BC46114A31
:10980000114F7B6A9C4504D8B96A8E42D4D99C45D5
:10981000D2D11168EFF3108072B60B68002BFCD028
:10982000BFF35F8F1368BFF35F8F4146196080F30A
:10983000108820BFE5E7002ABED0D1E7999000103C
:10984000E8030020C410002000400540F0B5EFF30D
:109850000583CE46474680B505000C0085B0002B39
:1098600012D02A4A0020536AA34203D3926A0130DD
:10987000AA4204D305B0C0BCB946B046F0BD1B1B1C
:109880005A1E9341D8B2F5E7214E02930193214B22
:109890000200009330000B00FFF7B0FD031EE0DD77
:1098A00020BF7168EFF3108772B60A68002AFCD0F7
:1098B000BFF35F8FDAB29446FF2230681A40417BD3
:1098C00061450FD001688946510088464946904459
:1098D000414403398978002904D13269934209D17E
:1098E000316107E0F1681B0A8A18013A1278DBB28D
:1098F0009A4207D07368BFF35F8F00221A6087F324
:109900001088AEE7614600F0E9FAF3E70040054051
:10991000E803002099900010F0B5EFF30582D646D9
:109920004F4646461000C0B51038EFF3108872B6A7
:10993000214C2368002BFCD0BFF35F8F012319005B
:1099400081401E4D1F006963AA461D4D29601D4DB3
:109950002E78AC463500C5402F402B4215D05346DB
:109960005F6A194B8500EB589F4218D36246174B2C
:109970008E43EB581670BFF35F8F0022226088F38E
:109980001088002B06D0984704E0BFF35F8F276054
:1099900088F31088E0BCBA46B146A846F0BD0C4B2F
:1099A00092009C46624413681360BFF35F8F0023EC
:1099B000236088F31088EDE7280100D000400540BF
:1099C0003C70054014130020D41000200C08002027
:1099D000D03F054010B5034B01001800024AFEF7C6
:1099E00085FF10BD0513002084E50010034B596A64
:1099F0000A00986A596A8A42FAD1704700400540C5
:109A0000064A536A9942FCD807D1044B02E05A6ACD
:109A1000914202D19A6A8242F9D3704700400540D0
:109A200070B504000D00EFF3108672B61A4A136881
:109A3000002BFCD0BFF35F8F002D1BD02000FFF761
:109A40001FF8164981420AD02000FFF721F80121B2
:109A50002000FFF703F80123A340114A1360114BC4
:109A6000A400E550BFF35F8F00220B4B1A6086F312
:109A7000108870BD0121A1400A4BA200D5500A4BAD
:109A800020001A788A4305491A70FFF74DF9002122
:109A90002000FEF7E3FFE5E7280100D01999001048
:109AA000386005400C08002014130020F0B54F4624
:109AB000D6464646C0B507002B4C616A0D00A66A23
:109AC000616AA942FAD18B4208D805D00120E0BCD6
:109AD000BA46B146A846F0BDB242F7D9EFF3108AB4
:109AE00072B6224801680029FCD0BFF35F8F0125C0
:109AF000BD401F491C4C8846097889462943C9B294
:109B00008C46414660460870391D890065630A51DC
:109B10001849B8004350216A0020294219D0616ACF
:109B20000800A66A616A8142FAD18B4219D801D134
:109B3000B24216D8CC450BD00B4B1F221D625D6381
:109B400001233A4093400C4A136043464A461A7038
:109B50000120BFF35F8F0022044B1A608AF3108844
:109B6000B5E70020F5E7C04600400540280100D0D9
:109B700014130020D410002080E200E0EFF3108CDA
:109B800072B60A490B68002BFCD0BFF35F8F01232C
:109B90008340074A0748136202789A430270BFF372
:109BA0005F8F00230B608CF310887047280100D072
:109BB000004005401413002070B506000D0014008D
:109BC00000291DD0002A12D073688068984762006F
:109BD0006B0012195B193168033A033B002808D067
:109BE0008A189570C818CB5C002B0BD10470280024
:109BF00070BDCB189C7088188A5C002A05D105704E
:109C00002000F5E753700470F1E75A700570F7E72C
:109C100010B583600023CCB24373013342600473F8
:109C20008373C4730068421C012C05D90133DBB275
:109C3000137003329C42F9D1FF230B405A00D31812
:109C4000C01800230338437010BDC04670B505002E
:109C50000C1E07D0630001681B19033BCB185A7810
:109C6000002A01D1200070BD500080180338091867
:109C700000204E784870210058702800FFF79CFFA4
:109C8000310004002800FFF7E1FF0600002C20D07F
:109C90000028E7D0320021006B68A868984772005E
:109CA000630092191B192968033A033B002808D066
:109CB0008A189470C818CB5C002B00D053700670C3
:109CC000D0E7CB189E7088188A5C002A00D05A70A2
:109CD00004703400C6E7C046F0B557464546DE4638
:109CE0004E46E0B50D006F0001687F19033F040088
:109CF000C85D83B00192CA19002850D043001B18D8
:109D0000033BCB185E78B446002E1AD1019E002E7C
:109D100042D0E67B002E04D073009B19CB18033B86
:109D20005D70A37B002B00D1A573E57300282FD1B4
:109D30000023537003B0F0BCBB46B246A946A04610
:109D4000F0BD72006244033A8A18517888460021B7
:109D5000517089465970320001002000FFF72CFF36
:109D600043468246002B07D05B0021684344033BF7
:109D7000CB185A78002A16D1424651462000FFF7E8
:109D80001BFF2168019BCA19002BC2D10028CFD02C
:109D900043001B18033BCB1800219970C8E7019BB7
:109DA000002BB6D1C4E75000801803380918487852
:109DB000834648464870587041462000FFF7FCFE35
:109DC000594680462000FFF741FF4146020020002F
:109DD000FFF7F2FE8046CFE7F0B557464546DE4630
:109DE0004E46E0B583B00191457B04006F000068EA
:109DF0007F19033FC15DC219002952D04B005B1887
:109E0000033BC3185E78B446002E1CD1019E002E81
:109E100044D0E67B002E04D073009B19C318033B8B
:109E20005D70A37B002B00D1A573E573002931D1B0
:109E3000002328005370617303B0F0BCBB46B246E8
:109E4000A946A046F0BD72006244033A82185078D9
:109E50008046002050708146587032002000FFF785
:109E6000ABFE43468246002B07D05B00216843448B
:109E7000033BCB185A78002A17D14246514620009E
:109E8000FFF79AFE019B01002068C219002BC0D188
:109E90000029CDD04B005B18033BC31800209870FD
:109EA000C6E7019B002BB4D1C2E7500080180338ED
:109EB0000918487883464846487058704146200043
:109EC000FFF77AFE594680462000FFF7BFFE414665
:109ED00002002000FFF770FE8046CEE770B5050057
:109EE00000292CD0437B8B422ED04C000068641894
:109EF000033C0419A278002A21D053009B18033B8D
:109F0000C25CC6188A4202D11BE0002A08D0530066
:109F10009B18033BC3185A788A42F6D162785A706C
:109F2000002301222800A3706370FFF7D5FE697B30
:109F300002002800FFF740FE6873012000E00020C7
:109F400070BD63783370EBE701221900FFF7C4FEA0
:109F5000F2E7C04610B50C2082B000F0B7F9FEF76A
:109F6000A7FC002810D08B4B8B488B498B4A18607C
:109F700059609860D960186159619861D961186217
:109F800059625A6202B010BD854CA06700F0F4F926
:109F90000122844B1A60636C012BFCD10322824B9B
:109FA0001A607F4A936B012BFCD1013301217F4A58
:109FB0007F480093043300F037F905237D4A00936E
:109FC00001217D4800F030F97C4B5A68FF2A02D805
:109FD000802252005A608022734B6E4C12011A602C
:109FE0002169002907D0606901F086FE0130430035
:109FF0001B18033BFDD2E022704B714819680A40E0
:10A00000026002221968514001320A4004210260B4
:10A010009A681142FCD080216A4A090111608022AD
:10A0200052005A60684B2361684B5968FF2900D879
:10A030005A60032201215B4B1A60644A93681942FB
:10A04000FCD0E023106803406148036012680323DA
:10A050004A40022113405D4A036093681942FCD0D4
:10A0600080215C4B0901196080215B4B49005160E4
:10A0700063615A4B5A68FF2A00D859608022584BB6
:10A0800012011A60E169002907D0606901F034FE0D
:10A09000013043001B18033BFDD2E0234F4A1168F7
:10A0A0000B4050490B6080214F4B09011960802102
:10A0B000394B49005160E3614C4B5A68FF2A00D884
:10A0C000596080224A4B12011A60216A002907D088
:10A0D000606901F011FE013043001B18033BFDD203
:10A0E000E023424A11680B4042490B608021424BF9
:10A0F0000901196080235B0053608022264BD20245
:10A1000023623E4B5968914200D25A6080223C4BF8
:10A1100012011A60616A002907D0606901F0ECFD44
:10A12000013043001B18033BFDD2E023334A116882
:10A130000B4034490B608021334B090119608023A7
:10A14000DB025360154B6362304B5A68FF2A02D81A
:10A15000802252005A6080222D4B12011A60A169A0
:10A16000002907D0606901F0C7FD013043001B18CA
:10A17000033BFDD2E023254A11680B4025490B60C3
:10A180008021254B0901196080235B005360124B2D
:10A19000A361F7E670040020006CDC021BB700002E
:10A1A000008000403CB0004030B00040002F6859B3
:10A1B00000800240008C864700C002403080004092
:10A1C0003090004030A00040001BB7003C800040B1
:10A1D0003C9000403CA00040405973075480004030
:10A1E00054B000405490004054A0004060800040B3
:10A1F00060B000406090004060A000406C80004073
:10A200006CB000406C9000406CA000404880004062
:10A2100048B000404890004048A00040014B8000FA
:10A22000C058704770040020F8B5040022481E0092
:10A2300017000D0001F060FD0100380001F05CFD29
:10A24000069B36041B031E432368002B22DB1B4B9B
:10A250001B49E3185A1E93418022920194465B42A7
:10A260001B0B184A1B0363441360174A13601F003B
:10A270008A689743FBD1C022231D92011A432123F0
:10A280002560A06013602368002BFCDA0823E660D9
:10A290001360F8BD3F2322681340AB42D7D1A368B7
:10A2A0001B051B0D8342D2D1EE22E368D20213407C
:10A2B000B342CCD1EDE7C046001BB7000040FDBF64
:10A2C00000C0004000E0004000F000408023024A4F
:10A2D0009B000343D36270470080054010B5802483
:10A2E0001C4BE4051C6000281AD001231A4C1843AB
:10A2F0001A4BDC611A4C44401C62596298628021FE
:10A30000144BC9051960174817490860E021C904B2
:10A310001960002A07D18022144B12061A6010BD62
:10A320000E4BD861EBE753019B1A9B009A188023D0
:10A3300012015B049A4209D213000D490B60074BCE
:10A340005A608022094BD2051A60E8E7094B1A00CF
:10A35000F3E7C04600B00540D3C007B00080054019
:10A360002D3FF84FFCFF01000820014000A00540F0
:10A37000E40D0020FFFFFF00AA23064A1B01136023
:10A380002F230549D360054B19605368002BFCDA75
:10A390007047C0460040024000B0FA000060024032
:10A3A0002C4B2D4A70B51A602C4A2D4B2D491A6042
:10A3B00014008B689C43FBD12B4D2C4EB54208D228
:10A3C000013E761BB60808CD984723000134B342FE
:10A3D000F9D1FFF7BFFD264A214B1A60214A936845
:10A3E000DB43DB01DD09002BF9D14022214B224C5C
:10A3F000224E9A675A671A67DA66B44208D223680F
:10A400002000002B20D00834FEF702FEB442F6D321
:10A410001B4C1C4EC022B168200002F0A5FBB460AA
:10A42000FEF7F0FAFEF7BCFDFEF7AEFF164C174E36
:10A43000B44208D2013E361BB60808CC98472B0020
:10A4400001359E42F9D170BD0834FEF7D3FDB44208
:10A45000D5D3DDE700E00040BFCDFBFEFE7F3C0032
:10A4600000F0004000C000405404002064040020BC
:10A47000FFFFFF0100F001404C04002054040020C5
:10A480000000002000ED00E0640400206C040020C7
:10A4900000BEFDE710B5FFF7FBFFC0460FB400B5E7
:10A4A000084883B002F0FCFB049B002B07D005A9F1
:10A4B0001800019101F0A0FB034802F0F1FB01201C
:10A4C000FFF7E6FFA8E50010B8E5001010B5014859
:10A4D000FFF7E4FFBCE500109A4200D288547047B1
:10A4E0007047C046F8B55746DE464E464546E0B58D
:10A4F00099460A9B07009A460D9B884693460B9CFB
:10A500009B073BD10C9B9C423DD21E1B0B9415001C
:10A510000C005E442A004B46013521002020B8473C
:10A52000B542F7D1A0460B9C002C20D045463619E9
:10A530005346321B013C185D29004B46B847002C9E
:10A54000F6D12B00350098460D9B9B070FD55B4637
:10A55000EC1A0C9BA3420AD9464698462A004B4661
:10A56000310020200134B84701354445F6D3280096
:10A57000F0BCBB46B246A946A046F8BD1600150081
:10A58000002CD3D1E0E71600002CCFD11500EEE768
:10A59000F0B54F464646D646C0B584B098460EAB99
:10A5A0001B7894469946129B0D9C109F119E9A070A
:10A5B00025D4002E65D1BC4221D201221A409246F8
:10A5C000202C00D1E9E00C9A551E302202E0202C0C
:10A5D00000D17BE001342A55A742F8D85246002A20
:10A5E0000DD0B4420BD20C9A551E3022202C02D131
:10A5F00071E0202C2DD001342A55B442F9D1DA066D
:10A600003CD55A052ED4002C28D10F9A102A00D1FF
:10A61000B6E0022A00D1BCE030220C9C227001245A
:10A620004A46002A65D15A0700D499E02B220C9D96
:10A630002A55013403930C9B6246009302964346CD
:10A640000194FFF74FFF04B0E0BCBA46B146A846FC
:10A65000F0BD2024DA06EDD55A0503D4A74266D012
:10A66000B44264D00F9A102A71D0022A57D0202CFD
:10A67000E0D02200013430250C9FBD54202CD9D0CD
:10A68000CEE7012215001D40AA461A4236D04A469E
:10A69000002A4AD10C321A4247D1BC42A1D2202C06
:10A6A00091D1202E17D82024DA06C3D55A051BD401
:10A6B000202F01D0202ED5D11F220F9D102D6FD01D
:10A6C000022DD8D162250C9FBD54D0E75246002AF6
:10A6D00079D0202EBDD92024DA06ABD55A0503D473
:10A6E000202FE9D0202EE7D00F9A102AA2D12024C3
:10A6F000A0E72D220C9D2A5501349BE7BC4200D3D4
:10A700007DE7202C00D05EE7DA06F0D55A05EED4BE
:10A71000202F62D0202EEAD134001F22CDE7202C3A
:10A7200000D187E722000134CCE7013EB5E7621E85
:10A73000012CC2D10F9A102A00D06AE79A063BD5A5
:10A7400058220C9C2270283A6270022468E79A060C
:10A750000ED4202CCBD078220C9D2A55013486E7CC
:10A760001A0700D466E720220C9D2A55013461E7C0
:10A77000202CBCD058250C9A12191570013476E79C
:10A780009A0608D558220C9C22703022627002244E
:10A7900046E76032F7E77822F5E7002A83D1B3E78E
:10A7A000A21E013C9D0603D478250C9FBD5460E792
:10A7B00058250C9FBD545CE778220C9C2270483AC7
:10A7C000627002242CE7DA0600D433E75A058BD4F2
:10A7D000202F00D044E71F226FE73C001F226CE7C8
:10A7E00010B5002800D110BD02F00EFAFBE7C046FC
:10A7F000F0B557464E464546DE46E0B599B082462E
:10A80000894690460893229A239B1000190001F074
:10A8100034FD002800D0CDE0229823990122D94BA5
:10A82000524201F025FD002800D0C3E02298239970
:10A830000122D54B524201F00DFD002800D0B9E0B5
:10A84000229823990022002301F004FD002800D063
:10A85000F1E1229E239F8023269ADB001A400D926D
:10A86000269A1A4201D1062324938023269A1B019B
:10A870001A403B0093460996334300D0B3E0002AC8
:10A8800000D0C2E1002300240A930B940023042586
:10A890000993259B0024AB4200D95C1B0223269A16
:10A8A0001A400C92269A134203D06B426B415B42D2
:10A8B0001C40099B002B07D00A9A0B9B30003900E3
:10A8C00001F067FC06000F00229823990022002364
:10A8D00001F0C0FC002803D0802109067B181F006E
:10A8E000269AAA4B009601971340089E0493249B36
:10A8F00003940293424633004946504600F0AAF9B9
:10A900000400002D67D02020269A494602401300FB
:10A910005A4253415B42621C18400A9233002200A3
:10A920004530D047099A6F1ED317D4185C40D30F17
:10A930009B46002501E0202D13D008AA94461F2332
:10A94000200063440A2101355E1901F0D5F9303148
:10A95000317020000A2101F0CFF926000400092EF1
:10A96000E9D805230693002304930A3303935B4637
:10A97000089E029310AB0A9A009349463300504652
:10A9800005970195FFF704FE0C9A0400002A22D0D7
:10A990004246851A259AAA421DD9B0465746160046
:10A9A00022004346494620200135B8470134AE42D3
:10A9B000F6D810E0269B42460493259B4946039314
:10A9C000249B50460293229B239C00930194089B56
:10A9D00000F040F90400200019B0F0BCBB46B246BC
:10A9E000A946A046F0BD6A4B78009C46400D6044E5
:10A9F00001F056FC674A684B01F0E9FB674A684B77
:10AA000001F0BEFB674A3B031B0B1A4304000D0019
:10AA100009981100644B002201F0A9FB634A644BC2
:10AA200001F0D5FB02000B002000290001F0A8FB7B
:10AA300001F04EFC099001F033FC5E4A5E4B0400CD
:10AA40000D0001F0C4FB00225C4B01F099FB01F00A
:10AA50003FFC5B4A5B4B29000C90200001F0B7FBE8
:10AA600004000C980D0001F01BFC574A574B01F0F5
:10AA7000AEFB02000B002000290001F078FB04006F
:10AA80000D0002000B000A940B9501F0A0FB0400DE
:10AA90000D000A980B9902000B0001F071FB0022D7
:10AAA0000E900F914A4B2000290001F072FB00220A
:10AAB000484B01F065FB02000B002000290001F06B
:10AAC00068FB0022444B01F05BFB02000B002000FE
:10AAD000290001F05EFB0A9A0B9B0D008021040007
:10AAE000C905002001F043FB02000B0020002900F3
:10AAF00001F046FB02000B000E980F9901F049FB94
:10AB00000022284B01F03CFB344B0C9C9C466444D7
:10AB10002305002201F05BFB04000D0002000B0086
:10AB2000300039000A940B9501F094FB00285DD1A8
:10AB300023002A00C625099963318D42AD4159464B
:10AB40006D420435002900D1A3E6134363D03000E1
:10AB50003900234A234B01F083FB002807D0002251
:10AB600030003900204B01F075FB002853D1249BA5
:10AB7000002B00D18DE60D9B5A1E9341249AD31AC7
:10AB8000249386E6FFFFEF7FFFFFEFFFFFF7FFFF56
:10AB900001FCFFFFFB799F501344D33FB3C8608B88
:10ABA000288AC63F0000F03F0000F83F61436F6312
:10ABB000A787D23F71A379094F930A400000E03F75
:10ABC0001655B5BBB16B0240EF39FAFE422EE63F97
:10ABD00000002C400000244000001840FF0300004B
:10ABE0002D431CEBE2361A3F80842E41099B002244
:10ABF000013B09932000164B290001F0CAFA0A0014
:10AC0000010003000A910B9294E7002300240A93A9
:10AC10000B9400230993249A099B9A4214DDD31ABA
:10AC2000013B24938023269ADB001A43002300254E
:10AC3000269209932DE6802212069446229B1E003E
:10AC4000239B63441F0006E600232493EAE7C046E3
:10AC500000002440F0B54546DE464E465746E0B576
:10AC600095B08B46904699461E9A1F9B0A901900F4
:10AC70001000209D01F001FB002800D0B0E11E98DB
:10AC80001F990122C74B524201F0E4FA002800D07C
:10AC900037E11E981F990122C34B524201F0E8FA96
:10ACA000002800D0A7E01E981F990022BF4B01F09A
:10ACB000DFFA002800D088E01E981F990022BC4BC4
:10ACC00001F0C8FA002800D07FE01E981F990022EA
:10ACD000002301F0BFFA002800D0FAE000230B9314
:10ACE0008023229C229ADB001C401A4200D102E100
:10ACF000092D00D87CE106A98C462C0017220023E0
:10AD00003021093C62440133D154EF1A202B00D189
:10AD100032E1A342F7D10022A44B069207931E987A
:10AD20001F9901F0D5FA050001F0BAFA02000B00F4
:10AD30001E981F9901F01BFA069A079B01F047FA2B
:10AD40000890099101F0E8FA060001F0A5FA020066
:10AD50000B000898099901F00AFA0022954B089017
:10AD6000099101F085FA002800D1D2E001363000C7
:10AD700001F092FA069A079B01F072FA002801D0BE
:10AD800000260135AA46002F00D098E0280001F0E7
:10AD900087FA02000B001E981F9901F0E8F9854B15
:10ADA000002206000F0001F055FA0CAB9A4600286D
:10ADB00045D10022300039007E4B01F059FA0028BD
:10ADC0003DD1EB073BD5013539E0229B4246049348
:10ADD000219B594603930A981E9B1F9C0295009342
:10ADE00001944B46FFF704FD15B0F0BCBB46B246DC
:10ADF000A946A046F0BD229B5B0767D403226E4B99
:10AE000022990192039121990291009342464B4667
:10AE100059460A98FFF766FBE6E706AA9446172309
:10AE2000280063440A2101341E1900F03DFF30312F
:10AE3000280031700A2100F037FF051E76D0202C43
:10AE4000EBD10323229A1340012B1DD1219B002B10
:10AE50001AD00B9B002B00D0BBE0229A0C3313427C
:10AE600000D0B6E0219BA34200D887E006AB9C4609
:10AE700017223023624404E02199013413558C4297
:10AE800059D0202CF8D12024229B01940393219B9C
:10AE900002935346B9E706AA944617230A2163444E
:10AEA000300001341D1900F027FF303129703000C7
:10AEB0000A21013F00F020FF092E46D90600202C70
:10AEC000E9D155460CAB20249A46B8E704223B4B07
:10AED00096E71E9A1F9B0020002101F048F90123EC
:10AEE0000B938023229C229ADB001E901F911C4012
:10AEF0001A4200D0FCE60022314B06270692079347
:10AF00000DE7229B0393219B0293042301932D4B76
:10AF10007BE7002208980999264B01F09BF900284D
:10AF200000D02FE7002E4FD101362BE70323229AC2
:10AF30001340012B66D0202CA6D00B9B002B1FD0DA
:10AF40002D235246135501349EE75546202CB9D087
:10AF500030233A19002F08D0172006A90134091808
:10AF60000B55202CAED09442F6D10CAB9A462E2332
:10AF700052461355013462E72024CCE6202C83D0BE
:10AF8000229B5B0708D4229B1B0700D47CE720236D
:10AF900052461355013477E72B235246135501349B
:10AFA00072E7C046FFFFEFFFFFFFEF7F65CDCD41AA
:10AFB00065CDCDC10000E03FD0E50010C8E5001030
:10AFC00080842E41D8E50010F30700D4DAE601367C
:10AFD000D8E6219B013B2193A34200D946E7AAE78B
:10AFE000229B0393219B029303230193074B0CE7BE
:10AFF000074BEA009B185C681B682F0006930794B8
:10B0000000248CE6219B002B95D022E7D4E500108C
:10B0100068E80010F0B55746DE464E464546E0B5B6
:10B02000A5B01F002E9B91460D93CA4ACA4B82467B
:10B030008B461A60002900D129E20023387898460F
:10B04000002800D12BE2C54B44460C93C44B554617
:10B050004E460E930AE0631C984622003300594680
:10B06000A84744463878002800D187E001372528D2
:10B07000F1D108239A46043B9946023B9846013B8E
:10B0800000229C460B943878791C0300203BDBB2ED
:10B09000102B03D80C9C9B00E3589F460300303BC9
:10B0A0000B9C0B92092B3AD9002398462A2800D1F1
:10B0B000DDE000239A462E284BD00300683BDBB22C
:10B0C000122B1ED80E9A9B00D3589F4663460F0042
:10B0D0001A43D8E743460F001A43D4E74B460F0004
:10B0E0001A43D0E710230F001A43CCE753460F0052
:10B0F0001A43C8E780235B000B9A78781A430B92B7
:10B1000001310F0067284FD82428A4D90300253B1C
:10B11000DBB2422B9FD893499B00CB589F4600231C
:10B1200098460B9B47469C4600E00131BB00DB196B
:10B130005B001F180878303F0300303B092BF4D91F
:10B1400063460B930023B8469A460F0001312E2820
:10B15000B3D180200B9AC00002430B92302252429E
:10B16000944678780B0084446246092A00D8AAE104
:10B170002A2800D1B9E10F0001319EE7A046AA4676
:10B18000B146C84503D301235B424B4498464B4626
:10B19000424659460020D047200025B0F0BCBB46AF
:10B1A000B246A946A046F0BD01006939C9B20F29CF
:10B1B00000D950E701238B409C466B4B9946634670
:10B1C0004A4613400F9362464B461A4200D068E14C
:10B1D0000A2956D0072900D03DE70D9B02CB98469F
:10B1E000002900D092E10B9B10211A008A43100025
:10B1F00011310843814680201A00C000024011002E
:10B2000003421CD114AB9C461F220F2362440D95B0
:10B210009C4615000F9B0B9402E0202B0CD01100D4
:10B2200064460C4020003730092C00D80738013321
:10B23000E8540A090F29F0D80B9C0D9D0F934B463B
:10B240000822069353460592083203920022049383
:10B250000F9B029201931CAB2200009359463300CE
:10B260002800FFF795F9434604000D93FAE60D9B7D
:10B2700004CB9046002A79DB78780D930F000131DA
:10B2800017E70D9B02CB14930B789C46180053468E
:10B29000002B00D134E1002815D05346013B013387
:10B2A00099460D940B9C89444A460B00A14601E047
:10B2B000934203D05C780133002CF9D14A465B1AE3
:10B2C0000D9C0B920F938023DB0099460B9A134041
:10B2D0000D934B461A4204D00F9B534501D9534658
:10B2E0000F93022399460B9A13400B934B4613423C
:10B2F00000D1F5E16346002B00D1D6E10D9B002B78
:10B3000000D182E10B1BD14631009A463B00A1449B
:10B310002E005F464D4622009B46894609E04B467B
:10B320003900541CB0475346185D002800D192E103
:10B3300022009542F3D14B465A46A946BB463500FA
:10B3400017001E004C460B9B002B00D0ADE1149B58
:10B350000D9387E615B000109C0D0020C8E6001084
:10B360000CE7001058E70010419000000B9A2838B5
:10B3700002430B9242465242787890460F000D935A
:10B38000013196E678786C2800D15DE180230B9A34
:10B390005B001A430B920131B3E680239B00ABE6BE
:10B3A0007878682800D148E180230B9A01311A434C
:10B3B0000B92A6E6672800D1B2E0472800D11AE137
:10B3C000452800D11CE10B9A0721049242460D9BAF
:10B3D0000392073352468B43190002920CC928008E
:10B3E000009201930D91220033005946FFF700FAB5
:10B3F000040037E6462800D18DE00B9A072104921D
:10B4000042460D9B0392073352468B43190002922A
:10B410000CC92800009201930D9122003300594677
:10B42000FFF718FC04001DE6631C98462200330059
:10B4300059462520A847444614E60D9B04330F9334
:10B44000631C99460B9B9A0700D40AE10D9B2200CE
:10B45000187859463300A84743464444012B00D886
:10B460006FE1B0462E0025004C46B9465F462200EB
:10B470004346013439002020B047AC42F7D12C00BC
:10B48000BB4635004F4646460F9B0D93EAE5D64B2B
:10B4900038789A4600239846002800D0D3E5002447
:10B4A0006FE66F2842D000D8FDE11023782800D144
:10B4B0009BE00B9A9A430B920A239C460023149319
:10B4C0000A330F9338E057460B9AB900C91949005F
:10B4D00001330F181878303F010030390929F4D9A9
:10B4E000BA460B921F00591CE7E50D9BB87804CBB8
:10B4F0000237D143C9170A4092460D93791CDCE507
:10B50000002800D1DFE602235B42C8E621200B9A27
:10B510000243914676E620230B9A1A430B926CE77E
:10B5200080230B9A1B011A430B924CE708239C467D
:10B530000023149308330F930B9880230200DB0041
:10B540001A4011000200184200D080E00C239A43F8
:10B550001000802302009B001A400B92184200D07A
:10B56000F1E0802302005B001A4091460D9A0432FC
:10B570001492184200D0C3E2430600D5D7E0030678
:10B5800000D421E30D9B1B880993002B00D02DE1F3
:10B5900010339843002900D128E1002399464346FF
:10B5A0000593534604930F9B069003930023029345
:10B5B0004B4601931CAB22000093594633002800F0
:10B5C000FEF7E6FF0400C2E6582809D0622800D042
:10B5D000E3E202239C460023149302330F93ABE76C
:10B5E00020230B9A1A430B92103B9C460023149382
:10B5F00010330F93A0E780230B9A1B011A430B9281
:10B6000020230B9A1A430B92DDE60B1B9A460F9BE5
:10B6100099463B0037005E469B4622003B003100C6
:10B62000A84753460134185D0028F6D14B460F93C6
:10B630005B46B3463E001F0085E6C0230B9AB878F0
:10B640001A430B92F91C5CE5C0239B00F6E70D231F
:10B650009A4310007DE75B463500BB464E461F000F
:10B6600071E64346012B66D9631E434432002E0027
:10B670001D003B00A2465F4691469B4622004B467A
:10B68000013439002020B047AC42F7D15B46350089
:10B69000BB464E46A14654461F000D9B4A461878AD
:10B6A000594633004444A847EEE60F9BA14698450F
:10B6B00000D84CE64444E41AB0462E0025004C461F
:10B6C000B9465F4622004346013439002020B04786
:10B6D000AC42F7D12C00BB4635004F46464636E615
:10B6E0000F98804500D873E24346E218131A3200DF
:10B6F0002E001D003B0091465F469B460F912200A5
:10B700004B46013439002020B047AC42F7D15B46AC
:10B71000BB461F0043460F9901330F930B7835004A
:10B720009C464E466046002800D0E7E50FE60D9B9C
:10B730001B78099329E70D9B22001878594633009E
:10B74000A8474C46A0E60D9AFA3BFF3B07329A43C6
:10B750000133994691444B460D93136852681592F4
:10B760001A4306D11032904300220992002900D0DA
:10B7700083E06122810600D54122D2B20A9214AA46
:10B7800091460A9A00210A3A0B9242461792524673
:10B7900018925A46B24609911E001F31149B494423
:10B7A000BB4616941A950024674698468946159D0F
:10B7B00019901B920AE03032D2B24B4601341A552E
:10B7C000A8454CD0202C4CD006000D003A00002398
:10B7D0003000290000F0CEFAD2B2092AEBD90B9B37
:10B7E0009C466244D2B2E8E7E1A4001061238206DD
:10B7F00000D54123DBB20A3B0B93434614A91F2219
:10B800008C46159353466244B2460D9417974C46A6
:10B810008046A9461700099D0F9E169308E0303315
:10B82000DBB201343B55B5420ED3202C0CD00500C1
:10B830003100280000F060FACBB20929EFD90B9A49
:10B8400094466344DBB2ECE7159B40469846169B52
:10B850004D465646A1469A460D9C179F9FE6B74215
:10B86000B0D9179B56469846189B5F469A461B9B35
:10B8700009949B46169C19981A9D43460593534676
:10B8800004930F9B0690039300230293099B01935B
:10B890001CAB22000093594633002800FEF778FEC7
:10B8A0000400FFF7DFFB10230B9A9A430F926928DD
:10B8B00000D091E10B9980230A00DB001A401000B0
:10B8C0000A00194203D0112118008A430F920F9ADF
:10B8D000802311009B0019408C461A425BD18023C3
:10B8E00011005B00194089460D9904310B911A42F1
:10B8F00000D0B2E013005B0600D4EDE00D9B1B7896
:10B900001A00D90F0D91002B00D1A3E0100014AA4A
:10B91000944642461F23159252466344A846BA46AF
:10B920004D461494B14604001F00169201E0202DEC
:10B930000FD020000A2100F0DFF901357E193031E7
:10B94000317020000A2100F0D7F926000400092EEA
:10B95000EDD8159B4E46A94645469846169B574638
:10B960009A46149C0F9B06934346059353460493B3
:10B970000A2303930D9B02934B4601931CAB2200B9
:10B980000093594633002800FEF702FE0B9B04008B
:10B990000D93FFF767FB07220D9B0733934301329B
:10B9A00094469C4462460D920CCBD90F0B9111002A
:10B9B000194300D19BE0D917139112915140109176
:10B9C00013995940119110981199129A139B801A4A
:10B9D00099411090119114AA944642460023159261
:10B9E00052469946169232001F336344A8464E468B
:10B9F000BA4614941F00109C119D914601E0202E20
:10BA000010D0200029000A22002300F0B3F90136EB
:10BA100030322B00BA550D0022000400002BEED16D
:10BA2000092AECD8159B10941195454698464B462B
:10BA3000169AB14657461E009246149C0F9B0693D9
:10BA400043460593534604930A2303930B9B0293A7
:10BA50004B461CE7002885D159E70D9B1B68DA0F80
:10BA60001100002B00D1A6E0DA179818504014AA54
:10BA700091461F2342464B44A8460D941697040056
:10BA80006546B1461F001491159201E0202D0FD09C
:10BA900020000A2100F030F901357E193031317073
:10BAA00020000A2100F028F926000400092EEDD814
:10BAB000159BAC4645469846149B4E4619000D9C76
:10BAC000169F0F9B0291069343460593534604939A
:10BAD0000A230393634650E713001B066ED50D9BA4
:10BAE00000229B5ED9175A184A4092B209E70023F8
:10BAF00099460028A2D100220023109211936AE7F0
:10BB00000D9B1B689946002B03D1103398430029E5
:10BB100038D16123820600D54123DBB20A3B0D9365
:10BB200043461693534614A91F228C4617932B00A5
:10BB300062444D46B24615941897804617009946C0
:10BB40000B9C0F9E08E03033DBB201343B55B5420D
:10BB50000ED3202C0CD005003100280000F0CCF8CA
:10BB6000CBB20929EFD90D9A94466344DBB2ECE7D6
:10BB7000169B40469846179B56464D469A460B9450
:10BB8000189F159C43460593534604930F9B0690BC
:10BB90000393002302930B9B0BE50B9980230A0070
:10BBA000DB001A4010000A00194200D08BE6102377
:10BBB0009A430F928BE6002883D158E70D9B1B68B0
:10BBC000D9175A184A409CE60D9B1B680993DCE480
:10BBD000030001330F93A5E50B926DE410B5054CFE
:10BBE00082B0009313000A0001002000FFF712FA50
:10BBF00002B010BDD9A4001010B5094A03001468A2
:10BC000084B0002C08D0012200910648524203A9BA
:10BC1000A047012004B010BD01F042F80020F9E770
:10BC20009C0D0020E1A7001001480421014B18479A
:10BC30001004002065BC0010014B9B6818470000F1
:10BC400010040020142310B50100188804331B8849
:10BC5000984710BD162310B50100188802331B88C1
:10BC6000984710BDF8B54746CE4680B50F1E19D08F
:10BC700014239946043304000025012698464B46B8
:10BC80001888434621681B88984701C4431E984181
:10BC9000013540420640AF42F1D13000C0BCB94648
:10BCA000B046F8BD0126F8E7124A936F9B0815D2FB
:10BCB0009066D166002905D0FFE7FFE7FFE7516FE7
:10BCC000106F704704B580210906C2175140002843
:10BCD00000D0C84302F024FC002104BDF0B5146E6E
:10BCE000556E576F166FFFF7E3FF1466556657677B
:10BCF0001667F0BD000000D0114A936F9B0813D265
:10BD000010665166002905D0FFE7FFE7FFE7516F96
:10BD1000106F704704B5002801D00020C04302F026
:10BD2000FFFB002104BDC046F0B5146E556E576F81
:10BD3000166FFFF7E5FF1466556657671667F0BD87
:10BD4000000000D094464A4A926F9208624601D29F
:10BD500028E0C046F0B5464E346E756E776F366F8C
:10BD600000F020F89446424A1466556657671667F5
:10BD70006246F0BD94463E4A926F9208624601D2F6
:10BD800054E0C046F0B53A4E346E756E776F366F3C
:10BD900000F04CF89446364A1466556657671667A5
:10BDA0006246F0BD002B24DB11D000293EDA00B53D
:10BDB000C943404200D1013100F038F8C943404244
:10BDC00000D10131DB43524200D1013300BD002AD2
:10BDD000EBD1002801D1002905D00020C90FC907E7
:10BDE00001D1C043410800B502F08AFB00220023C4
:10BDF00000BD00B500290ADBDB43524200D101330C
:10BE000000F014F8C943404200D1013100BDC943DC
:10BE1000404200D10131DB43524200D1013300F0F6
:10BE200005F8DB43524200D1013300BD002923D184
:10BE3000002B18D1002A0CD0BC460D4F38667A660C
:10BE400000210023FFE7FFE7FFE77A6F386F6746BF
:10BE50007047002801D00748010000B502F050FBF0
:10BE60000022002300BD02000B00002000217047CB
:10BE7000000000D0FFFFFFFF002B00D0BFE0130C3D
:10BE800028D1002AE7D080B4114F39667A66FFE7DF
:10BE9000FFE730B4040C7B6F396F1B0423433B6610
:10BEA0007A66FFE7FFE7FFE7C04684B27B6F3D6F2E
:10BEB0001B0423433B667A66FFE7FFE7C046002387
:10BEC0002C042D0C7A6F386F00196941B0BC704793
:10BED000000000D0F0B594460025140E01D11202E6
:10BEE0000835140F01D112010435940F01D19200CD
:10BEF0000235D40F01D152000135D40B0134254F46
:10BF00007C66254C3C660E0C93B2FFE7FFE7FFE72B
:10BF10003C6F6643360C7703BE467343DF0B5B040E
:10BF2000C01AB941130C7343DB18C91ACE08664313
:10BF3000360CB64493B273431F0F1B01C01AB941AC
:10BF4000130C73431F0B1B05C01AB941860D8F02DA
:10BF50003E436643360C092D24DB520A7243801A95
:10BF60007703460A6643360C16235B1BDE40DF4030
:10BF7000BF1964466643821B7046043506330100D0
:10BF8000D940A840C01900D30131A24206D20023F3
:10BF9000F0BD0000000000D0FFFFFFFF121B0130CA
:10BFA000F3D3F1E709277F1BFE406446A2B2724338
:10BFB000801A00D20139220C7243130C1204821A27
:10BFC00099410B007046043513370100F940A84031
:10BFD000801900D30131002B02D1A2420AD2F0BD58
:10BFE000013000D30131121BFAD2013BF8D1A24239
:10BFF00000D2F0BD013000D30131121BF7E7F0B5DC
:10C000001C0C00D080E00CB400251C0A04D11B02DB
:10C01000160E3343120208351C0B04D11B01160FF8
:10C020003343120104359C0B04D19B00960F33431C
:10C0300092000235DC0B02D192185B4101351C00E5
:10C04000971864410134464F7C66464C3C660E0CA2
:10C05000FFE7FFE7FFE7C0463C6F6643360C770318
:10C06000BE4697B27743C01B00D20139C01B00D235
:10C0700001399FB27743C91BC91B170C77437E0454
:10C08000FF0B801BB941CE086643360C0C2D33DB09
:10C09000B644120B1F053A431B0B97B27743C01BE4
:10C0A00000D201399FB27743C91B170C77433E0476
:10C0B0003F0C801BB941860D8F023E436643292702
:10C0C0007F1BFE400C3D7746AF40BF1930BCA2B28B
:10C0D000ABB272437343801A9941220C7243130C22
:10C0E0001204801A994102000B000137001BA9417C
:10C0F000F9D2781E0021F0BD0C277F1BFE40774649
:10C100007F0BAF40FF19E0E700245D1C07D0144F00
:10C110007D663966FFE7FFE7FFE7FFE73C6F95B213
:10C120009EB265436643401BB141150C1E0C65432E
:10C13000664336042F0C3E432D04401BB141994207
:10C1400004D202000B0020000021F0BD01D190427A
:10C15000F7D3801A994101349942F2D3F6E70000EF
:10C16000000000D0FFFFFFFF48404140484018B4A6
:10C170001B4B5B68FC46019308BD04DF13C4001031
:10C1800018B4174B1B68FC46019308BD00DF1DC4A3
:10C1900000109446134A926F920809D2624618B46E
:10C1A0000F4BDB68FC46019308BD0CDFD5C60010C1
:10C1B0000C4AF0B5146E556E576F166F6246FFF756
:10C1C000EEFF084A1466556657671667F0BD18B447
:10C1D000034B9B68FC46019308BD08DF79C500103E
:10C1E000E8050020000000D0FFB55040424050401C
:10C1F00059404B40594000E0FFB5154F4C00640DCD
:10C2000003D0BC4204D10C0314D80020090D090549
:10C210005C00640D03D0BC4204D11C030AD8002288
:10C220001B0D1B0501264B4009D44B4003D58B4207
:10C2300000D18242FFBD9942FCD19042FFBD0B4329
:10C24000DB1803431343F5D0C9434918FFBD000071
:10C25000FF07000000B5FFF7CFFF804100BDC046DB
:10C2600000B5FFF7C1FF01D9002000BD012000BDCE
:10C2700000B5FFF7B9FF804100BD012040054A002D
:10C28000121804D85A00121801D800207047012053
:10C2900070470020704700000021002805D170473A
:10C2A000C1174840401AFAD0C90713B5064B1B689E
:10C2B00098470CBC441CA2401005120B0349091BF3
:10C2C00009051943114310BDC01000201F040000D0
:10C2D00010B54C00620D8023D218DB00D21A5B052A
:10C2E0007E2A10DD9E3A13DACC1709034908194358
:10C2F0005242D140640001341532202A05DAD04080
:10C300000843604310BD002010BD0846604310BDC7
:10C31000C80FC018013810BD18B4044B5B6AFC4646
:10C32000019308BD24DF85C800100000E805002047
:10C3300018B4044BDB6FFC46019308BD7CDF05C9D4
:10C3400000100000E8050020132370B51D78012DB2
:10C3500015D010DD1D48FFF77DFC1D4C010080222B
:10C36000200000F001FC022D2DD01A48FFF76AFCD6
:10C37000194B186070BD194B154CA364F5E7174BAA
:10C38000134C23606360A360E36023616361A36176
:10C39000E36123626362A362E36223636363A36373
:10C3A000E36323646364A364E36423656365A36553
:10C3B000E36523666366A366E36623676367A36733
:10C3C000E367A364D1E7054BA364CEE753440000C1
:10C3D000E80500204C330000C0100020E1C300102D
:10C3E00007B5604601880A0A0230DF2AFAD1C9B2CD
:10C3F000820804D3028840880004104300E00068EB
:10C40000014A5050039007BDE80500200FB403BC5B
:10C410000CBCF0B50124E407634000E0F0B50C0D5E
:10C42000CF0F661E3605891B640503D3C9434042FE
:10C4300000D30131640D03D0661CF60A07D0E41B5B
:10C4400000207F00791C89078912803C24031D0D80
:10C45000DF0F6E1E36059B1B6D0503D3DB43524277
:10C4600000D301336D0D03D06E1CF60A07D0ED1B0F
:10C4700000227F007B1C9B079B12803D2D032F1BFE
:10C48000661B58D4A446202E46DA20371400BC4040
:10C490001D00BD40F24033412A4380185941CB0F63
:10C4A00005D0C943C0430022644250415141624615
:10C4B0004D0D28D10D0D07D100281FD02419404162
:10C4C0004941013A0D0DF9D0640006D3013000D383
:10C4D0000131002C01D140084000013A0BD4941CDA
:10C4E000E40A04D112051144DB071944F0BDD90751
:10C4F000204B194300E0D9070020F0BD0029DDD111
:10C50000002CDBD1F0BD0132C6074008CD0728431F
:10C510004908002EE1D0D9E73C2E29DA203E4037E9
:10C520001400BC4000D00124F24014431A00BB4068
:10C530001C43D317ACE7AC46202F08DA20360400A2
:10C54000B4400D00B540F84039412843A5E73C2FE1
:10C550000CDA203F40360400B44000D00124F840FB
:10C5600004430800B1400C43C117EAE7100019006A
:10C57000002494E70000F07FF0B50C0D661E360530
:10C58000891BE60A6405640D02D0651CED0A04D01F
:10C59000002001210905803C2403A4461C0D671ED0
:10C5A0003F05DB1BE70A6405640D02D0651CED0A3C
:10C5B00004D0002201231B05803C240377406444FF
:10C5C00097B484B296B27443070C7E43150C6F4344
:10C5D00080B26843361802D3012000043F183004AB
:10C5E000350C00197D41844688B29AB250430C0C38
:10C5F00062431F0C7C438EB27E43921902D3012604
:10C600003604A4191604170C3618674101BC81B210
:10C610009AB25143040C62431B0C5C4380B25843F2
:10C62000121802D30120000424181004130C40181F
:10C6300063412D185E410020474106BC88B293B289
:10C6400058430C0C6343120C544389B251435B189A
:10C6500002D301210904641819041A0C0918624153
:10C660006D1856410020474118BCF902720D114364
:10C67000F0026A0D1043ED020A0D03D16D1940411D
:10C680004941013B124E9B1B7600B3420ED26D0016
:10C6900007D30130002671416646354301D1400879
:10C6A00040001B05C918E4072144F0BD0BDA013333
:10C6B00006D1013004D101314F0D01D04908F2E714
:10C6C000E1070020F0BD013631050020EBE7000056
:10C6D000FF030000F0B51C0D671E3F05DB1BE70ADA
:10C6E0006405640D02D0661CF60A04D00022012302
:10C6F0001B05803C2403D0252D060026F6432E661C
:10C700001E096E66CE0FF619B44649004F0D02D0D1
:10C710007E1CF60A03D000200021403F3F033E1B51
:10C72000B600B444013F7F05C91B49082E6F01368E
:10C7300076089C02950D25437543ED137543AD13A3
:10C7400001356D10F603761B0CB4CC02450D2C435D
:10C75000A2B2B3B25A43270C7B43350C6F43A4B249
:10C760006C431B1902D3012424043F191C041D0C23
:10C77000A4187D4124196D41009A91B2ACB2614375
:10C78000170C7C432B0C5F4392B25A43A41802D37C
:10C7900001221204BF182204230C52187B41019C71
:10C7A0006C431B19520ED9010A434401A01A81B2ED
:10C7B000B2B2514303145A43360C734387B27743E2
:10C7C000D617D21900277E4136049B191704160C80
:10C7D0007F185E417316ED18F30100268033754112
:10C7E000A90F06D16400690AE8055B0A184309D25B
:10C7F0002FE00422944480337541A90AA8059B0ABE
:10C80000184326D3404149412404009A019B0D005E
:10C810005543641B4343E41A95B286B27543170C23
:10C820007E43030C5F4392B25A43B61802D30122EF
:10C830001204BF183204330C52197B4152429C41FE
:10C84000002C02D40022013051414008CA07104395
:10C85000490802B06246D7079210084BD218084B1D
:10C860009A4203D212058918C919F0BD0020002A86
:10C8700001DC3900F0BD01331905F5E7FD030000C7
:10C88000FE070000002200B5203200F004F8080086
:10C8900000BD000000220B150AD410B5944600F02C
:10C8A0005FF81414013400DA0021CB17144C204730
:10C8B0000020002170476244343A0CD40C2A07DA75
:10C8C00004009140904052422032D440214310BD98
:10C8D000D843D94310BD203207D40C46944052426D
:10C8E00020321141D040204310BD0800C91720322A
:10C8F00003D452422032104110BD1800190010BD5F
:10C90000B7C800104A00520D144BD21A13DDFF2A8B
:10C910001EDAD205CB0FDB071A43C300400F090311
:10C92000490A084310435B0001D301D0013070472E
:10C930004308FBD2704702D0C80FC00770470A03F4
:10C9400012130132F8D1420F072AF5D1012200E07B
:10C95000FF22C80F00028018C00570478003000046
:10C960000A0DCC0F531E1B05C91A520503D3C94328
:10C97000404200D30131520D03D0531CDB0A07D0D3
:10C98000121B00206400611C89078912803A12037F
:10C99000014BD21A70470000FF030000484041409D
:10C9A00048400E4B5B6818470C4B1B6818470C4AF5
:10C9B000936F9B0802D2094BDB681847F0B5146EE1
:10C9C000556E576F166FFFF7F6FF054A14665566EA
:10C9D00057671667F0BD014B9B681847E8060020B3
:10C9E000000000D0491A002808D10846704700000E
:10C9F000C10FC90700D54042002817D0F44603B440
:10CA00000B4B1B68984706BC81409E3840428031E2
:10CA100007D20B0607D04900490AC0051043084356
:10CA200060470130F8E7490A8902F5E770470000DE
:10CA3000C010002041000A0E80231B067E2A0BDD59
:10CA40009E3A0BDAC1174002400818435242D040C8
:10CA5000490001314843704700207047C00FC0189B
:10CA600001387047C0420DD300B540004008002196
:10CA700000F012F8002801D4404200BD80200006DA
:10CA800000BD0000034BDB69FC4618471CDF35CBBB
:10CA900000100000E8060020014B5B6A1847000008
:10CAA000E8060020132310B512481C78FFF7D2F8CF
:10CAB0000100012C0AD003DD80220F4800F054F859
:10CAC0000E48FFF7BFF80E4B186010BD0A4C5422F9
:10CAD000200000F049F80B4B6365A365E36523660E
:10CAE0006366A366E36623676367A367E3672362FE
:10CAF000E361E5E753460000E80600204C33000000
:10CB0000C010002009CB001007B5604601880A0A52
:10CB10000230DF2AFAD1C9B2820804D302884088E1
:10CB20000004104300E00068014A5050039007BD24
:10CB3000E80600200021C2158032803201D0024A6E
:10CB40001047002070470000CD2A00000148042152
:10CB5000014B18472004002065BC0010014B1B68E6
:10CB60001847000020040020014B5B6818470000B4
:10CB700020040020F0B5C64600B5437D07000D0037
:10CB80001600002B38D0002A2EDD00216A1E9046A8
:10CB90006A5C037D4C1C00200A2A0CD0A64216D0E9
:10CBA00043461B5D21000D3B5A4253416A5CDBB298
:10CBB0004C1C0A2AF2D1002BF0D1884217DB02214B
:10CBC00010483B689847A64207D02000E8E7864215
:10CBD00003DD311A3B6828189847AD19013D2B78C1
:10CBE0000D3B5A4253413B7580BCB846F0BD091A13
:10CBF0003B6828189847E2E7036811002800984727
:10CC0000F2E7C046DCE80010F0B5CE46474680B5F6
:10CC100083B06B460600DD1D2870FCF7E7FE00239D
:10CC20001A4A12184B41802109068B4202D3012275
:10CC3000174B524217490800884601F081FC164BF9
:10CC400081461C68002C14D0144F02E02469002C8B
:10CC50000FD02368002BF9D03B68002B01D0A342F2
:10CC6000F4D1200001222900FFF784FF2469002C61
:10CC7000EFD14B46002B05D1300003B0C0BCB94604
:10CC8000B046F0BD404601F033FCF5E740420F00EE
:10CC9000FFFFFF7F4C0400207C090020800D002056
:10CCA000F0B5DE4657464E464546E0B585B007002E
:10CCB00001F0E6FB0600FCF799FE00232B4A121850
:10CCC0004B41802109068B4202D30122284B52425C
:10CCD000284908008B4601F033FC274B01901C6863
:10CCE0009A46002C3BD0254B984602ABDD1D0A230B
:10CCF000994602E02469002C17D02368002BF9D054
:10CD000043461B68002B01D09C42F3D12000320027
:10CD10003900FFF72FFF4B462000012229002B701E
:10CD2000FFF728FF2469002CE7D1019B002B18D1C5
:10CD300053461C68002C06D06368002B0BD0984724
:10CD40002469002CF8D1300005B0F0BCBB46B246D7
:10CD5000A946A046F0BD2469002CEDD1F3E70028D8
:10CD6000F1D0584601F0C4FBE2E7C04640420F0054
:10CD7000FFFFFF7F4C0400207C090020800D002075
:10CD800000207047014B186019717047840D002016
:10CD9000054B1879002806D01A68013811781871E7
:10CDA000080001321A607047840D002010B50A4A4D
:10CDB0001379012B0CD91168023B48780C780002DA
:10CDC000204340BA023180B21160DBB2137110BD52
:10CDD00000230020FAE7C046840D002040220021F5
:10CDE000014B99547047C046600E0020402110B599
:10CDF000034A535C3F2B02D85C1C5454D05410BDE2
:10CE0000600E0020402110B5054A535C3E2B06D829
:10CE10000412D4549C1C0133DBB25454D05410BDC2
:10CE2000600E0020402110B5054A535C3E2B06D809
:10CE3000040AD4549C1C0133DBB25454D05410BDAA
:10CE4000600E0020402310B50248C15C00F0A8FE2F
:10CE500010BDC046600E0020F8B505001E480C004D
:10CE60000860290017001E0000F068F8002806D1AD
:10CE70001A482900206000F061F8002827D0290016
:10CE8000206800F08FF800213060206800F038F84A
:10CE9000069B40B23860002B14D0104B22689A4297
:10CEA00012D00A2509242000FBF71CFE002807D019
:10CEB0002800FBF717FE002801D0002003E02C001B
:10CEC000069B1C600120F8BD08250724EBE7012321
:10CED0005B4200203360F6E7000030500000205035
:10CEE000054B10B59C4660444342584180004118B0
:10CEF0000248FBF76BFD10BD0000D0AF0613002009
:10CF00000B4B10B59C46604443425841094A84008B
:10CF100082B0009208482200E31CFBF709FD84421E
:10CF200002DC001B02B010BD01204042FAE7C046FF
:10CF30000000D0AF20E600100613002070B50E00F0
:10CF40000400FBF7BDFC154A154B9446644462424D
:10CF500054410122A400E558052134792023A24040
:10CF60007156013A1B1B00290BDB994214DC8A40E5
:10CF700014002C4063425C41E4B2FBF7ADFC20009E
:10CF800070BD002B02DA07E0013B05D31100994088
:10CF90000D42F9D10124F0E70024EEE70000D0AF04
:10CFA00004080020F0B5DE4657464E464546884602
:10CFB000E0B583B006000524FBF782FC43461F79E9
:10CFC0001C57314B8246F3185A4253419B009C46F2
:10CFD0002E4A1300934662469B5801229946BA4056
:10CFE0002023013ADB1B002C36DB9C4246DCA240AE
:10CFF0004B46134242D10192002F1CD04246434679
:10D0000052781B7812021A4343469B7880251B04F2
:10D0100013434246D078002200061843AD01530066
:10D02000C15AA94200D20919A31812339B00013238
:10D030009951BA42F3D34D46019B62461D435B466C
:10D0400050469D50FBF748FC200003B0F0BCBB46A7
:10D05000B246A946A046F0BD002B0FDB11004846A2
:10D0600099401C000191014206D1C5E715004946CF
:10D070009D401C00294204D0013BF7D20448FDF733
:10D080000DFA0195B8E7C0460000D0AF04080020B3
:10D0900044E6001070B501250B7904009D40013D68
:10D0A0009540FBF70DFC064B06499C4664446342E1
:10D0B0005C41A4006258AA436250FBF70DFC70BDAE
:10D0C0000000D0AF04080020F0B5DE4657464E46BB
:10D0D0004546E0B51600DC22924685B01C004B00A8
:10D0E00002935B18DB00C518AA4452468346280009
:10D0F0001268CC3000920268C020CC3380015B44BF
:10D1000003438020800201921860002C1DD08023F0
:10D11000DB0499460123D83598462B00E027554675
:10D120009A463F0203912000FEF786FD4A464301DE
:10D1300013432B6033004246C340134052463B43E7
:10D140001360631E1C40EED10399029B5B18DB0049
:10D150005B441A000099DC321160019ACC331A60EA
:10D1600005B0F0BCBB46B246A946A046F0BDC046DD
:10D17000F0B5DE4657464E464546E0B51600DC2281
:10D18000924685B01C004B0002935B18DB00C5186B
:10D19000AA445246834628001268CC3000920268A6
:10D1A000C020CC3380015B44034380208002019285
:10D1B0001860002C1CD08023DB0499460123D8354D
:10D1C00098462B0055469A46124F03912000FEF7D1
:10D1D00033FD4A46430113432B6033004246C340AC
:10D1E000134052463B431360631E1C40EED103992B
:10D1F000029B5B18DB005B441A000099DC32116073
:10D20000019ACC331A6005B0F0BCBB46B246A946C1
:10D21000A046F0BD80E00000F0B557464E464546BA
:10D22000DE468946E0B583B00CA90D784946490031
:10D2300088464944C900461837003400DC37844624
:10D240003868CC3483462068C024CC31A4016144C2
:10D2500021438024A4020C6069424D411E216D428D
:10D260008D43164901908A465544052B0CD9A020C0
:10D270001F214005D836540104430532053B3C606C
:10D280000A403560052BF6D852019B0613434246EF
:10D290004A44D20062441000DC3213600300D833E9
:10D2A0001D605B461360019BCC30036003B0F0BC93
:10D2B000BB46B246A946A046F0BDC0469FE000006E
:10D2C000F0B501258D400468AC430460002B2ED0DE
:10D2D0004D006C18E400041926001F68C83637603A
:10D2E0005F68DC3477609F68DB68B76023606B1829
:10D2F000DB001D008024D035451964012C438025B6
:10D300002D06256025600125124C2E008C4084607E
:10D310000C1DA640802408318D401F21A401044328
:10D32000C0180A40D830266025600260F0BD4D006C
:10D330006C18E400041926008027C8367F02376085
:10D34000F8277F027760C027DC343F03B760236093
:10D35000CDE7C04601010101012370B51E001F4D3C
:10D360001F4C28682268011DC9B28E40FF21014070
:10D370008B401C49096800292DD03932C021890110
:10D38000FF320A431660184E136030680021FBF725
:10D3900065FB30681549FBF7C7FC01222968206846
:10D3A0008A400368124993430360124B1A68FFF7DF
:10D3B00071FE29682068FFF793FD0F4C0F49206824
:10D3C00003681B6A9847206803685B6B98470022D4
:10D3D0000B4B1A7070BD2D32D0E7C046C81000202C
:10D3E000480E0020900D00204C0E002005D40010A7
:10D3F000E0E80010440E00202C0900203404002036
:10D4000009130020F0B557464E464546DE46D04A41
:10D41000E0B51368CF4E013313600822944630689C
:10D42000073A84446446A240CB4FCC4D3B6887B05A
:10D43000596811423DD1CA4A01969046C94A2E0008
:10D440000292C94AB9460392C84A0492424615005C
:10D450002A6801322A6082009A18176A0092102204
:10D460009246196BFC0D0A40934652460A4200D080
:10D4700086E0FF2C45D95A463270BA4A1278511CC0
:10D48000FF318C4200D19BE0802149008C4200D1C9
:10D4900096E08132FF32944200D0A3E0012264463C
:10D4A00032700122A24059681142D1D04F46350056
:10D4B000019E0122A94690462B78AD4C18E03B68AE
:10D4C00035689A465A682B004146103399400A4203
:10D4D00010D100F02DFD52460435AB009850237852
:10D4E000013BDBB22370002B00D197E04B461B7849
:10D4F000032BE4D007B0F0BCBB46B246A946A04619
:10D50000F0BD3178022911D033D800296AD0029AAF
:10D5100012788032944200D1D7E05A46327001220C
:10D520006446A2405968114292D0BFE7039AE4B220
:10D5300011786118C9B21170049A059111788A4660
:10D5400001218846C2445146C9B2117002297DD0DA
:10D55000884F3F780337B94200D18AE0200000F0BD
:10D560003BFD019A4B461068082294461B68844490
:10D57000D5E70429D1D1002C71D000223270CEE73A
:10D580007D4A440011682218D4001C192700D8379E
:10D5900039600199CC34884621680029FCDB41467A
:10D5A00001918021D200D03249019A180A4380218A
:10D5B00009061160116010221A6300223270AEE772
:10D5C00000F0E2FC0028CCD0022301223370674B2C
:10D5D0001A70654B1C70013CFF3C62425441674B22
:10D5E0001C70BEE7644A440011682218D4001C195C
:10D5F0002700D83739600199CC3488462168002942
:10D60000FCDB414601918021D200D03249019A18B9
:10D610000A43802109061160116080E741463368A2
:10D620004D460433DBB299400B0055493A6809680E
:10D63000002900D189E03932C021FF3289010A4333
:10D64000136000F097FC00232B7053E73F21494AF9
:10D65000214011704B4A7900C90F11705FE700F04B
:10D6600089FC019A4B461068082294461B68844442
:10D6700083E75A46414C3270059A2778002A00D138
:10D68000ACE0002F00D04AE744002418E400270053
:10D690008021D037DF194901394380271C193F0603
:10D6A0000F600F6027003849D8370968009A396041
:10D6B0000199CC34884621680029FCDB4146019160
:10D6C000002111610131116129E700F003FC284BB1
:10D6D000071E18705AD00323019A33701068284A25
:10D6E000440021181268C9004B460C009446802261
:10D6F0001B68D0341C195201224380245918240677
:10D70000146014600C00204AD8341268CC312260B6
:10D71000019A90460A68002AFCDB4246011D8C00F3
:10D7200001927A1EE2500122C9B28A4061461C0071
:10D73000002900D188E039348021FF348901214358
:10D740000A60082294468444E9E62D3274E7C04614
:10D750008C0D0020C8100020480E0020131300205C
:10D76000940D0020300400200F1300200E13002021
:10D770001513002012130020280900201013002088
:10D78000900D002011130020980D0020019F4B46A2
:10D790003868802244002118C9000C001B68D0346E
:10D7A0001C19520122438024240614601460274A65
:10D7B000591814680A00B846D8321460CC310A6887
:10D7C000002AFCDB42460021019282009A18116176
:10D7D00011610822944631708444A0E61C4B390044
:10D7E000187800F013FC1B4B1B49186803685B6A30
:10D7F00098472378002B00D0B3E6019F4B4638684A
:10D80000802244002118C9000C001B68D0341C1968
:10D810005201224380242406146014600B4A5918D4
:10D8200014680A00B846D8321460CC310A68002A5D
:10D83000FCDB42460021019282009A1811611161BD
:10D840000822944684446AE62D3475E7980D00203A
:10D85000111300202C09002034040020F0B54E469E
:10D860004546DE4657461F22E0B58B4B8B4E9D6AE0
:10D870009C6A9B6AAD0A640989B015401440300067
:10D880001A40029200F04CFD002800D101E1844BC7
:10D8900084491E6033683000DB699847824B834FB0
:10D8A0009A46834B52469B46824B59469946009373
:10D8B00081483B00FFF7D0FA002800D1E6E05B4644
:10D8C0001E6853461B683A68984680235B0204939F
:10D8D0000392931C10321203DB011343774A414633
:10D8E0001340C022D20513430593C0231B030693A4
:10D8F0008023DB05079300232A00300000930133C7
:10D90000FFF78AFC6E49280077187B1E9F41063777
:10D910003900FAF723FF280000220121FAF736FF29
:10D92000079B684A02991340EA0313430793664A28
:10D93000059B2D0613402B43069A0593634B30003D
:10D940001A408023DB021343069301231D008B4002
:10D95000A5401D432B0000224146FFF7B5FB2B00DD
:10D96000002241463000FFF703FC20003900FAF79F
:10D97000F5FE029D39002800FAF7F0FE2000002293
:10D980000121FAF703FF280000220121FAF7FEFE29
:10D99000069A4F4B1F211A4080231B031343069303
:10D9A0004C4A079B052013404B4A23431340A402D3
:10D9B0001C434A4B4A4A1C406B011C438223DB0434
:10D9C00023430793039B11330B401360454B464A97
:10D9D0001A60FCF723FCFFF705F84449FEF7E7FF60
:10D9E000051CFFF759F884B20020002C3ED1240416
:10D9F00004430494012441463000039A04ABFFF72A
:10DA00005FFC230041468B40326839491343336041
:10DA10004B4680221868FBF78DF84B4601211868A9
:10DA2000FBF71CF84B461A685B461968244BCB1869
:10DA3000581E83415B000733D31A2E4A13605246A7
:10DA400012789440002B0FD12D3180230122FF3119
:10DA50009B010B431C60284B1A7009B0F0BCBB46FD
:10DA6000B246A946A046F0BD3931EEE72000FEF7E8
:10DA7000B9FF011C281CFEF794FF8721C905FEF79A
:10DA8000AAFFFFF709F8C0B20002B0E71B48FCF795
:10DA900005FD1B48FCF702FD00800540C005002085
:10DAA0002C09002034040020C8100020440E00205F
:10DAB000480E00204C0E0020E0E80010FFFFFF9F02
:10DAC0000000E0AFFF7FF0FFFFFFFFE0FFFF0AFE77
:10DAD000FFFFF5C1E0FF0FFCFF83FFFF1FFCFFE32B
